:020000040800F2
:1000000000500020854E0008B1490008B34900089F
:10001000B5490008B7490008B949000800000000C8
:10002000000000000000000000000000BB490008C4
:10003000BD49000800000000BF490008C149000890
:10004000CD4E0008CD4E0008CD4E0008CD4E000824
:10005000CD4E0008CD4E0008CD4E0008CD4E000814
:10006000CD4E0008CD4E0008CD4E0008CD4E000804
:10007000CD4E0008CD4E0008CD4E0008CD4E0008F4
:10008000CD4E0008CD4E0008CD4E0008CD4E0008E4
:10009000C9490008CD4E0008CD4E0008CD4E0008DD
:1000A000CD4E0008CD4E0008CD4E0008CD4E0008C4
:1000B000CD4E0008CD4E0008CD4E0008CD4E0008B4
:1000C000CD4E0008CD4E0008CD4E0008CD4E0008A4
:1000D000CD4E0008CD4E0008CD4E0008CD4E000894
:1000E000CD4E0008CD4E0008CD4E000800000000A7
:1000F0000000000000000000000000000000000000
:0C01000000000000000000005FF808F1A3
:10010C0010B5054C237833B9044B13B10448AFF345
:10011C0000800123237010BD3C0200200000000071
:10012C000C50000808B5034B1BB103490348AFF34F
:10013C00008008BD00000000400200200C500008A8
:10014C0010B504460E4B18784FF47A73B3FBF0F3EA
:10015C000C4A1068B0FBF3F000F08EF868B90F2C65
:10016C0001D901200AE0002221464FF0FF3000F0B7
:10017C0041F8034B5C60002000E0012010BD00BF83
:10018C00000000207401002008B5074A136843F0F2
:10019C0010031360032000F01BF80020FFF7D0FFC2
:1001AC0004F0DEFB002008BD00200240034A116869
:1001BC00034B1B780B441360704700BF8C0400206A
:1001CC0000000020014B1868704700BF8C04002011
:1001DC00074AD36823F4E0631B041B0C000200F4F1
:1001EC00E060184340F0BF6040F40030D0607047CE
:1001FC0000ED00E030B4174BDB68C3F30223C3F10E
:10020C000704042C28BF04241D1D062D18D9033BFC
:10021C004FF0FF3505FA04F421EA0401994005FA80
:10022C0003F322EA0303194300280BDB0901C9B2CB
:10023C0000F1604000F5614080F8001330BC70475D
:10024C000023E5E700F00F000901C9B2024B195475
:10025C00F4E700BF00ED00E014ED00E0002807DB40
:10026C0000F01F02400901239340024A42F820305B
:10027C00704700BF00E100E00138B0F1807F0AD286
:10028C00064B5860064AF02182F823100020986033
:10029C0007221A6070470120704700BF10E000E091
:1002AC0000ED00E0F0B482B000263246A2E0002D52
:1002BC005AD0012D00D1CE68FF2B69D88446FF2B74
:1002CC0069D89500DCF800400F27AF4024EA0704FA
:1002DC0006FA05F52C43CCF800404C6814F0805F0E
:1002EC0000F087805F4CA56945F00105A561A46904
:1002FC0004F001040194019C9508AF1C5A4C54F86D
:10030C00274002F00307BF004FF00F0C0CFA07FC5C
:10031C0024EA0C0C554CA04243D004F58064A04256
:10032C0000F0818004F58064A0427ED004F58064E6
:10033C00A04234D0042435E04D4FBD4214D00BD92B
:10034C004C4FBD4210D007F58037BD420CD0A7F5FD
:10035C008017BD42B0D107E0A7F58017BD4203D08E
:10036C0007F58037BD42A7D18D687DB1012D08D02E
:10037C0044610826A0E7CE6808369DE7CE680C36A7
:10038C009AE70461082697E7002695E7042693E789
:10039C0000F1040C93E7A2F10805AD0092E70324E9
:1003AC0000E00024BC4044EA0C0402352E4F47F810
:1003BC0025404C6814F4803F39D02F4D2C681C43D9
:1003CC002C604C6814F4003F37D02B4D6C681C43E8
:1003DC006C604C6814F4801F35D0274DAC681C43FE
:1003EC00AC604C6814F4001F33D0234DEC682343ED
:1003FC00EB6001320B6833FA02F430D001249440E4
:10040C0023409C42F5D14D68122DB7D094D8022DC3
:10041C00B1D07FF64CAF032DB6D0112D7FF44CAF7D
:10042C00CE68043648E70124BCE70224BAE7124D33
:10043C002C6824EA03042C60C3E70F4D6C6824EA93
:10044C0003046C60C5E70C4DAC6824EA0304AC6093
:10045C00C7E7094DEC6824EA0303EB60C9E702B077
:10046C00F0BC704700100240000001400008014041
:10047C00000021100000311000040140F0B587B0DD
:10048C00002873D0044690F82932D3B1032384F8A2
:10049C002932206800F0DBFF254655F8107B6E46AC
:1004AC000FCD0FC62B683360231D0ECB384600F0E2
:1004BC00BFFF58B1022384F829320125284607B022
:1004CC00F0BD80F8283204F039FBDFE7002120680A
:1004DC0000F0C7FF002311E004EB4312012182F866
:1004EC00291082F82830D386002182F82B109163D2
:1004FC00D1639A1C5201A1500133DBB26068834274
:10050C00EAD3002312E004EB4311002281F82921E5
:10051C0081F8283181F82B21C1F83821C1F83C2110
:10052C0003F10A01490162500133DBB29842EAD867
:10053C00254655F8107B6E460FCD0FC62B683360E1
:10054C00231D0ECB384600F08EFF054620B102234A
:10055C0084F829320125B1E7002384F824300123E3
:10056C0084F82932206801F0B0FAA7E70125A5E745
:10057C0090F82832012B10D010B50446012180F8D8
:10058C00281204F0E6FB206801F09DFA206800F0C8
:10059C0056FF002084F8280210BD0220704790F806
:1005AC002832012B0DD010B50446012380F82832D7
:1005BC0080F82410006801F080FA002084F82802EA
:1005CC0010BD0220704770B511F0800F23D101F0DF
:1005DC0007056D0105F5947404440544002685F85F
:1005EC00296101F0070121702261E370627802B188
:1005FC00E181022B1AD090F82832012B19D0054634
:10060C00012380F828322146006800F042FF0020C8
:10061C0085F8280270BD01F007056D0105F128046D
:10062C0004440544012685F82960DAE70023237188
:10063C00E1E70220EEE710B511F0800F1CD101F0BC
:10064C0007035B0103F5947202440344002483F80E
:10065C00294101F00703137090F82832012B16D0B2
:10066C000446012380F828321146006801F0C5F8D1
:10067C00002084F8280210BD01F007035B0103F190
:10068C00280202440344012483F82940E1E70220B4
:10069C00F1E770B501F007056C0104F594710144A4
:1006AC000444C4F83C2105F10A0252018618835017
:1006BC000023736084F8293184F8285125B100682F
:1006CC0001F01FFA002070BD006801F01AFAF9E77A
:1006DC0001F007010A3100EB41114868704770B511
:1006EC0001F007056C0104F1280101440444E263A4
:1006FC00AA1C52018618835000237360012384F8CE
:10070C00293084F8285025B1006801F0FAF900204E
:10071C0070BD006801F0F5F9F9E7F8B504462068FA
:10072C00B0F8443013F4004F00F0AD81B0F8443011
:10073C009BB213F00F0540F0CD8013F0100F58D082
:10074C0003889BB213F4006F40F0898013F4004FC0
:10075C00E5D0038823F070031B051B0D43F08003C9
:10076C0003802068B0F8503094F8282103EBC203C2
:10077C00063300EB4303B3F80034C3F30903C4F8A6
:10078C0044318BB1D4F83C1171B1B4F82E2101F085
:10079C0048FBD4F84421D4F83C311344C4F83C3120
:1007AC000021204604F0F2F92368B3F850201344DA
:1007BC00D4F83821002A74D1B3F80C2492B222F464
:1007CC00F84292B2A3F80C24B3F80C2442F4004281
:1007DC00A3F80C24226813889BB223F4804323F0E3
:1007EC00700383F4405343F4004343F080031380BD
:1007FC0095E703889BB223F4E14323F070036FEA7F
:10080C0043436FEA53439BB203802268B2F85030E3
:10081C0094F8281003EBC103023302EB4303B3F843
:10082C000034C3F309036364E26B1344E3630021F4
:10083C00204604F0B5F994F82430002B3FF46FAF48
:10084C00236C002B7FF46BAF94F82430226843F0B8
:10085C008003A2F84C30002384F824305FE7B0F812
:10086C00503094F8282103EBC203063300EB43030A
:10087C00B3F80034C3F30903C4F84431B4F82E219F
:10088C0004F50C7101F0CDFA2268138823F0700383
:10089C001B051B0D43F080031380204604F06EF9FA
:1008AC003DE73E2A09D8510812F0010F00D0013162
:1008BC00890289B2A3F80C148CE7510912F01F0FAE
:1008CC0000D101396FEAC1626FEA524292B2A3F8C9
:1008DC000C247FE730F82560B6B216F4004F33D104
:1008EC0016F0800F3FF41BAF226832F825309BB214
:1008FC0023F4E14323F070036FEA43436FEA53435D
:10090C009BB222F825302268B2F8503004EB451027
:10091C0090F8281003EBC103023302EB4303B3F846
:10092C000024C2F30902AB1C5B01E1184A60C16BE5
:10093C000A44C263E358002B40F09D8090F82810C5
:10094C00204604F02DF9EAE630F8253023F0700348
:10095C001B051B0D43F0800320F8253004EB4513D9
:10096C0093F83431D3B92068B0F8503004EB451209
:10097C0092F8282103EBC203063300EB4303B3F8D0
:10098C000074C7F309078FB304EB45113B46B1F86C
:10099C002E21D1F83C1101F044FA27E0206804EB39
:1009AC00451393F8282130F8223013F4804F43D0AC
:1009BC00B0F8503003EBC203023300EB4303B3F83F
:1009CC000074C7F309076FBB226804EB451393F857
:1009DC00281132F821309BB223F4E04323F070034A
:1009EC0043F4004343F0C00322F8213005F10A031D
:1009FC005B01E1184A683A444A6004EB4511D1F8AE
:100A0C003C213A44C1F83C21E3581BB1D1F83811D0
:100A1C008F4228D204EB451393F82811204604F09A
:100A2C00B5F85DE704EB45113B46B1F83021D1F840
:100A3C003C1101F0F6F9C7E7B0F8503003EBC203F4
:100A4C00063300EB4303B3F80074C7F30907002F18
:100A5C00BAD004EB45113B46B1F83221D1F83C1128
:100A6C0001F0DFF9B0E704EB451191F828112046AD
:100A7C00FFF70FFE34E704EB451595F828102046D8
:100A8C00FFF72DFE4BE60020F8BD10B504460068BC
:100A9C0001F01DF810F4004F45D1206801F017F853
:100AAC0010F4806F43D1206801F011F810F4804FDE
:100ABC0008D02268B2F844309BB223F480439BB236
:100ACC00A2F84430206801F002F810F4005F08D05E
:100ADC002268B2F844309BB223F400539BB2A2F8C4
:100AEC004430206800F0F3FF10F4805F30D12068B0
:100AFC0000F0EDFF10F4006F49D1206800F0E7FF23
:100B0C0010F4007F6DD1206800F0E1FF10F4807FBD
:100B1C0008D02268B2F844309BB223F480739BB2A5
:100B2C00A2F8443010BD2046FFF7F7FDB5E7226868
:100B3C00B2F844309BB223F480639BB2A2F84430E9
:100B4C00204604F03CF800212046FFF728FDAAE7D8
:100B5C002268B2F840309BB223F004039BB2A2F897
:100B6C0040302268B2F840309BB223F008039BB2AD
:100B7C00A2F84030204604F043F82268B2F8443022
:100B8C009BB223F480539BB2A2F84430AFE72268A7
:100B9C00B2F8403043F00803A2F840302268B2F8B3
:100BAC0044309BB223F400639BB2A2F84430226819
:100BBC00B2F8403043F00403A2F84030206800F053
:100BCC0086FF10F4805F08D02268B2F844309BB2E4
:100BDC0023F480539BB2A2F84430204604F000F872
:100BEC008BE72268B2F844309BB223F400739BB2BB
:100BFC00A2F84430204603F0DCFF84E738B501F05E
:100C0C00070543689D422CD811F0800F1AD14B0177
:100C1C0003F5947101440344002283F82921012334
:100C2C008B700D7090F82832012B1CD004460123D8
:100C3C0080F82832006800F0CAFE65B1002084F804
:100C4C0028020FE06B0103F1280101440344012247
:100C5C0083F82920E3E704F50C71206800F03AFFD3
:100C6C00ECE7012038BD0220FCE701F00F024368DD
:100C7C009A422DD810B511F0800F1ED101F0070348
:100C8C005B0103F5947202440344002483F8294168
:100C9C000023937001F00703137090F82832012B96
:100CAC0018D00446012380F828321146006800F061
:100CBC00B3FE002084F8280210BD01F007035B018D
:100CCC0003F1280202440344012483F82940DFE79E
:100CDC00012070470220EFE711F0800F0CD001F0DB
:100CEC0007014901283101445AB101220A730B81D1
:100CFC001B0C4B8100207047490101F59471014494
:100D0C00F2E70A73CB80F5E782B0084B1B68084A00
:100D1C00A2FB03235B0A00FB03F0019000BF019BC5
:100D2C005A1E0192002BF9D102B0704774010020B9
:100D3C00D34D6210002800F0F58170B582B00446E6
:100D4C00036813F0010F2CD0AB4B5B6803F00C0362
:100D5C00042B1DD0A84B5B6803F00C03082B12D09E
:100D6C006368B3F5803F41D0002B55D103F180432C
:100D7C0003F504331A6822F480321A601A6822F4DC
:100D8C0080221A6037E09C4B5B6813F4803FE7D0FD
:100D9C00994B1B6813F4003F03D06368002B00F0E1
:100DAC00C381236813F0020F76D0934B5B6813F06A
:100DBC000C0F5FD0904B5B6803F00C03082B54D0E6
:100DCC002369002B00F08A808C4B01221A60FFF7FC
:100DDC00F9F90546884B1B6813F0020F75D1FFF724
:100DEC00F1F9401B0228F5D90320A0E1824A1368CF
:100DFC0043F480331360636843B3FFF7E3F90546AC
:100E0C007D4B1B6813F4003FCBD1FFF7DBF9401B84
:100E1C006428F5D903208AE1B3F5A02F09D0764BCD
:100E2C001A6822F480321A601A6822F480221A603E
:100E3C00E1E703F18043A3F53C331A6842F48022C6
:100E4C001A601A6842F480321A60D4E7FFF7BAF9D4
:100E5C000546694B1B6813F4003FA2D0FFF7B2F9AB
:100E6C00401B6428F5D9032061E1634B5B6813F4E4
:100E7C00803FA5D1604B1B6813F0020F04D023698F
:100E8C00012B01D0012052E15B4A136823F0F803D7
:100E9C00616943EAC1031360236813F0080F32D071
:100EAC00A369002B5BD0564B01221A60FFF78AF91D
:100EBC000546514B5B6A13F0020F21D1FFF782F903
:100ECC00401B0228F5D9032031E14B4A136823F06B
:100EDC00F803616943EAC1031360DDE7474B002265
:100EEC001A60FFF76FF90546434B1B6813F0020FAE
:100EFC00D2D0FFF767F9401B0228F5D9032016E181
:100F0C000120FFF701FF236813F0040F00F0988015
:100F1C00394BDB6913F0805F33D1374BDA6942F020
:100F2C008052DA61DB6903F080530193019B012548
:100F3C00344B1B6813F4807F25D0E368012B36D02B
:100F4C00002B4CD103F1804303F504331A6A22F0D1
:100F5C0001021A621A6A22F004021A622CE0284B6F
:100F6C0000221A60FFF72EF90546234B5B6A13F03B
:100F7C00020FC8D0FFF726F9401B0228F5D9032031
:100F8C00D5E00025D4E71F4A136843F4807313603F
:100F9C00FFF718F906461B4B1B6813F4807FCCD166
:100FAC00FFF710F9801B6428F5D90320BFE0124A23
:100FBC00136A43F001031362E3687BB3FFF702F992
:100FCC0006460D4B1B6A13F0020F38D1FFF7FAF8E7
:100FDC00801B41F288339842F3D90320A7E0052BFC
:100FEC0012D0054B1A6A22F001021A621A6A22F018
:100FFC0004021A62E0E700BF001002400000424207
:10100C0080044242007000404C4B1A6A42F00402C9
:10101C001A621A6A42F001021A62CDE7FFF7D2F89F
:10102C000646464B1B6A13F0020F08D0FFF7CAF8AE
:10103C00801B41F288339842F3D9032077E0E5B95D
:10104C00E369002B72D03D4A526802F00C02082A68
:10105C0056D0022B17D03A4B00221A60FFF7B2F889
:10106C000446364B1B6813F0007F47D0FFF7AAF8F5
:10107C00001B0228F5D9032059E0304AD36923F02C
:10108C008053D361DCE72E4B00221A60FFF79AF8ED
:10109C0005462A4B1B6813F0007F06D0FFF792F829
:1010AC00401B0228F5D9032041E0236AB3F5803FA9
:1010BC001AD022494B6823F47413226A606A0243E3
:1010CC0013434B601E4B01221A60FFF77BF804465A
:1010DC001A4B1B6813F0007F0ED1FFF773F8001B3F
:1010EC000228F5D9032022E0144A536823F4003374
:1010FC00A1680B435360DCE7002018E0002016E0E9
:10110C00012B16D00D4B5B6803F48031226A91429F
:10111C0001D001200BE003F47013626A93420AD0F1
:10112C00012004E001207047012000E0002002B003
:10113C0070BD0120FBE70020F9E700BF0010024062
:10114C006000424210B487B0164C94E80F000DF1C9
:10115C00180C0CE90F00238AADF80430124B5B68B5
:10116C0003F00C02082A1AD1C3F38342624412F82A
:10117C00102C13F4803F05D10C4800FB02F007B093
:10118C0010BC7047084B5B68C3F34043634413F8CF
:10119C00143C074800FB02F0B0FBF3F0EFE7044807
:1011AC00EDE700BF245000080010024000093D008C
:1011BC0000127A00002800F0A38070B50446524B50
:1011CC001B6803F007038B420CD24F4A136823F0C1
:1011DC0007030B431360136803F007038B4201D022
:1011EC00012070BD236813F0020F17D013F0040F09
:1011FC0004D0464A536843F4E0635360236813F009
:10120C00080F04D0414A536843F4605353603F4A7B
:10121C00536823F0F003A068034353600D46236822
:10122C0013F0010F31D06368012B20D0022B25D095
:10123C00364A126812F0020F64D034494A6822F020
:10124C00030213434B60FEF7BDFF06462F4B5B6852
:10125C0003F00C036268B3EB820F16D0FEF7B2FFFB
:10126C00801B41F288339842F0D90320B9E7274A12
:10127C00126812F4003FE0D10120B2E7234A126851
:10128C0012F0007FD9D10120ABE71F4B1B6803F094
:10129C000703AB420CD91C4A136823F007032B43FA
:1012AC001360136803F00703AB4201D0012098E7E9
:1012BC00236813F0040F06D0144A536823F4E06338
:1012CC00E1680B435360236813F0080F07D00F4AF3
:1012DC00536823F46053216943EAC1035360FFF759
:1012EC0031FF0A4B5B68C3F30313094AD35CD84044
:1012FC00084B1860084B1868FEF722FF002070E7B7
:10130C000120704701206CE70020024000100240D1
:10131C0074560008740100200400002070B582B0DF
:10132C000446036813F0010F34D03E4BDB6913F015
:10133C00805F48D13B4BDA6942F08052DA61DB695D
:10134C0003F080530193019B0125374B1B6813F469
:10135C00807F3AD0334B1B6A13F4407311D0626810
:10136C0002F440729A420CD02E4A136A23F4407055
:10137C002E4901260E6000260E60106213F0010F3C
:10138C0037D1284A136A23F4407361680B43136204
:10139C00002D3FD1236813F0020F06D0214A536869
:1013AC0023F44043A1680B435360236813F0100FE0
:1013BC0035D01C4A536823F48003E1680B43536017
:1013CC00002002B070BD0025BFE7174A136843F434
:1013DC0080731360FEF7F6FE0646134B1B6813F47E
:1013EC00807FB7D1FEF7EEFE801B6428F5D9032071
:1013FC00E7E7FEF7E7FE06460A4B1B6A13F0020FFF
:10140C00BFD1FEF7DFFE801B41F288339842F3D93F
:10141C000320D6E7D36923F08053D361BAE70020C9
:10142C00CFE700BF00100240007000404004424271
:10143C0084B001A880E80E00002004B07047B0F81A
:10144C00403043F43F43A0F8403000207047B0F8E0
:10145C00403023F47C535B045B0CA0F8403000203C
:10146C0070470020704784B038B505AC84E80E0096
:10147C000123A0F840300024A0F84040A0F84440DC
:10148C00A0F85040FFF7DBFF2046BDE8384004B021
:10149C00704730B403460C7830F8242092B222F412
:1014AC00EC4222F0700292B2C87803285AD8DFE8D6
:1014BC0000F04D550251002048F280052A4323F8D4
:1014CC0024200C7833F8242092B222F4E04222F04B
:1014DC00700222432A4323F824200A7B002A40F07E
:1014EC00B1804A78002A4ED0B3F850201A440C78B8
:1014FC0002EB0412CC8864086400A2F800440C7857
:10150C0033F8242012F0400F0CD033F8242092B280
:10151C0022F4E04222F0700242F4004242F0C00297
:10152C0023F82420CA78012A1ED0097833F8212008
:10153C0092B222F4E04222F0400282F0200242F405
:10154C00004242F0800223F8212060E042F4007255
:10155C000020B1E742F4C0620020ADE742F48062A3
:10156C000020A9E70120A7E7097833F8212092B2DF
:10157C0022F4E04222F0400242F4004242F08002A7
:10158C0023F8212043E0B3F850201A440C7802EBE6
:10159C000412CC8864086400A2F80844B3F8502004
:1015AC001A440C7802EB04120C6994BBB2F80C448C
:1015BC00A4B224F4F844A4B2A2F80C44B2F80C443B
:1015CC0044F40044A2F80C440C7833F8242012F4B0
:1015DC00804F0CD033F8242092B222F4E04222F057
:1015EC00700242F4404242F0800223F82420097831
:1015FC0033F8212092B222F4804222F0700282F45D
:10160C00405242F4004242F0800223F8212030BCC8
:10161C0070473E2C09D8650814F0010F00D0013535
:10162C00AD02ADB2A2F80C54CEE7650914F01F0F51
:10163C0000D1013D6FEAC5646FEA5444A4B2A2F82C
:10164C000C44C1E70C7833F8242092B222F4E04227
:10165C0022F0700242F4014242F0800223F824206E
:10166C00B3F850201A440C7802EB04120C8964086D
:10167C006400A2F80044B3F850201A440C7802EB32
:10168C0004124C8964086400A2F808444A78002AC1
:10169C004ED10C7833F8242012F4804F0CD033F850
:1016AC00242092B222F4E04222F0700242F4404232
:1016BC0042F0800223F824200C7833F8242012F016
:1016CC00400F0CD033F8242092B222F4E04222F0E6
:1016DC00700242F4004242F0C00223F824200C783D
:1016EC0033F8242092B222F4E04222F0700242F449
:1016FC00004242F0C00223F824200D7833F8252054
:10170C0092B222F4804222F0700282F4405248F2EB
:10171C008004224323F82520097833F8212092B243
:10172C0022F4E04222F04002224323F821206EE70B
:10173C000C7833F8242012F4804F0CD033F824208A
:10174C0092B222F4E04222F0700242F4404242F0A3
:10175C00800223F824200C7833F8242012F0400F58
:10176C000CD033F8242092B222F4E04222F0700222
:10177C0042F4004242F0C00223F824200C7833F8E3
:10178C00242092B222F4E04222F0700242F4404251
:10179C0042F0800223F82420CA78012A1ED00C784B
:1017AC0033F8242092B222F4E04222F0400282F07C
:1017BC00200242F4004242F0800223F824200978EF
:1017CC0033F8212092B222F4804222F0700242F4CB
:1017DC00004242F0800223F8212018E70C7833F8FD
:1017EC00242092B222F4E04222F0400242F4004261
:1017FC0042F0800223F82420E1E70B7B002B46D13A
:10180C004B7813B30A7830F8223013F0400F0CD019
:10181C0030F822309BB223F4E04323F0700343F4FE
:10182C00004343F0C00320F822300A7830F822300D
:10183C009BB223F4E04323F0400343F4004343F012
:10184C00800320F82230002070470A7830F82230CC
:10185C0013F4804F0CD030F822309BB223F4E043C9
:10186C0023F0700343F4404343F0800320F822300C
:10187C000A7830F822309BB223F4804323F07003B3
:10188C0043F4004343F0800320F82230DBE710B42C
:10189C004B78002B4ED10A7830F8223013F4804F5D
:1018AC000CD030F822309BB223F4E04323F07003C9
:1018BC0043F4404343F0800320F822300A7830F898
:1018CC00223013F0400F0CD030F822309BB223F4AE
:1018DC00E04323F0700343F4004343F0C00320F8CB
:1018EC0022300A7830F822309BB223F4E04323F004
:1018FC00700343F4004343F0C00320F822300B780C
:10190C0030F8232092B222F4804222F0700248F286
:10191C008004224320F823200A7830F822309BB22E
:10192C0023F4E04323F04003234320F8223000202B
:10193C0010BC70470A7830F8223013F4804F0CD06A
:10194C0030F822309BB223F4E04323F0700343F4CD
:10195C00404343F0800320F822300A7830F82230DC
:10196C0013F0400F0CD030F822309BB223F4E0433C
:10197C0023F0700343F4004343F0C00320F82230FB
:10198C000A7830F822309BB223F4E04323F0700342
:10199C0043F4404343F0800320F822300B7830F8B6
:1019AC00232092B222F4E04222F0400248F280045A
:1019BC00224320F823200A7830F822309BB223F4FB
:1019CC00804323F07003234320F82230AFE74B7899
:1019DC008BB90A7830F822309BB223F4804323F081
:1019EC00700383F4805343F4004343F0800320F8E6
:1019FC002230002070470A7830F822309BB223F452
:101A0C00E04323F0400383F0100343F4004343F01E
:101A1C00800320F82230ECE70B7B002B4BD14B786A
:101A2C0033B30A7830F8223013F0400F0CD030F872
:101A3C0022309BB223F4E04323F0700343F40043C1
:101A4C0043F0C00320F82230CB78012B33D00A7836
:101A5C0030F822309BB223F4E04323F0400383F0B0
:101A6C00200343F4004343F0800320F8223022E0AB
:101A7C000A7830F8223013F4804F0CD030F8223032
:101A8C009BB223F4E04323F0700343F4404343F050
:101A9C00800320F822300A7830F822309BB223F4ED
:101AAC00804323F0700383F4405343F4004343F02A
:101ABC00800320F822300020704711B98023A0F851
:101ACC004C30002070470020704700207047B0F861
:101ADC00440070470020704701335B0800EB420262
:101AEC0002F5806263B110B40C78487844EA0024A3
:101AFC0022F8044B0231013B002BF5D110BC70478E
:101B0C00704770B54E78012E33D08A690B699A42B2
:101B1C0040F2FC80D21A8A610A7B002A40F01381C1
:101B2C00B0F8502002440C7802EB0412002B40F069
:101B3C00F180B2F80C349BB223F4F8439BB2A2F8B8
:101B4C000C34B2F80C3443F40043A2F80C340A7889
:101B5C0030F822309BB223F4804323F0700383F4DB
:101B6C00405343F4004343F0800320F8223000201C
:101B7C0070BD8A690B699A4222D9D21A8A610C46C5
:101B8C0005460A7B02B30A7830F8221011F0400F98
:101B9C0072D0002E40D1B0F85010014401EB02126B
:101BAC000BBBB2F80C1489B221F4F84189B2A2F83B
:101BBC000C14B2F80C1441F40041A2F80C1433E0EC
:101BCC0000238B611346DAE79EB23346CA88496913
:101BDC00FFF782FFB5F850302B44227803EB021349
:101BEC00A3F8046437E03E2B09D8590813F0010F11
:101BFC0000D00131890289B2A2F80C1414E0590901
:101C0C0013F01F0F00D101396FEAC1616FEA514126
:101C1C0089B2A2F80C1407E0B0F85010014401EBA3
:101C2C00021299B2A2F80C1462899BB2616928461F
:101C3C00FFF752FF6378002B57D1227835F822300A
:101C4C009BB223F4E04323F0700343F4004343F0CE
:101C5C00C00325F82230227835F822309BB223F4C9
:101C6C00E04323F0400383F0300343F4004343F09C
:101C7C00800325F822307AE76EBBB0F8501001448F
:101C8C0001EB021273B9B2F8041489B221F4F841D1
:101C9C0089B2A2F80414B2F8041441F40041A2F879
:101CAC00041420E03E2B09D8590813F0010F00D082
:101CBC000131890289B2A2F8041414E0590913F015
:101CCC001F0F00D101396FEAC1616FEA514189B22E
:101CDC00A2F8041407E0B0F85010014401EB021212
:101CEC0099B2A2F8041422899FE7012BB3D1227870
:101CFC0035F822309BB223F4E04323F0700343F415
:101D0C00404343F0800325F82230A4E700238B6185
:101D1C00134601E73E2B09D85C0813F0010F00D0E5
:101D2C000134A402A4B2A2F80C4410E75C0913F02D
:101D3C001F0F00D1013C6FEAC4646FEA5444A4B293
:101D4C00A2F80C4403E7A6B9B0F8502002440C7872
:101D5C0002EB041233BBB2F80444A4B224F4F844EA
:101D6C00A4B2A2F80444B2F8044444F40044A2F827
:101D7C0004444A78002A47D1B0F8502002440C7829
:101D8C0002EB04123BBBB2F80C349BB223F4F843C5
:101D9C009BB2A2F80C34B2F80C3443F40043A2F812
:101DAC000C34D4E63E2B09D85C0813F0010F00D09C
:101DBC000134A402A4B2A2F80444DAE75C0913F0DB
:101DCC001F0F00D1013C6FEAC4646FEA5444A4B203
:101DDC00A2F80444CDE73E2B09D85C0813F0010FA0
:101DEC0000D00134A402A4B2A2F80C44AFE65C0902
:101DFC0013F01F0F00D1013C6FEAC4636FEA534329
:101E0C009BB2A2F80C34A2E6012A7FF4A0AEB0F883
:101E1C00502002440C7802EB04129BB2A2F80C3452
:101E2C0095E630B45D0800EB420202F5806207E0F3
:101E3C0032F8044BA4B20C70240A4C700231013DF0
:101E4C00002DF5D113F0010F01D013880B7030BCAD
:101E5C00704710B5D0F8B842D0F8BC325BB194F8EA
:101E6C000002FF2807D09B6894F80122214698476E
:101E7C00FF2384F80032002010BD000043230380B0
:101E8C000048704708000020432303800048704737
:101E9C004C00002043230380004870479000002032
:101EAC000A23038000487047D400002038B504464C
:101EBC00D0F8B85202F042FFC5F80C02D4F8B83290
:101ECC004BB1D4F8BC32DB6805F50371D5F80402CC
:101EDC009847002038BD0220FCE738B5D0F8B8226E
:101EEC00D0F8C052EAB101EB8104A3000344DB69D2
:101EFC003BB105EB4115AD6BB3FBF5F405FB1433AE
:101F0C001BB10020C2F8140238BD01EB8102930012
:101F1C0003440024DC612346224602F0FFFE2046E7
:101F2C00F2E70220F0E770B582B005460C46D0F817
:101F3C00B86200238DF80730ADF804300B7813F03D
:101F4C00600227D0202A56D1CA883AB9D0F8BC32C0
:101F5C009B6800224878984700204FE013F0800FD0
:101F6C000CD0D0F8BC329B68314660789847E28838
:101F7C003146284600F0AEFD00203FE04B7886F855
:101F8C0000328B7986F80132CA88314600F0B7FDF1
:101F9C00002033E04B780A2B14D00B2B21D01BB133
:101FAC0000F077FA022029E090F89C32032B05D13F
:101FBC00022201A900F08EFD00201FE000F069FA5A
:101FCC0002201BE090F89C32032B06D101220DF16C
:101FDC00070100F07FFD002010E000F05AFA02200B
:101FEC000CE090F89C32032B01D1002006E000F0AD
:101FFC0050FA022002E000F04CFA022002B070BD50
:10200C0038B50446812102F056FE0025E562012117
:10201C00204602F050FEC4F86C518221204602F09A
:10202C004AFE2564D4F8B8324BB1D4F8BC325B68A4
:10203C009847D4F8B80202F08BFEC4F8B8520020CE
:10204C0038BD38B50446037CA3BB4FF400730222A1
:10205C00812102F025FE0125E5624FF40073022276
:10206C002946204602F01CFEC4F86C5108230322BA
:10207C008221204602F014FE012323644FF40770E2
:10208C0002F062FE0546C4F8B80268B3D4F8BC325C
:10209C001B6898470023C5F81432C5F81832237C06
:1020AC00C3B14023D5F804220121204602F03EFEA4
:1020BC00002038BD40230222812102F0F1FD0125D0
:1020CC00E562402302222946204602F0E9FDC4F8CD
:1020DC006C51CBE74FF40073D5F804220121204654
:1020EC0002F024FE0020E4E70120E2E719B1C0F879
:1020FC00BC120020704702207047D0F8B832C3F8E9
:10210C000812C3F8102200207047D0F8B832C3F878
:10211C00041200207047D0F8B822A2B108B5D2F84A
:10212C0014320BB1012008BD0123C2F81432D2F8CD
:10213C0010320363B2F81032D2F80822812102F077
:10214C00EDFD0020EFE702207047D0F8B8229AB1DD
:10215C0008B5037C3BB14023D2F80422012102F0E4
:10216C00E5FD002008BD4FF40073D2F804220121D4
:10217C0002F0DCFD0020F5E70220704798B108B5AD
:10218C000346D0F8B40210B10020C3F8B40209B170
:10219C00C3F8B0121846012380F89C32027002F08A
:1021AC0035FD002008BD0220704719B1C0F8B412EB
:1021BC00002070470220704708B502F069FD00202E
:1021CC0008BD08B5D0F8B43233B11B68984708B9CC
:1021DC00002008BD0220FCE70220FAE708B5D0F881
:1021EC00B4325B689847002008BD38B5044600F54A
:1021FC002A75284600F039F90123C4F89432B4F852
:10220C00AE32C4F8983294F8A81201F01F03012BD7
:10221C000ED03BB1022B10D001F08001204602F011
:10222C0052FD03E02946204600F0CDFA002038BDCF
:10223C002946204600F0FBFAF8E72946204600F034
:10224C0026FBF3E738B50446A1BB1046D4F894320C
:10225C00032B03D0052B24D0002037E0D4F86031B9
:10226C00D4F8642193420DD99B1AC4F860319A4278
:10227C0006D99AB20146204600F050FC002025E019
:10228C0092B2F7E7D4F8B4321B692BB194F89C22C4
:10229C00032A01D120469847204600F047FC002035
:1022AC0014E00025C4F894522946204602F00BFD98
:1022BC0028460BE00A46D0F8B4329B693BB190F843
:1022CC009C12032905D111469847002038BD0220E5
:1022DC00FCE70220FAE710B50446002953D110465A
:1022EC00D4F89432022B0CD0042B00D01BB98021D3
:1022FC00204602F0E8FC94F8A032012B3FD00020DD
:10230C004DE0236A626A93421DD8E169B1FBF2F396
:10231C0002FB13132BB98A4203D8D4F89832994292
:10232C001FD3D4F8B432DB682BB194F89C22032A67
:10233C0001D1204698478021204602F0C4FC20465B
:10234C0000F0FFFBD7E79A1A226292B201462046B0
:10235C0000F0CDFB00231A461946204602F0E6FC9D
:10236C00C9E700221146204600F0C1FB0021C4F849
:10237C0098120B460A46204602F0D8FCBBE7002018
:10238C0084F8A0020BE00A46D0F8B4325B693BB18A
:10239C0090F89C12032905D111469847002010BDD6
:1023AC000220FCE70220FAE770B504464023002225
:1023BC00114602F075FC0125C4F858514026C4F8AA
:1023CC006461334600228021204602F069FCA5613D
:1023DC00666284F89C520023C4F894326360C4F89B
:1023EC00A432D4F8B8322BB1D4F8B4325B680021E3
:1023FC0020469847002070BD01740020704790F86B
:10240C009C3280F89D32042380F89C320020704767
:10241C0090F89C32042B01D00020704790F89D322C
:10242C0080F89C32F8E708B590F89C32032B01D069
:10243C00002008BDD0F8B432DB69002BF8D09847E7
:10244C00F6E7002302E00133DBB201300278002A08
:10245C00F9D11846704708B54B88012B00D008BD40
:10246C00C0F8A43200F062FBF9E70B7803704B78EC
:10247C0043708B78CA7803EB022343800B794A793B
:10248C0003EB022383808B79CA7903EB0223C3808D
:10249C00704710B50446802102F015FC002120463F
:1024AC0002F011FC10BD30B583B005460C4600237C
:1024BC00ADF806304A88130A013B062B00F2A480C3
:1024CC00DFE803F004182CA2A2869300D0F8B032F7
:1024DC001B680DF10601007C9847BDF806201AB167
:1024EC00E388002B40F09480E388002B00F09A8066
:1024FC0003B030BD037C43B9D0F8B4329B6A0DF104
:10250C000600984702234370E7E7D0F8B432DB6A41
:10251C000DF10600984702234370DEE7D2B2052A7C
:10252C0052D8DFE802F003101D2A3744D0F8B0323D
:10253C005B6823B10DF10601007C9847CDE721467D
:10254C00FFF7A7FFD4E7D0F8B0329B6823B10DF1A9
:10255C000601007C9847C0E72146FFF79AFFC7E7C2
:10256C00D0F8B032DB6823B10DF10601007C98473E
:10257C00B3E72146FFF78DFFBAE7D0F8B0321B69FD
:10258C0023B10DF10601007C9847A6E72146FFF721
:10259C0080FFADE7D0F8B0325B6923B10DF10601D5
:1025AC00007C984799E72146FFF773FFA0E7D0F826
:1025BC00B0329B6923B10DF10601007C98478CE782
:1025CC002146FFF766FF93E72146FFF762FF8FE78F
:1025DC00037C33B9D0F8B4325B6B0DF1060098472D
:1025EC007BE72146FFF755FF82E7037C43B9D0F820
:1025FC00B4321B6B0DF106009847072343706CE750
:10260C002146FFF746FF73E72146FFF742FF6FE7CE
:10261C009A4228BF1A46ADF806200146284600F01B
:10262C0059FA61E7284600F081FA61E738B50446AB
:10263C008B88F3B9CB88E3B94B887F2B19D803F07F
:10264C007F0590F89C32032B0CD080F89E522946C3
:10265C0002F05CFB204600F069FA35B1022384F8E5
:10266C009C3209E0FFF715FF06E0012384F89C3249
:10267C0002E02046FFF70DFF38BD000038B50446D8
:10268C000D468978284B197001290ED890F89C3288
:10269C00022B0ED0032B21D02946FFF7FAFE224B3A
:1026AC0019782046FFF79AFD02E02946FFF7F1FE64
:1026BC0038BD81B14160032380F89C32FFF781FD66
:1026CC00022803D0204600F031FAF1E729462046D3
:1026DC00FFF7DFFEECE700F029FAE9E789B1436880
:1026EC0099421DD0D9B2FFF779FD0F4B1978616073
:1026FC002046FFF766FD02280DD0204600F016FAA2
:10270C00D6E7022380F89C324160FFF767FD204634
:10271C0000F00CFACCE729462046FFF7BAFEC7E7D3
:10272C0000F004FAC4E700BF5802002008B5CB88BB
:10273C00012B0BD190F89C329BB1022B09D9032BA6
:10274C000FD10122011D00F0C5F901E0FFF7A1FE38
:10275C0008BD0146002341F8083F012200F0BAF9F8
:10276C00F6E7FFF796FEF3E708B590F89C32013BCD
:10277C00022B12D8CB88022B0CD10123C360D0F8CA
:10278C00A4320BB10323C360022200F10C0100F050
:10279C00A1F908BDFFF77DFEFBE7FFF77AFEF8E72E
:1027AC0008B590F89C32013B022B09D84B88012BC1
:1027BC0000D008BD0023C0F8A43200F0B7F9F8E748
:1027CC00FFF767FEF5E708B50B7803F06003202BE5
:1027DC0005D0402B03D043B1FFF75BFE03E0D0F8EC
:1027EC00B4329B689847002008BD4B78092B1BD846
:1027FC00DFE803F011171A141A08051A0E0BFFF76D
:10280C0052FEF0E7FFF712FFEDE7FFF737FFEAE7BD
:10281C00FFF78CFFE7E7FFF7A7FFE4E7FFF71BFEE7
:10282C00E1E7FFF7BDFFDEE7FFF733FEDBE738B587
:10283C0005460C460B7803F06003202B06D0402B8A
:10284C0004D01BB1FFF725FE002038BD95F89C3253
:10285C00013B022B16D82379012B0ED8D5F8B432B4
:10286C009B68214628469847E388002BECD100282A
:10287C00EAD1284600F05AF9E6E721462846FFF748
:10288C0008FEE1E721462846FFF703FEDCE738B5F2
:10289C0004468A880B7803F06003202B08D0D0B252
:1028AC00402B05D05BB12046FFF7F3FD002005E07F
:1028BC00D4F8B4329B6820469847002038BD202BB2
:1028CC0005D1D4F8B4329B6820469847F6E74B788C
:1028DC00012B32D0002B5ED0032B40F0D88094F823
:1028EC009C32022B06D0032B16D02046FFF7D1FDCD
:1028FC000020E3E708B1802804D12046FFF7C9FD8A
:10290C000020DBE70146204602F0DDF9802120465D
:10291C0002F0D9F90020D1E74B8823B918B18028EF
:10292C0001D0CB8823B1204600F000F90020C5E788
:10293C000146204602F0C7F9F5E794F89C32022BC9
:10294C0006D0032B16D02046FFF7A3FD0020B5E7D9
:10295C0008B1802804D12046FFF79BFD0020ADE78D
:10296C000146204602F0AFF98021204602F0ABF977
:10297C000020A3E74B88002B40F08E8010F07F0FD7
:10298C0004D1204600F0D2F8002097E701462046FB
:10299C0002F0A1F9F5E794F89C32022B06D0032B38
:1029AC002AD02046FFF775FD002087E708B1802864
:1029BC0013D112F0800F15D100F07F0000EB8000D6
:1029CC00830003F5A8712144043100250D60022217
:1029DC00204600F07FF8284670E72046FFF759FDA7
:1029EC0000206BE700F07F0000EB8000830003F118
:1029FC00100121440431E8E752B2002A1FDB00F039
:102A0C000F0303EB83039D002544D5F8583123B302
:102A1C00002A27DB00F07F0202EB8202930003F511
:102A2C00A8752544043508B1802825D100232B60D6
:102A3C0002222946204600F04DF800203EE700F027
:102A4C000F0303EB83039D002544AB69002BDFD1FF
:102A5C002046FFF71EFD002030E72046FFF719FD4A
:102A6C0000202BE700F07F0202EB8202930003F1BF
:102A7C00100525440435D6E70146204602F033F90B
:102A8C0010B101232B60D3E700232B60D0E7204645
:102A9C00FFF7FFFC002011E700200FE7C8B170B56D
:102AAC000D4616460446FFF7CCFC01304000308042
:102ABC00287003236B70022307E001345A1CD2B236
:102ACC00E9540233DBB20021A95421780029F4D156
:102ADC0070BD704710B513460222C0F89422C36132
:102AEC0003620A46002102F019F9002010BD08B556
:102AFC0013460A46002102F011F9002008BD10B55A
:102B0C0013460322C0F89422C0F85C31C0F860313F
:102B1C000A46002102F00AF9002010BD08B5134640
:102B2C000A46002102F002F9002008BD08B5042372
:102B3C00C0F8943200231A46194602F0EFF8002030
:102B4C0008BD08B50523C0F8943200231A4619466F
:102B5C0002F0ECF8002008BD38B5154AFF2382F8C6
:102B6C002C30022382F8303082F8313082F8323047
:102B7C0082F833300F4B104959603C320F4B03E055
:102B8C0019781170013201330D498B42F8D30D4A7B
:102B9C00141FFC21204601F055FD0B4D284601F079
:102BAC00B1FC4FF480722946204601F0E5FC38BD9B
:102BBC00A40D0020940D00200300000238500008E2
:102BCC0058500008D40D002000FC00082DE9F843F3
:102BDC00A24B1B780BB9BDE8F883A14B186801F028
:102BEC0041FC06469D4B9B6913F0060F47D09C4950
:102BFC008C68444051F8B03B1C4001230022154620
:102C0C000AE00868102801DC013008600868102808
:102C1C000DD001325B0004311F2A31DC9048006872
:102C2C001842F6D02342ECD000200860F1E78B4824
:102C3C00D0F83001805C33420FD0DFF824C2DCF8CE
:102C4C000C701F43CCF80C700228E2D172B6834F83
:102C5C00F8691843F86162B6DBE71D43DFF800C280
:102C6C00DCF80C7027EA0307CCF80C700128D0D1E3
:102C7C0072B67A4FF8691843F86162B6C9E7002555
:102C8C00764B9B6913F0200F29D0754B93F82D30A0
:102C9C00012B33D8724B93F82D30E3B9704991F86E
:102CAC002C200132D2B281F82C20072A03D90A46F3
:102CBC00002182F82C106A4AD16941F47F01D1615C
:102CCC0092F82C00C0F10700012101FA00F0916983
:102CDC0041EA004191610133614A82F82D305F4B2A
:102CEC009B6913F0020F00F07F815C4BD3F82C71C1
:102CFC004FF001084FF000095A4C65E0584C002782
:102D0C0084F82D70206901F0ADFB000EC1B294F86F
:102D1C002C30524A1A4492F810C08CEA010C1174EF
:102D2C00DB00143304EB43030633012239460AE07B
:102D3C001C78042C01D801341C701C78042C0AD08B
:102D4C000131520002330729A4DC1CEA020FEFD038
:102D5C0000241C70F4E71042F2D0414C94F82C7013
:102D6C003E4C3C44277A174327725C78002CE7D002
:102D7C0004F00704012707FA04F4384FB7F804E00D
:102D8C0044EA0E04BC80DBE70123637001F0D6FC3F
:102D9C00A0606168324BDA690A43DA6161689A694A
:102DAC000A439A6130E013F0080F2DD004236370AE
:102DBC0001F0C4FCA06027E00023237009F1010995
:102DCC004FEA480810340337B9F10F0F00F30C81A8
:102DDC0063784BBB214A928812EA080F02D1E26851
:102DEC002A4221D03B7813F00C0FCDD013F0040FF6
:102DFC00D9D0052363706168194BDA690A43DA612B
:102E0C0061689A690A439A613B7813F0020FD3D038
:102E1C00124B9B8813EA080FCED023EA08030F4A03
:102E2C00938001232370C9E7012B1DD0022B60D0A6
:102E3C00032B00F09480042B00F0A980052B00F0EC
:102E4C00C080002BBAD1064B9B8813EA080FB5D073
:102E5C006168034AD3690B43D361AFE7A40D00202B
:102E6C0090040020C00500203B7813F0200F0FD0F9
:102E7C00674B9B8813EA080F0AD1E3680BB1B34385
:102E8C0006D16168634AD3690B43D3610023637035
:102E9C006378012B92D101F051FCA368C01A7B78A6
:102EAC0083428BDC61685B4AD3690B43D3613B780B
:102EBC0013F01C0F15D1BB7813F00F0F09D023782A
:102ECC0023B1032363700023A37006E00223637015
:102EDC0003E0032363700023A37001F02FFCA060B8
:102EEC006CE713F0180FF8D0032363700023A37062
:102EFC00F3E7474B9B8813EA080F05D1E3680BB146
:102F0C00B34301D10123237023783BB16168414A5B
:102F1C00D3690B43D361002363704FE701F00EFCC0
:102F2C00A368C01A102811DCBB7803F00F03C3F19F
:102F3C0010038342BFF642AF6168364BDA690A432D
:102F4C00DA6161689A690A439A6137E76168314AC4
:102F5C00D3690B43D36101F0F1FBA0602EE701F0C4
:102F6C00EDFBA368C01A7B7883423FF727AFA378A9
:102F7C001033DBB2A370BA7802F07002934202D322
:102F8C00002363701AE701F0D9FBA06016E701F08B
:102F9C00D5FBA368C01ABB785B0003F01E03834209
:102FAC003FF70CAF0123637001F0C8FBA0606168B0
:102FBC00184BDA690A43DA6161689A690A439A61C3
:102FCC00FCE6134B9B8813EA080F7FF4F7AEE3681B
:102FDC0013B1B3437FF4F2AE61680E4AD3690B436D
:102FEC00D36100236370E9E6094B9B6913F0060F6C
:102FFC003FF4F1AD72B60648C36906494A6923EA43
:10300C000203CC6822401343C36162B68E60E2E5D2
:10301C00A40D0020900400201F281FD810B401F02C
:10302C000F0411F0800F0CD1012202FA00F0184BA2
:10303C0003EB0413D3F83C210243C3F83C2110BC2E
:10304C007047012202FA00F0114B03EB0413D3F882
:10305C003C2122EA0002C3F83C21F0E70D4B9B69AE
:10306C0013F0200F13D049B2002909DB01F00F0136
:10307C0041F080010C38064B03EB4000C1717047E6
:10308C000C38034B03EB40000023C37170477047AF
:10309C0090040020A40D0020294A9388184002F5C2
:1030AC0098720121002343E0264D95F83050082DED
:1030BC0032D10CE05C0004F0180403F003052C433F
:1030CC00012505FA04F4D56825EA0405D560013319
:1030DC00103249000F2B26DC0842F8D00024547023
:1030EC005668174DEC693443EC61164CD4F82C51EE
:1030FC0003EB43042C5D14F0010FDBD05C0004F0F7
:10310C00180403F003052C4304F12C060C4D002786
:10311C0045F82670002BC7D0012505FA04F4D568B4
:10312C002543D560D3E7F0BC70470133103249001A
:10313C000F2B03DC0842F8D0F0B4CFE7704700BF88
:10314C0090040020A40D0020F0B4104BD3F83041B3
:10315C000F490123002208E00E4E756925EA03058C
:10316C0075610132043101345B001F2A0CDC1D46F1
:10317C000342F6D000260E602678002EECD1054FC7
:10318C007E6935437D61ECE7F0BC7047A40D0020EF
:10319C004005002090040020914BD3F83031D3B17E
:1031AC00704700244C70901002F0030303EBC00333
:1031BC000433012000FA03F34B60CC60024410315D
:1031CC000F2AEEDD874A002313609380D3601361CE
:1031DC001D461E460DE070B584B000228249EFE713
:1031EC00D900FF2202FA01F17E4802680A4302600C
:1031FC000133032B65DC7A4A1A4492F83020022AF8
:10320C00EED0012A0ED0042A1ED0062A34D0082A69
:10321C0043D0032A01D0072AEAD1D900FF228A40E1
:10322C001543E5E7DC00F022A24015439A000F207D
:10323C0000FA02F26B498E8832438A80A0400A68F9
:10324C00104308600126D3E7022B03D0644A022105
:10325C009170CDE7624A92F83320052AF6D1614A83
:10326C00002182F82C1082F82D1045F47F0511698D
:10327C0041F07F411161BBE71BB1594A03219170A9
:10328C00B6E7D800EF2202FA00F1564C22680A4346
:10329C002260102282401543AAE71BB1504A032139
:1032AC009170A5E7DC000E2101FA04F04D4A11687B
:1032BC0001431160F121A1400D430121C2F83411E9
:1032CC0096E700240EE0474A126913421CD00023F3
:1032DC000193022302936946444B53F83400FCF7E4
:1032EC00E1FF01341F2C16DC404B03EBC4039B881D
:1032FC0000933C4B1A680123A3401A42E3D00023ED
:10330C00019301230293E6E72B42EAD001230193B8
:10331C0002230393DFE7334C20682369184301F041
:10332C00A1F8E0602E4AD2F83831C2F8303120339F
:10333C00C2F8383126B1C2F82C313033C2F83831EA
:10334C0000220BE0002301F8013B254BD3F8303170
:10335C0004F1080003448B42F4D80132032A0BDC3D
:10336C001F4B134493F83030012BF6D11C4BD3F880
:10337C003011D4002144E8E7194B9B6913F0200F5E
:10338C0019D14FF6FF70FFF787FE164B1868FFF741
:10339C00DBFE04B070BD02F11401124B03EB4103D0
:1033AC0000219971D97101323F2AF4DD0C4BD3F80D
:1033BC002C21002303E00022F6E7013303320F2B0C
:1033CC00DFDC117811F0100FF7D0917863F07F00EB
:1033DC0001F11404034901EB4401C871EDE700BF8E
:1033EC00A40D002090040020C005002058500008B7
:1033FC00034B9A6910439861DA691143D96170479C
:10340C009004002010B5044CE169A06900F0C8FFDD
:10341C000023A361E36110BD90040020164A002331
:10342C0013705370937053609360D36010E0072A4D
:10343C0019D0012101FA03F00F4A51780143517060
:10344C00D800FF2101FA00F091680143916001332B
:10345C00032B10DC094A1A4492F83020032AE6D0D8
:10346C00072AF4D1E3E7012202FA03F10248827839
:10347C000A438270DDE77047C0060020A40D0020CF
:10348C00014B01221A707047C006002038B5224B40
:10349C001B78002B3ED0214B1B78002B3AD01F4BB6
:1034AC0000221A701C4BDA7912F0010F0CD01B4B56
:1034BC009B6812F0020F02D0184AD2681343174AC5
:1034CC0055681D4300240BE00023F2E7E30025FAC6
:1034DC0003F0C0B2FF2199409840FFF789FF0134F7
:1034EC00032C17DC0D4B5B78234113F0010FF6D046
:1034FC000A4B9B78234113F0010FE7D0E00025FA2B
:10350C0000F3DB43DBB2FF21814003FA00F0FFF74D
:10351C006FFFE4E738BD00BFA40D0020C0060020FB
:10352C0070B41E4B5E6800210D461F2303E00C4651
:10353C001D460121013B002B0BDB01229A4002426C
:10354C00F8D00029F6D13242F1D01D460124214693
:10355C00F0E726EA0003114A5360E1B16B1E01E06B
:10356C001D46013B002B0EDB01229A400242F8D093
:10357C003242F5D0012202FA05F508494A682A437D
:10358C004A601D46EDE734B1012303FA05F5034A01
:10359C0053682B43536070BC704700BFC0060020BB
:1035AC0070B41E4B5E6800210D460B4603E00C46C2
:1035BC001D46012101331F2B0BDC01229A400242D4
:1035CC00F8D00029F6D13242F1D01D460124214613
:1035DC00F0E726EA0003114A5360E1B16B1C01E0ED
:1035EC001D4601331F2B0EDC01229A400242F8D0FB
:1035FC003242F5D0012202FA05F508494A682A43FD
:10360C004A601D46EDE734B1012303FA05F5034A80
:10361C0053682B43536070BC704700BFC00600203A
:10362C0010B5072839D8DFE800F004080C11172072
:10363C0029320846FFF774FF10BD0846FFF7B0FFAC
:10364C00FAE72E4A536819435160F5E72B4A536841
:10365C0023EA01015160EFE7284B9A680A439A600C
:10366C00DA6822EA0101D960E6E7244BDA680A43FA
:10367C00DA609A6822EA01019960DDE7C9431F4BC1
:10368C009C680C409C60DA680A40DA60D4E71B4BFB
:10369C00596000229A60DA60CEE710F0800FCBD030
:1036AC0010F0010F12D0154A53680B43536010F001
:1036BC00020F11D110F0040F17D1C9430F4B9A68A8
:1036CC000A409A60DA681140D960B5E70B4A536832
:1036DC0023EA01035360EAE7084B9A680A439A60AD
:1036EC00DA6822EA0101D960A6E7044BDA680A43DA
:1036FC00DA609A6822EA01029A609DE7C00600200F
:10370C00014B01225A707047D0060020F0B42B48B0
:10371C00D0F82032D0F82842A1680B44D0F81C22F3
:10372C000A44D0F8240200EB8101656820688542C8
:10373C0015DA002423E01C781470214D55F8244030
:10374C000C6001300431013201331C4CD4F8284296
:10375C00E5688542EFDC0023E360F0BC7047002095
:10376C00F3E7D31B5FFA83FC18E0D31ADBB2144ADD
:10377C0052F823300B600134043132462B460F488B
:10378C00D0F82802C568A54214DD5D1C1F78561CB4
:10379C0012789742E5D9BB1A5FFA83FC436803FBA6
:1037AC000CF3006893FBF0F3DBB29742DDD91344C2
:1037BC00DBB2DCE7436801334360CEE7D006002080
:1037CC005851000808B52B4B1B78B3B1294B5B78CB
:1037DC009BB1294B1B7853B9284B1B68DB6D33B954
:1037EC00254B03F11C02C3F8282201221A70224B2C
:1037FC001B78012B02D0022B24D008BD1E4BD3F812
:10380C002832DB6863B1FFF781FF1B4AD2F82832FC
:10381C001033C2F8283203E01033174AC2F82832AA
:10382C00154AD2F8283202F50772934202D2DA68AE
:10383C00002AF1D0124A9342DFD3A2F50773022279
:10384C001A70DAE70C4B5B78002BD6D00A4A0023AF
:10385C005370137009490B689020986550689368F1
:10386C0003FB00F39B000A680533D3650B689122B8
:10387C009A65C2E7A40D0020D00600204C01002060
:10388C00EC0800200A4BD3F8243203EB80000A44E6
:10389C0091420BD210B411F8014B064B53F8243063
:1038AC00036004309142F6D310BC7047704700BFE0
:1038BC00D0060020585100082DE9F041874AD2F873
:1038CC003831C2F8343103F16001C2F8381119787B
:1038DC004A1ED2B2FD2A16D9814A03219160804A30
:1038EC00FF2111707D490120487000215170D16079
:1038FC001161597851605B781BB913464FF4807293
:10390C005A60002309E0764A9160E8E7991C744AF2
:10391C0002EB01120021916001331F2BF6DD704D7B
:10392C006B68AC6804FB03F4204601F0F5FAC5F8AB
:10393C001C0200B3694B9B780BB3684B9B7853B359
:10394C00664B9B78002B40F0C680654BD3F8242245
:10395C0000201060D3F8248208F10401C3F824126B
:10396C005D689A6802FB05F201F82200D3F81C127C
:10397C00D3F8205221E0594B01229A70DAE7204605
:10398C0001F0CAFA564BC3F820020028D5D1534B8C
:10399C0001229A70D1E7A000053001F0BDFA504B1E
:1039AC00C3F824020028CBD14C4B01229A70C7E7F4
:1039BC00002301F8013B05F8013B494AD2F81C02EF
:1039CC005368926802FB03038B42F1D80127002352
:1039DC0000E001339A4208DD4049D1F83411194412
:1039EC008978FF29F5D00027F3E700211AE03B4E38
:1039FC00D6F834013A4D01FB023218448078D5F8E0
:103A0C001C42A054D6F83401D5F82062AA6801FBF8
:103A1C00023218448078B0540133314A92689A4289
:103A2C00E5DC01312E4B5B688B4215DD97B12C48E0
:103A3C00836891FBF3F203FB1212D0F81C5201FBCA
:103A4C0003238026EE54D0F82052836801FB032216
:103A5C00AE54E6E70023E0E7214DAA6802FB03F22F
:103A6C00D5F81C120020FFF70DFF1E4B19684A6891
:103A7C0022F070424A6019684A6842F030424A604B
:103A8C001B684FF000421A61174A11684B6943F0EA
:103A9C0001034B611268D36943F48043D361134B28
:103AAC001A68542111601A68022151601B680C338A
:103ABC000F4A11680B661368C3F864806968AB68B9
:103ACC0003FB01F39B0011680533CB65136891224E
:103ADC009A6500232B70BDE8F08100BFA40D002077
:103AEC00D0060020640100205C0100205001002061
:103AFC004C01002062B170B4154600231F2B0DDC65
:103B0C009A1C114C04EB021292683AB10133F5E79E
:103B1C000D4B596101229A70986170471F2B11DC73
:103B2C000A4AA2FB0525ED08074A02EB0316F561CC
:103B3C0000243462023302EB031358609960516124
:103B4C009470906170BC7047D0060020CDCCCCCC6A
:103B5C0010B582B08DF80700124B5B69FBB1114AAE
:103B6C00013B5361907848B90E4BD3F820129A69F7
:103B7C00541C9C619DF807308B5411E014460122B3
:103B8C000DF10701A069FFF77DFED4F81C22A36993
:103B9C00591CA1619DF80710D154002000E00120B0
:103BAC0002B010BDD0060020084B00211A4602F8C6
:103BBC00201B9A60DA6003F11002C3F8542410221F
:103BCC0083F85824C3F86014704700BFFC08002029
:103BDC00124B9B6801B30133114A934201D3A2F5F6
:103BEC0080630E4AD2689A4217D030B403E00B4A75
:103BFC00D2689A420ED0094A946805782570936071
:103C0C000139013031B10133054A9342EFD3A2F5AA
:103C1C008063ECE730BC704770477047FC080020AD
:103C2C001C0D002082B003681A0202F47F0242EAE3
:103C3C001362180A00F47F40024342EA036202ABAB
:103C4C0043F8042D002204E0187808700132013387
:103C5C000131032AF8D902B070470023934209D2EC
:103C6C0010B404780C700133013101309342F8D355
:103C7C0010BC70477047000070B588B050E3F02856
:103C8C0011D0FF2818D0202840F04A83A44C20469D
:103C9C00FF2300F8043F0DF11F02012100F0D2FCBC
:103CAC00012323703CE39E4B04221A7001210DF179
:103CBC001F0000F0A9FC33E301210DF11F0000F0FF
:103CCC00A3FC2DE3964B0022DA7019280DD940285D
:103CDC0000F0E28008A8FF2300F8013D012100F06C
:103CEC0093FC8F4B00221A701AE398708D4A125C69
:103CFC0001325A700DF11F020121181D00F0A2FCB7
:103D0C0020238DF810309DF81F308DF81130192BB1
:103D1C0000F2B780DFE803F00D243A4F6C6C6C6C4A
:103D2C00706CB56C6C246CB5B5B58C6C6C6C6C6CC7
:103D3C00B5907D4B18680DF112010830FFF772FF3A
:103D4C00774B02221A7008A8FF2300F80A3D04AA38
:103D5C00062100F077FC072104A800F055FCDFE2F7
:103D6C0004220DF112017148FFF777FF6C4B022210
:103D7C001A7008A8FF2300F80A3D04AA062100F0D7
:103D8C0061FC072104A800F03FFCC9E20DF112010F
:103D9C006748FFF747FF624B02221A7008A8FF23FF
:103DAC0000F80A3D04AA062100F04CFC072104A8E7
:103DBC0000F02AFCB4E25C4B18688368B3F1FF3F57
:103DCC0003D1574B03221A70AAE2554B02221A70E8
:103DDC000DF112010830FFF725FF04AA06210DF1A1
:103DEC00160000F02FFC072104A800F00DFC97E250
:103DFC004B4B03221A7093E272B64E4BDA69039264
:103E0C000022DA6162B60DF1120103A8FFF70AFF76
:103E1C00434B02221A7008A8FF2300F80A3D04AA9B
:103E2C00062100F00FFC072104A800F0EDFB77E25F
:103E3C003B4B05221A7073E23F4C08220DF1120124
:103E4C002046FFF70AFF364B02221A7008A8FF2300
:103E5C0000F8063D04AA0A2100F0F4FB0B2104A88B
:103E6C0000F0D2FB0022214604F1080006E010F815
:103E7C00013B0C78234001F8013B0132072AF6D9AB
:103E8C004EE208A8FF2300F8013D012100F0BCFB25
:103E9C00234B00221A7043E2284C0DF11F02012122
:103EAC00204600F0CFFB062304F8043C38E21C4A01
:103EBC00D3780133DBB2D370527893420BD3184BC7
:103ECC001B79984203D01B4A136A01331362144BBB
:103EDC0000221A7024E20DF11F020121174800F094
:103EEC00B1FB1DE20E4AD1784B1CDBB2D3701144EE
:103EFC0081F82004527893420BD3094B1B799842DA
:103F0C001ED00C4A136A01331362054B00221A703F
:103F1C0006E20DF11F020121084800F093FBFFE1BE
:103F2C00FC080020585500081C010020D40D00206E
:103F3C00980D0020A40D0020AC0D002000090020DD
:103F4C00C24B9B78033B142B00F2478101A252F821
:103F5C0023F000BFB53F0008E73F0008173F0008FB
:103F6C000140000825400008E741000857400008C0
:103F7C00E74100087B400008A5400008E741000825
:103F8C002B410008E7410008E7410008E741000821
:103F9C00E7410008554100087D410008B741000881
:103FAC00E7410008D7410008A84A92F8233492F858
:103FBC00221443EA012392F8211443EA014392F8B4
:103FCC00202443EA0263A24840F8283FA14B196819
:103FDC000422083100F0D0FA97E7BFF34F8F9E49C7
:103FEC00CA6802F4E0629D4B1343CB60BFF34F8F62
:103FFC0000BFFDE7964BD3F82C110023984A04E040
:10400C00107808700133013101322F2BF8D94FF69B
:10401C00FF70FFF741F878E772B68D48B0F90430BD
:10402C008A4991F8224491F8232442EA042212B2DC
:10403C0023EA020391F8204491F8212442EA042255
:10404C0012B21343838062B65FE7814BD3F8301111
:10405C000023834A04E010780870013301310132E7
:10406C001F2BF8D94FF0FF30FFF76EF84DE7784C67
:10407C00FF2384F82C3004F12C0504F13002FC21D0
:10408C00284600F0DFFA4FF480727649284600F09B
:10409C0073FA0123237038E76D4900230A4602F8AE
:1040AC003C3BC1F838218B61C1F8303103E0002171
:1040BC00117001330132EF2BF9D96A4800F022FA62
:1040CC00634B9B6AB3F1FF3F06D0624B1968042225
:1040DC000831654800F050FA5D4B5B6AB3F1FF3F65
:1040EC003FF413AF5B4B196804220C315F4800F0AE
:1040FC0043FA0AE70133032B13D8544A1A4492F8B3
:10410C002014534A1A4482F830100029F2D00122AC
:10411C0002FA01F14E4882690A438261EAE7002300
:10412C00E9E7012400E00134082C3FF6EEAE484BE1
:10413C009A690123A3401A42F5D04D4B53F8243011
:10414C00002BF0D09847EEE7404A92F8211492F8F1
:10415C0022341B0443EA016392F8231443EA01233B
:10416C0092F82414194392F82004FFF759FACCE67C
:10417C00374BD3F82C11354B93F8202402EB420229
:10418C001144002203F2214304E018780870013234
:10419C0001310133022AF8D92C4B93F82034012039
:1041AC00984080B2FEF778FFAFE6294BD3F8301178
:1041BC00264B93F8202493F82104885493F8203448
:1041CC0001209840FEF7C0FF9FE6204B93F8211486
:1041DC0093F82004FEF720FF97E608A8FF2300F8C9
:1041EC00013D012100F010FA8FE6FF2805D00121D6
:1041FC000DF11F0000F008FA92E020238DF810302A
:10420C00FF238DF81130022104A800F0FDF90F4BAB
:10421C0000221A7084E00E4BD3F834110B4AD37879
:10422C00C854D3780133DBB2D3705278934221D384
:10423C00064B1A799DF81F309A4203D0044A136A30
:10424C0001331362014B00221A7069E0FC08002054
:10425C00A40D00201C01002000ED00E00400FA0574
:10426C001C0D002000FC0008CC0D0020C80D002007
:10427C00240100200DF11F020121464800F0E2F953
:10428C004EE0444C0DF11F020121204600F0DAF9FA
:10429C00201F14F8012C531CDBB204F8013C104411
:1042AC009DF81F2080F82024062B39D1043C94F86B
:1042BC00200494F8213494F8225494F8231494F89C
:1042CC00246494F8252442EA062241EA052143EAB3
:1042DC000020FFF70FFC0723237021E0FFF738FCC9
:1042EC0068B12D4B1A799DF81F309A4203D02B4A96
:1042FC00136A01331362284B00221A7010E00DF17F
:10430C001F020121234800F09DF909E008A8FF23B2
:10431C0000F8013D012100F077F91F4B00221A70C3
:10432C001D4BDA689B689A4226D0511C1A4BD960F7
:10433C0010788DF81F0003F58463994204D3A3F51C
:10434C00846303F12002DA60134B1B78072BDDD852
:10435C0001A252F823F000BF8B3C0008D13C0008AE
:10436C00BB3E0008F13E0008F7410008234200085C
:10437C008F420008E94200080DF1060102A800F086
:10438C0057F9BDF8061009B908B070BD029800F0D5
:10439C00B5FBF9E700090020FC080020A40D002063
:1043AC0070B400EA01044140630303F40053E200DB
:1043BC0002F4E0621343E20102F400421343A20848
:1043CC0002F480421343200DC2B213434A0702F099
:1043DC0000521343CA0402F0E0621343CA0502F010
:1043EC00004213438A0302F0804213430D0905F483
:1043FC007F021343E20202F47042A60906F47E76B1
:10440C003243C4F30176324300F440600243C806E1
:10441C0000F070400243880200F07E700243080BEB
:10442C0000F44030024305F040652A43240904F4AB
:10443C006044090301F06041214304480360044BCC
:10444C001A6003F58063196070BC70471008014056
:10445C00100C01408002024BC0580840704700BF4E
:10446C000808014070B506464FF6FF710020FFF7B3
:10447C00F1FF04464FF6FF710120FFF7EBFF0546F5
:10448C004FF6FF710220FFF7E5FFC4F34033EA0A51
:10449C0002F01E021343E20802F0E0021343E209A9
:1044AC0002F480721343AA0102F47E421343A20069
:1044BC0002F480321343000100F4602018432405F9
:1044CC0004F07F6420432B0703F0405318432D0561
:1044DC0005F040452843304070BD0000054B1A687C
:1044EC00054951601B68054A5A60054B00221A7039
:1044FC00704700BF5801002023016745AB89EFCD01
:10450C001801002010B50446194B1B78DBB9194B68
:10451C001B68DB6813F0010F26D1164B1A680221B9
:10452C0011611A6854611B6842221A610023114AF6
:10453C001268D26812F0010F08D042F20F72934247
:10454C0004DC0133F3E7FFF7C9FFE0E742F20F7237
:10455C0093420BDC074B1B68DB6813F0140F01D183
:10456C00002002E0012000E0012010BD0120FCE74A
:10457C001801002058010020F8B504460D461646D7
:10458C001C4B1B785BB91C4B1B68DB6813F0010FD1
:10459C002AD1194B1B6801221A6100211AE0FFF77E
:1045AC009DFFF0E70133144A1268D26812F0010F34
:1045BC0003D042F20F729342F4DD42F20F72934237
:1045CC0014DC0D4B1B68DB6813F0140F10D1023197
:1045DC003D460446B14205DAA01CAF1C23882B8053
:1045EC000023E0E7002000E00120F8BD0120FCE7FB
:1045FC000120FAE71801002058010020014B00228D
:10460C001A627047640D002000228A420CDA30B422
:10461C00064B1C6A651C1D6205781D550132013064
:10462C008A42F5DB30BC7047704700BF640D002038
:10463C00034B03601A8C0A8000221A62704700BF79
:10464C00640D002030B40578002305E0D45C6C4088
:10465C00044D2D5D01339BB28B42F7DB057030BCF2
:10466C00704700BF74550008104A00231360536054
:10467C00052191600E4A9371D3710E4A1168CA6973
:10468C0042F00102CA610C4A11683020886211683C
:10469C0040F2E730C86211680120086011684B6075
:1046AC0011688B601268D360704700BF880D0020C2
:1046BC00A40D00205C0100206C01002008B51C4BEF
:1046CC001B681B6913F0010F2AD01A4A13680133B7
:1046DC001360174B1B6800211961936801339360B9
:1046EC00272B17DD13469960134A9379013303F096
:1046FC001F03937113F0070F04D11146D27982F086
:10470C000202CA7123B90C4AD37983F00103D37125
:10471C00FEF7B6FE074A536801335360092B00DCE1
:10472C0008BD134600225A60FEF7EAFFF8E700BF07
:10473C006C010020880D0020A40D0020014B18688E
:10474C00704700BF880D002084B0134B9A6942F06B
:10475C0010029A619A6902F010020092009A9A690A
:10476C0042F020029A619A6902F020020192019AA9
:10477C009A6942F008029A619A6902F00802029260
:10478C00029A9A6942F004029A619B6903F004034D
:10479C000393039B04B070470010024070B594B0B3
:1047AC0000240C940D940F94109405940694079483
:1047BC0008940994019402940394049401250A9595
:1047CC004FF480330B930E950226119612934FF4EF
:1047DC00801313930AA8FCF7ADFA0F2305930696E2
:1047EC0007944FF4806308930994294605A8FCF7B5
:1047FC00E1FC102301934FF48003049301A8FCF710
:10480C008DFD14B070BD00001F4B00229A611A621E
:10481C009A701A705A7003F13C02C3F838211B4A83
:10482C001268D168596292689A62174B1B784BBB1D
:10483C0010B582B00EE0144A012102F82C1B03E0E3
:10484C00196811600432043311498B42F8D90E4BAC
:10485C001B78ABB902A8FF2300F8013D0B4C626832
:10486C000432FC21FFF7EEFE636819789DF80720EF
:10487C009142E0D0FEF770F9034B00221A70E6E784
:10488C0002B010BD704700BFA40D00201C01002019
:10489C00FFFC0008164B1B7813B110B5002301E088
:1048AC0070470133032B0DDC114A1A4492F8302067
:1048BC00002AF6D0012101FA02F20D488169114358
:1048CC008161EEE7FEF768FC012400E00134082C5E
:1048DC000DDC074B9A690123A3401A42F6D0054B15
:1048EC0003EB84039B68002BF0D09847EEE710BDD8
:1048FC00A40D00201C01002008B5FBF745FC144A50
:10490C00536823F0E06343F080635360FFF746FF86
:10491C00FFF71AFF00F09EF80E4B0F4A5A60FFF794
:10492C0073FFFFF7B7FFFFF769FEFFF73DF9FFF7DE
:10493C009BFE62B6FFF7C2FEFEF744FFFEF746F998
:10494C00FEF7A4FDFFF798F9FEF75CFDF2E700BF58
:10495C0000000140940D002003000002704700008D
:10496C0082B00E4B9A6942F001029A619A6902F088
:10497C0001020092009ADA6942F08052DA61DB6936
:10498C0003F080530193019B054A536823F0E063C5
:10499C0043F00073536002B0704700BF0010024038
:1049AC00000001407047FEE7FEE7FEE7FEE77047B8
:1049BC007047704708B5FBF7F9FB08BD08B502480E
:1049CC00FCF763F808BD00BF6412002008B503466D
:1049DC000B4A126842B10A4A106803446A46934271
:1049EC0006D8074A136008BD054A06491160F2E76C
:1049FC0000F068FA0C2303604FF0FF30F3E700BFC0
:104A0C005C020020D81600200F4B1A6842F00102FD
:104A1C001A6059680D4A0A405A601A6822F084726A
:104A2C0022F480321A601A6822F480221A605A68C2
:104A3C0022F4FE025A604FF41F029A60044B4FF0AE
:104A4C0000629A60704700BF001002400000FFF83F
:104A5C0000ED00E008B500220F491048FDF78EFB71
:104A6C0070B90F490D48FDF7A0FB60B90D490B4813
:104A7C00FDF73CFB50B90948FDF79EFB48B908BD52
:104A8C00FFF76CFFEDE7FFF769FFEFE7FFF766FF56
:104A9C00F1E7FFF763FFF2E7BC010020E00E002016
:104AAC00E0000020780100200020704700207047B3
:104ABC0010B50968FFF78CF8044C05492046FDF742
:104ACC0024FB2046FDF741FB002010BDE00E00202A
:104ADC00A411002010B5064C002206492046FDF713
:104AEC000CFB05492046FDF710FB002010BD00BF54
:104AFC00E00E002024120020A4110020094BD3F852
:104B0C00B832D3F814320BB10120704710B50A46F5
:104B1C000146044C2046FDF7F0FA2046FDF7FBFA5F
:104B2C0010BD00BFE00E002018B1022803D00220F7
:104B3C0070470020704701207047000002680E4B40
:104B4C009A4200D0704700B583B003F5DA33DA69C6
:104B5C0042F40002DA61DB6903F400030193019B68
:104B6C00002211461420FBF745FB1420FBF776FBC3
:104B7C0003B05DF804FB00BF005C004008B500F515
:104B8C000C71D0F86802FDF730FB08BD08B500EBDE
:104B9C004113D3F83C21D0F86802FDF753FB08BD54
:104BAC0008B500EB4113DA6BD0F86802FDF793FB04
:104BBC0008BD08B5D0F86802FDF735FC08BD10B586
:104BCC0004468368022B01D0FFF7C8FE0121D4F8FC
:104BDC006802FDF711FCD4F86802FDF7E5FB10BD87
:104BEC0010B50446D0F86802FDF709FCA36923B19F
:104BFC00024A136943F00603136110BD00ED00E097
:104C0C0008B5D0F86802FDF703FC08BD10B50446E2
:104C1C001D48C0F86842C4F8C0021C4B036008234E
:104C2C0043600223836000238361C3610362FBF74B
:104C3C0025FC30BB182300221146D4F8C002FCF727
:104C4C004BF8582300228021D4F8C002FCF744F81A
:104C5C00C02300228121D4F8C002FCF73DF84FF4A8
:104C6C00887300220121D4F8C002FCF735F84FF408
:104C7C00807300228221D4F8C002FCF72DF80020AA
:104C8C0010BDFFF76BFED5E764120020005C0040FE
:104C9C0008B5D0F8C002FBF76BFCFFF745FF08BD69
:104CAC0010B51C4613462246D0F8C002FBF78BFC0D
:104CBC00FFF73AFF10BD08B5D0F8C002FBF7BBFCFC
:104CCC00FFF732FF08BD08B5D0F8C002FBF796FF1E
:104CDC00FFF72AFF08BD08B5D0F8C002FBF7C5FFE7
:104CEC00FFF722FF08BDD0F8C03211F0800F06D1BB
:104CFC0001F07F0103EB411191F82A01704701F09B
:104D0C007F0103EB411191F82A00704708B5D0F8E8
:104D1C00C002FBF744FCFFF707FF08BD08B5D0F84D
:104D2C00C002FBF7DCFCFFF7FFFE08BD08B5D0F8AE
:104D3C00C002FBF7AEFCFFF7F7FE08BD08B5D0F8D4
:104D4C00C002FBF7C5FC08BD004870476402002098
:104D5C007047704712230B80004870478801002071
:104D6C0004230B80004870479C01002000239342D1
:104D7C0016D230B40BE0373401F8134000015C005C
:104D8C00013400250D550133DBB2934206D2040FDA
:104D9C00092CF0D8303401F81340EFE730BC7047E1
:104DAC007047000038B50B4B186804331C6804338B
:104DBC001B68C01800D138BD074D082205F11A0137
:104DCC00FFF7D4FF042205F12A012046FFF7CEFF9E
:104DDC00F1E700BFE8F7FF1F8801002008B51A2390
:104DEC000B80FFF7DFFF014808BD00BFA0010020CA
:104DFC0008B50A4628B105490548FDF74FFE03489A
:104E0C0008BD02490248FDF749FEF8E7D01400201E
:104E1C008C56000810B5044C0A4621460348FDF791
:104E2C003DFE204610BD00BFD0140020A456000843
:104E3C0008B50A4628B105490548FDF72FFE034879
:104E4C0008BD02490248FDF729FEF8E7D0140020FE
:104E5C00B856000808B50A4628B105490548FDF7BB
:104E6C001DFE034808BD02490248FDF717FEF8E78E
:104E7C00D0140020C4560008002103E00B4B5B58F3
:104E8C00435004310A480B4B42189A42F6D30A4A53
:104E9C0002E0002342F8043B084B9A42F9D3FFF797
:104EAC00B3FD00F015F8FFF727FD7047DC5600083E
:104EBC00000000203C0200203C020020D416002000
:104ECC00FEE70000014B1868704700BFD8010020B6
:104EDC0070B500250C4E0D4CA41BA410A54209D195
:104EEC0000F08EF800250A4E0A4CA41BA410A54213
:104EFC0005D170BD56F8253098470135EEE756F8C8
:104F0C00253098470135F2E7D4560008D4560008EE
:104F1C00D4560008D8560008024B0146186800F019
:104F2C0003B800BFD801002070B5CD1C25F00305D7
:104F3C0008350C2D38BF0C25002D064601DBA94287
:104F4C0003D90C233360002070BD00F057F8214AC0
:104F5C001468214691B9204C23681BB9304600F0E7
:104F6C003DF820602946304600F038F8431C24D127
:104F7C000C233046336000F042F8E4E70B685B1B0F
:104F8C0018D40B2B0FD90B60CC18CD50304600F039
:104F9C0036F804F10B00231D20F00700C31AD3D000
:104FAC005A42E250D0E74B688C4216BF63601360E4
:104FBC000C46EBE70C464968CCE7C41C24F0030410
:104FCC00A04205D0211A304600F008F80130CFD0AD
:104FDC002560DBE7840400208804002038B500231A
:104FEC00054C054608462360FFF7F0FC431C02D134
:104FFC00236803B12B6038BDD01600207047704772
:10500C00F8B500BFF8BC08BC9E467047F8B500BFA9
:08501C00F8BC08BC9E46704779
:1050240002030405060708090A0B0C0D0E0F1010E5
:105034000102000000000000000000000000000069
:10504400000000000000000000000000000000005C
:10505400000000000008014000200000000C014096
:1050640000100000000C014000200000000C014072
:1050740000400000000C01400080000000080140D6
:105084000001000000080140000200000008014087
:10509400000400000008014000800000000C0140F2
:1050A40008000000000C014010000000000C01404A
:1050B40020000000000C014040000000000C0140F2
:1050C40080000000000C014000010000000C0140C1
:1050D40000020000000801400040000000100140F0
:1050E40000200000001001400040000000100140BA
:1050F4000080000000080140010000000008014099
:105104000200000000080140040000000008014003
:1051140008000000000801401000000000080140E1
:105124002000000000080140400000000008014089
:1051340080000000000C014001000000000C014050
:1051440002000000000C014000040000000C0140BB
:1051540000080000888888888888888C888888C89F
:10516400888888CC88888C8888888C8C88888CC827
:1051740088888CCC8888C8888888C88C8888C8C85F
:105184008888C8CC8888CC888888CC8C8888CCC807
:105194008888CCCC888C8888888C888C888C88C8B3
:1051A400888C88CC888C8C88888C8C8C888C8CC8D7
:1051B400888C8CCC888CC888888CC88C888CC8C80F
:1051C400888CC8CC888CCC88888CCC8C888CCCC8B7
:1051D400888CCCCC88C8888888C8888C88C888C8BB
:1051E40088C888CC88C88C8888C88C8C88C88CC8A7
:1051F40088C88CCC88C8C88888C8C88C88C8C8C8DF
:1052040088C8C8CC88C8CC8888C8CC8C88C8CCC886
:1052140088C8CCCC88CC888888CC888C88CC88C832
:1052240088CC88CC88CC8C8888CC8C8C88CC8CC856
:1052340088CC8CCC88CCC88888CCC88C88CCC8C88E
:1052440088CCC8CC88CCCC8888CCCC8C88CCCCC836
:1052540088CCCCCC8C8888888C88888C8C8888C8AE
:105264008C8888CC8C888C888C888C8C8C888CC816
:105274008C888CCC8C88C8888C88C88C8C88C8C84E
:105284008C88C8CC8C88CC888C88CC8C8C88CCC8F6
:105294008C88CCCC8C8C88888C8C888C8C8C88C8A2
:1052A4008C8C88CC8C8C8C888C8C8C8C8C8C8CC8C6
:1052B4008C8C8CCC8C8CC8888C8CC88C8C8CC8C8FE
:1052C4008C8CC8CC8C8CCC888C8CCC8C8C8CCCC8A6
:1052D4008C8CCCCC8CC888888CC8888C8CC888C8AA
:1052E4008CC888CC8CC88C888CC88C8C8CC88CC896
:1052F4008CC88CCC8CC8C8888CC8C88C8CC8C8C8CE
:105304008CC8C8CC8CC8CC888CC8CC8C8CC8CCC875
:105314008CC8CCCC8CCC88888CCC888C8CCC88C821
:105324008CCC88CC8CCC8C888CCC8C8C8CCC8CC845
:105334008CCC8CCC8CCCC8888CCCC88C8CCCC8C87D
:105344008CCCC8CC8CCCCC888CCCCC8C8CCCCCC825
:105354008CCCCCCCC8888888C888888CC88888C8F5
:10536400C88888CCC8888C88C8888C8CC8888CC825
:10537400C8888CCCC888C888C888C88CC888C8C85D
:10538400C888C8CCC888CC88C888CC8CC888CCC805
:10539400C888CCCCC88C8888C88C888CC88C88C8B1
:1053A400C88C88CCC88C8C88C88C8C8CC88C8CC8D5
:1053B400C88C8CCCC88CC888C88CC88CC88CC8C80D
:1053C400C88CC8CCC88CCC88C88CCC8CC88CCCC8B5
:1053D400C88CCCCCC8C88888C8C8888CC8C888C8B9
:1053E400C8C888CCC8C88C88C8C88C8CC8C88CC8A5
:1053F400C8C88CCCC8C8C888C8C8C88CC8C8C8C8DD
:10540400C8C8C8CCC8C8CC88C8C8CC8CC8C8CCC884
:10541400C8C8CCCCC8CC8888C8CC888CC8CC88C830
:10542400C8CC88CCC8CC8C88C8CC8C8CC8CC8CC854
:10543400C8CC8CCCC8CCC888C8CCC88CC8CCC8C88C
:10544400C8CCC8CCC8CCCC88C8CCCC8CC8CCCCC834
:10545400C8CCCCCCCC888888CC88888CCC8888C8AC
:10546400CC8888CCCC888C88CC888C8CCC888CC814
:10547400CC888CCCCC88C888CC88C88CCC88C8C84C
:10548400CC88C8CCCC88CC88CC88CC8CCC88CCC8F4
:10549400CC88CCCCCC8C8888CC8C888CCC8C88C8A0
:1054A400CC8C88CCCC8C8C88CC8C8C8CCC8C8CC8C4
:1054B400CC8C8CCCCC8CC888CC8CC88CCC8CC8C8FC
:1054C400CC8CC8CCCC8CCC88CC8CCC8CCC8CCCC8A4
:1054D400CC8CCCCCCCC88888CCC8888CCCC888C8A8
:1054E400CCC888CCCCC88C88CCC88C8CCCC88CC894
:1054F400CCC88CCCCCC8C888CCC8C88CCCC8C8C8CC
:10550400CCC8C8CCCCC8CC88CCC8CC8CCCC8CCC873
:10551400CCC8CCCCCCCC8888CCCC888CCCCC88C81F
:10552400CCCC88CCCCCC8C88CCCC8C8CCCCC8CC843
:10553400CCCC8CCCCCCCC888CCCCC88CCCCCC8C87B
:10554400CCCCC8CCCCCCCC88CCCCCC8CCCCCCCC823
:10555400CCCCCCCC040404040000300404200200AD
:1055640000040406060461050402020200080000A7
:1055740000070E091C1B1215383F363124232A2D2F
:1055840070777E796C6B6265484F464154535A5D1F
:10559400E0E7EEE9FCFBF2F5D8DFD6D1C4C3CACD0F
:1055A40090979E998C8B8285A8AFA6A1B4B3BABDFF
:1055B400C7C0C9CEDBDCD5D2FFF8F1F6E3E4EDEAEF
:1055C400B7B0B9BEABACA5A28F88818693949D9ADF
:1055D4002720292E3B3C35321F18111603040D0ACF
:1055E4005750595E4B4C45426F68616673747D7ABF
:1055F400898E878095929B9CB1B6BFB8ADAAA3A4AF
:10560400F9FEF7F0E5E2EBECC1C6CFC8DDDAD3D49E
:10561400696E676075727B7C51565F584D4A43448E
:10562400191E171005020B0C21262F283D3A33347E
:105634004E49404752555C5B7671787F6A6D64636E
:105644003E39303722252C2B0601080F1A1D14135E
:10565400AEA9A0A7B2B5BCBB9691989F8A8D84834E
:10566400DED9D0D7C2C5CCCBE6E1E8EFFAFDF4F33E
:1056740000000000000000000102030406070809FE
:10568400000000000102030453544D3332205669D4
:10569400727475616C20436F6D506F7274000000FA
:1056A40053544D6963726F656C656374726F6E6990
:1056B4006373000043444320436F6E6669670000D0
:1056C40043444320496E746572666163650000005B
:0456D4003101000898
:0456D8000D010008B8
:1056DC00010000001000000009024300020100C09C
:1056EC00320904000001020201000524001001052A
:1056FC00240100010424020205240600010705828E
:10570C000308001009040100020A0000000705014B
:10571C00024000000705810240000000090243001E
:10572C00020100C03209040000010202010005243C
:10573C0000100105240100010424020205240600C6
:10574C00010705820308001009040100020A000089
:10575C00000705010200020007058102000200009B
:10576C0009074300020104C03209040000010202CF
:10577C00010005240010010524010001042402028B
:10578C000524060001070582030800100904010026
:10579C00020A000000070501024000000705810213
:1057AC00400000000A06000200000040010000005A
:1057BC004F2000080D200008331F000800000000D7
:1057CC005F1E0008E71E0008B91E0008000000005C
:1057DC000000000000000000951E0008891E000853
:1057EC00A11E0008AD1E000801000000F0FF00081B
:1057FC0000FC000800000000000000000000000099
:10580C00293400080000000000000000C538000822
:10581C0029340008C538000800040240000002408A
:10582C0000380040003001400020024000100240CF
:10583C0000100140000C0140000801400000004035
:10584C00002C01400024F400E14A0008B54A00088D
:10585C00B94A0008BD4A00081201000202020040C9
:10586C0083044057000201020301000004030904F1
:10587C001A030000000000000000000000000000FF
:10588C00000000000000000000000000614D000856
:10589C006D4D0008214E0008FD4D0008E94D000833
:1058AC003D4E0008614E0008DC01002000000000A5
:1058BC0000000000000000000000000000000000DC
:1058CC0000000000000000000000000000000000CC
:1058DC0000000000000000000000000000000000BC
:1058EC0000000000000000000000000000000000AC
:1058FC00000000000000000000000000000000009C
:0C590C000000000000000000000000008F
:0400000508004E851C
:00000001FF
