:020000040800F2
:1000000000500020C9530008F54E0008F74E0008C4
:10001000F94E0008FB4E0008FD4E000800000000ED
:10002000000000000000000000000000FF4E00087B
:10003000014F000800000000034F0008054F0008B2
:1000400011540008115400081154000811540008FC
:1000500011540008115400081154000811540008EC
:1000600011540008115400081154000811540008DC
:1000700011540008115400081154000811540008CC
:1000800011540008115400081154000811540008BC
:100090000D4F0008115400081154000811540008B5
:1000A000115400081154000811540008115400089C
:1000B000115400081154000811540008115400088C
:1000C000115400081154000811540008115400087C
:1000D000115400081154000811540008115400086C
:1000E00011540008115400081154000800000000C9
:1000F0000000000000000000000000000000000000
:0C01000000000000000000005FF808F1A3
:10010C0010B5054C237833B9044B13B10448AFF345
:10011C0000800123237010BD4C0200200000000061
:10012C005055000808B5034B1BB103490348AFF306
:10013C00008008BD0000000050020020505500084F
:10014C0010B504460E4B18784FF47A73B3FBF0F3EA
:10015C000C4A1068B0FBF3F000F08EF868B90F2C65
:10016C0001D901200AE0002221464FF0FF3000F0B7
:10017C0041F8034B5C60002000E0012010BD00BF83
:10018C00000000208401002008B5074A136843F0E2
:10019C0010031360032000F01BF80020FFF7D0FFC2
:1001AC0004F080FE002008BD00200240034A1168C4
:1001BC00034B1B780B441360704700BF9C0400205A
:1001CC0000000020014B1868704700BF9C04002001
:1001DC00074AD36823F4E0631B041B0C000200F4F1
:1001EC00E060184340F0BF6040F40030D0607047CE
:1001FC0000ED00E030B4174BDB68C3F30223C3F10E
:10020C000704042C28BF04241D1D062D18D9033BFC
:10021C004FF0FF3505FA04F421EA0401994005FA80
:10022C0003F322EA0303194300280BDB0901C9B2CB
:10023C0000F1604000F5614080F8001330BC70475D
:10024C000023E5E700F00F000901C9B2024B195475
:10025C00F4E700BF00ED00E014ED00E0002807DB40
:10026C0000F01F02400901239340024A42F820305B
:10027C00704700BF00E100E00138B0F1807F0AD286
:10028C00064B5860064AF02182F823100020986033
:10029C0007221A6070470120704700BF10E000E091
:1002AC0000ED00E0F0B482B000263246A2E0002D52
:1002BC005AD0012D00D1CE68FF2B69D88446FF2B74
:1002CC0069D89500DCF800400F27AF4024EA0704FA
:1002DC0006FA05F52C43CCF800404C6814F0805F0E
:1002EC0000F087805F4CA56945F00105A561A46904
:1002FC0004F001040194019C9508AF1C5A4C54F86D
:10030C00274002F00307BF004FF00F0C0CFA07FC5C
:10031C0024EA0C0C554CA04243D004F58064A04256
:10032C0000F0818004F58064A0427ED004F58064E6
:10033C00A04234D0042435E04D4FBD4214D00BD92B
:10034C004C4FBD4210D007F58037BD420CD0A7F5FD
:10035C008017BD42B0D107E0A7F58017BD4203D08E
:10036C0007F58037BD42A7D18D687DB1012D08D02E
:10037C0044610826A0E7CE6808369DE7CE680C36A7
:10038C009AE70461082697E7002695E7042693E789
:10039C0000F1040C93E7A2F10805AD0092E70324E9
:1003AC0000E00024BC4044EA0C0402352E4F47F810
:1003BC0025404C6814F4803F39D02F4D2C681C43D9
:1003CC002C604C6814F4003F37D02B4D6C681C43E8
:1003DC006C604C6814F4801F35D0274DAC681C43FE
:1003EC00AC604C6814F4001F33D0234DEC682343ED
:1003FC00EB6001320B6833FA02F430D001249440E4
:10040C0023409C42F5D14D68122DB7D094D8022DC3
:10041C00B1D07FF64CAF032DB6D0112D7FF44CAF7D
:10042C00CE68043648E70124BCE70224BAE7124D33
:10043C002C6824EA03042C60C3E70F4D6C6824EA93
:10044C0003046C60C5E70C4DAC6824EA0304AC6093
:10045C00C7E7094DEC6824EA0303EB60C9E702B077
:10046C00F0BC704700100240000001400008014041
:10047C00000021100000311000040140F0B587B0DD
:10048C00002873D0044690F82932D3B1032384F8A2
:10049C002932206800F0DBFF254655F8107B6E46AC
:1004AC000FCD0FC62B683360231D0ECB384600F0E2
:1004BC00BFFF58B1022384F829320125284607B022
:1004CC00F0BD80F8283204F0DBFDDFE70021206866
:1004DC0000F0C7FF002311E004EB4312012182F866
:1004EC00291082F82830D386002182F82B109163D2
:1004FC00D1639A1C5201A1500133DBB26068834274
:10050C00EAD3002312E004EB4311002281F82921E5
:10051C0081F8283181F82B21C1F83821C1F83C2110
:10052C0003F10A01490162500133DBB29842EAD867
:10053C00254655F8107B6E460FCD0FC62B683360E1
:10054C00231D0ECB384600F08EFF054620B102234A
:10055C0084F829320125B1E7002384F824300123E3
:10056C0084F82932206801F0B0FAA7E70125A5E745
:10057C0090F82832012B10D010B50446012180F8D8
:10058C00281204F088FE206801F09DFA206800F023
:10059C0056FF002084F8280210BD0220704790F806
:1005AC002832012B0DD010B50446012380F82832D7
:1005BC0080F82410006801F080FA002084F82802EA
:1005CC0010BD0220704770B511F0800F23D101F0DF
:1005DC0007056D0105F5947404440544002685F85F
:1005EC00296101F0070121702261E370627802B188
:1005FC00E181022B1AD090F82832012B19D0054634
:10060C00012380F828322146006800F042FF0020C8
:10061C0085F8280270BD01F007056D0105F128046D
:10062C0004440544012685F82960DAE70023237188
:10063C00E1E70220EEE710B511F0800F1CD101F0BC
:10064C0007035B0103F5947202440344002483F80E
:10065C00294101F00703137090F82832012B16D0B2
:10066C000446012380F828321146006801F0C5F8D1
:10067C00002084F8280210BD01F007035B0103F190
:10068C00280202440344012483F82940E1E70220B4
:10069C00F1E770B501F007056C0104F594710144A4
:1006AC000444C4F83C2105F10A0252018618835017
:1006BC000023736084F8293184F8285125B100682F
:1006CC0001F01FFA002070BD006801F01AFAF9E77A
:1006DC0001F007010A3100EB41114868704770B511
:1006EC0001F007056C0104F1280101440444E263A4
:1006FC00AA1C52018618835000237360012384F8CE
:10070C00293084F8285025B1006801F0FAF900204E
:10071C0070BD006801F0F5F9F9E7F8B504462068FA
:10072C00B0F8443013F4004F00F0AD81B0F8443011
:10073C009BB213F00F0540F0CD8013F0100F58D082
:10074C0003889BB213F4006F40F0898013F4004FC0
:10075C00E5D0038823F070031B051B0D43F08003C9
:10076C0003802068B0F8503094F8282103EBC203C2
:10077C00063300EB4303B3F80034C3F30903C4F8A6
:10078C0044318BB1D4F83C1171B1B4F82E2101F085
:10079C0048FBD4F84421D4F83C311344C4F83C3120
:1007AC000021204604F094FC2368B3F85020134435
:1007BC00D4F83821002A74D1B3F80C2492B222F464
:1007CC00F84292B2A3F80C24B3F80C2442F4004281
:1007DC00A3F80C24226813889BB223F4804323F0E3
:1007EC00700383F4405343F4004343F080031380BD
:1007FC0095E703889BB223F4E14323F070036FEA7F
:10080C0043436FEA53439BB203802268B2F85030E3
:10081C0094F8281003EBC103023302EB4303B3F843
:10082C000034C3F309036364E26B1344E3630021F4
:10083C00204604F057FC94F82430002B3FF46FAFA3
:10084C00236C002B7FF46BAF94F82430226843F0B8
:10085C008003A2F84C30002384F824305FE7B0F812
:10086C00503094F8282103EBC203063300EB43030A
:10087C00B3F80034C3F30903C4F84431B4F82E219F
:10088C0004F50C7101F0CDFA2268138823F0700383
:10089C001B051B0D43F080031380204604F010FC55
:1008AC003DE73E2A09D8510812F0010F00D0013162
:1008BC00890289B2A3F80C148CE7510912F01F0FAE
:1008CC0000D101396FEAC1626FEA524292B2A3F8C9
:1008DC000C247FE730F82560B6B216F4004F33D104
:1008EC0016F0800F3FF41BAF226832F825309BB214
:1008FC0023F4E14323F070036FEA43436FEA53435D
:10090C009BB222F825302268B2F8503004EB451027
:10091C0090F8281003EBC103023302EB4303B3F846
:10092C000024C2F30902AB1C5B01E1184A60C16BE5
:10093C000A44C263E358002B40F09D8090F82810C5
:10094C00204604F0CFFBEAE630F8253023F07003A4
:10095C001B051B0D43F0800320F8253004EB4513D9
:10096C0093F83431D3B92068B0F8503004EB451209
:10097C0092F8282103EBC203063300EB4303B3F8D0
:10098C000074C7F309078FB304EB45113B46B1F86C
:10099C002E21D1F83C1101F044FA27E0206804EB39
:1009AC00451393F8282130F8223013F4804F43D0AC
:1009BC00B0F8503003EBC203023300EB4303B3F83F
:1009CC000074C7F309076FBB226804EB451393F857
:1009DC00281132F821309BB223F4E04323F070034A
:1009EC0043F4004343F0C00322F8213005F10A031D
:1009FC005B01E1184A683A444A6004EB4511D1F8AE
:100A0C003C213A44C1F83C21E3581BB1D1F83811D0
:100A1C008F4228D204EB451393F82811204604F09A
:100A2C0057FB5DE704EB45113B46B1F83021D1F89B
:100A3C003C1101F0F6F9C7E7B0F8503003EBC203F4
:100A4C00063300EB4303B3F80074C7F30907002F18
:100A5C00BAD004EB45113B46B1F83221D1F83C1128
:100A6C0001F0DFF9B0E704EB451191F828112046AD
:100A7C00FFF70FFE34E704EB451595F828102046D8
:100A8C00FFF72DFE4BE60020F8BD10B504460068BC
:100A9C0001F01DF810F4004F45D1206801F017F853
:100AAC0010F4806F43D1206801F011F810F4804FDE
:100ABC0008D02268B2F844309BB223F480439BB236
:100ACC00A2F84430206801F002F810F4005F08D05E
:100ADC002268B2F844309BB223F400539BB2A2F8C4
:100AEC004430206800F0F3FF10F4805F30D12068B0
:100AFC0000F0EDFF10F4006F49D1206800F0E7FF23
:100B0C0010F4007F6DD1206800F0E1FF10F4807FBD
:100B1C0008D02268B2F844309BB223F480739BB2A5
:100B2C00A2F8443010BD2046FFF7F7FDB5E7226868
:100B3C00B2F844309BB223F480639BB2A2F84430E9
:100B4C00204604F0DEFA00212046FFF728FDAAE734
:100B5C002268B2F840309BB223F004039BB2A2F897
:100B6C0040302268B2F840309BB223F008039BB2AD
:100B7C00A2F84030204604F0E5FA2268B2F844307E
:100B8C009BB223F480539BB2A2F84430AFE72268A7
:100B9C00B2F8403043F00803A2F840302268B2F8B3
:100BAC0044309BB223F400639BB2A2F84430226819
:100BBC00B2F8403043F00403A2F84030206800F053
:100BCC0086FF10F4805F08D02268B2F844309BB2E4
:100BDC0023F480539BB2A2F84430204604F0A2FACE
:100BEC008BE72268B2F844309BB223F400739BB2BB
:100BFC00A2F84430204604F07EFA84E738B501F0C0
:100C0C00070543689D422CD811F0800F1AD14B0177
:100C1C0003F5947101440344002283F82921012334
:100C2C008B700D7090F82832012B1CD004460123D8
:100C3C0080F82832006800F0CAFE65B1002084F804
:100C4C0028020FE06B0103F1280101440344012247
:100C5C0083F82920E3E704F50C71206800F03AFFD3
:100C6C00ECE7012038BD0220FCE701F00F024368DD
:100C7C009A422DD810B511F0800F1ED101F0070348
:100C8C005B0103F5947202440344002483F8294168
:100C9C000023937001F00703137090F82832012B96
:100CAC0018D00446012380F828321146006800F061
:100CBC00B3FE002084F8280210BD01F007035B018D
:100CCC0003F1280202440344012483F82940DFE79E
:100CDC00012070470220EFE711F0800F0CD001F0DB
:100CEC0007014901283101445AB101220A730B81D1
:100CFC001B0C4B8100207047490101F59471014494
:100D0C00F2E70A73CB80F5E782B0084B1B68084A00
:100D1C00A2FB03235B0A00FB03F0019000BF019BC5
:100D2C005A1E0192002BF9D102B0704784010020A9
:100D3C00D34D6210002800F0F58170B582B00446E6
:100D4C00036813F0010F2CD0AB4B5B6803F00C0362
:100D5C00042B1DD0A84B5B6803F00C03082B12D09E
:100D6C006368B3F5803F41D0002B55D103F180432C
:100D7C0003F504331A6822F480321A601A6822F4DC
:100D8C0080221A6037E09C4B5B6813F4803FE7D0FD
:100D9C00994B1B6813F4003F03D06368002B00F0E1
:100DAC00C381236813F0020F76D0934B5B6813F06A
:100DBC000C0F5FD0904B5B6803F00C03082B54D0E6
:100DCC002369002B00F08A808C4B01221A60FFF7FC
:100DDC00F9F90546884B1B6813F0020F75D1FFF724
:100DEC00F1F9401B0228F5D90320A0E1824A1368CF
:100DFC0043F480331360636843B3FFF7E3F90546AC
:100E0C007D4B1B6813F4003FCBD1FFF7DBF9401B84
:100E1C006428F5D903208AE1B3F5A02F09D0764BCD
:100E2C001A6822F480321A601A6822F480221A603E
:100E3C00E1E703F18043A3F53C331A6842F48022C6
:100E4C001A601A6842F480321A60D4E7FFF7BAF9D4
:100E5C000546694B1B6813F4003FA2D0FFF7B2F9AB
:100E6C00401B6428F5D9032061E1634B5B6813F4E4
:100E7C00803FA5D1604B1B6813F0020F04D023698F
:100E8C00012B01D0012052E15B4A136823F0F803D7
:100E9C00616943EAC1031360236813F0080F32D071
:100EAC00A369002B5BD0564B01221A60FFF78AF91D
:100EBC000546514B5B6A13F0020F21D1FFF782F903
:100ECC00401B0228F5D9032031E14B4A136823F06B
:100EDC00F803616943EAC1031360DDE7474B002265
:100EEC001A60FFF76FF90546434B1B6813F0020FAE
:100EFC00D2D0FFF767F9401B0228F5D9032016E181
:100F0C000120FFF701FF236813F0040F00F0988015
:100F1C00394BDB6913F0805F33D1374BDA6942F020
:100F2C008052DA61DB6903F080530193019B012548
:100F3C00344B1B6813F4807F25D0E368012B36D02B
:100F4C00002B4CD103F1804303F504331A6A22F0D1
:100F5C0001021A621A6A22F004021A622CE0284B6F
:100F6C0000221A60FFF72EF90546234B5B6A13F03B
:100F7C00020FC8D0FFF726F9401B0228F5D9032031
:100F8C00D5E00025D4E71F4A136843F4807313603F
:100F9C00FFF718F906461B4B1B6813F4807FCCD166
:100FAC00FFF710F9801B6428F5D90320BFE0124A23
:100FBC00136A43F001031362E3687BB3FFF702F992
:100FCC0006460D4B1B6A13F0020F38D1FFF7FAF8E7
:100FDC00801B41F288339842F3D90320A7E0052BFC
:100FEC0012D0054B1A6A22F001021A621A6A22F018
:100FFC0004021A62E0E700BF001002400000424207
:10100C0080044242007000404C4B1A6A42F00402C9
:10101C001A621A6A42F001021A62CDE7FFF7D2F89F
:10102C000646464B1B6A13F0020F08D0FFF7CAF8AE
:10103C00801B41F288339842F3D9032077E0E5B95D
:10104C00E369002B72D03D4A526802F00C02082A68
:10105C0056D0022B17D03A4B00221A60FFF7B2F889
:10106C000446364B1B6813F0007F47D0FFF7AAF8F5
:10107C00001B0228F5D9032059E0304AD36923F02C
:10108C008053D361DCE72E4B00221A60FFF79AF8ED
:10109C0005462A4B1B6813F0007F06D0FFF792F829
:1010AC00401B0228F5D9032041E0236AB3F5803FA9
:1010BC001AD022494B6823F47413226A606A0243E3
:1010CC0013434B601E4B01221A60FFF77BF804465A
:1010DC001A4B1B6813F0007F0ED1FFF773F8001B3F
:1010EC000228F5D9032022E0144A536823F4003374
:1010FC00A1680B435360DCE7002018E0002016E0E9
:10110C00012B16D00D4B5B6803F48031226A91429F
:10111C0001D001200BE003F47013626A93420AD0F1
:10112C00012004E001207047012000E0002002B003
:10113C0070BD0120FBE70020F9E700BF0010024062
:10114C006000424210B487B0164C94E80F000DF1C9
:10115C00180C0CE90F00238AADF80430124B5B68B5
:10116C0003F00C02082A1AD1C3F38342624412F82A
:10117C00102C13F4803F05D10C4800FB02F007B093
:10118C0010BC7047084B5B68C3F34043634413F8CF
:10119C00143C074800FB02F0B0FBF3F0EFE7044807
:1011AC00EDE700BF685500080010024000093D0043
:1011BC0000127A00002800F0A38070B50446524B50
:1011CC001B6803F007038B420CD24F4A136823F0C1
:1011DC0007030B431360136803F007038B4201D022
:1011EC00012070BD236813F0020F17D013F0040F09
:1011FC0004D0464A536843F4E0635360236813F009
:10120C00080F04D0414A536843F4605353603F4A7B
:10121C00536823F0F003A068034353600D46236822
:10122C0013F0010F31D06368012B20D0022B25D095
:10123C00364A126812F0020F64D034494A6822F020
:10124C00030213434B60FEF7BDFF06462F4B5B6852
:10125C0003F00C036268B3EB820F16D0FEF7B2FFFB
:10126C00801B41F288339842F0D90320B9E7274A12
:10127C00126812F4003FE0D10120B2E7234A126851
:10128C0012F0007FD9D10120ABE71F4B1B6803F094
:10129C000703AB420CD91C4A136823F007032B43FA
:1012AC001360136803F00703AB4201D0012098E7E9
:1012BC00236813F0040F06D0144A536823F4E06338
:1012CC00E1680B435360236813F0080F07D00F4AF3
:1012DC00536823F46053216943EAC1035360FFF759
:1012EC0031FF0A4B5B68C3F30313094AD35CD84044
:1012FC00084B1860084B1868FEF722FF002070E7B7
:10130C000120704701206CE70020024000100240D1
:10131C00F85B0008840100200400002070B582B046
:10132C000446036813F0010F34D03E4BDB6913F015
:10133C00805F48D13B4BDA6942F08052DA61DB695D
:10134C0003F080530193019B0125374B1B6813F469
:10135C00807F3AD0334B1B6A13F4407311D0626810
:10136C0002F440729A420CD02E4A136A23F4407055
:10137C002E4901260E6000260E60106213F0010F3C
:10138C0037D1284A136A23F4407361680B43136204
:10139C00002D3FD1236813F0020F06D0214A536869
:1013AC0023F44043A1680B435360236813F0100FE0
:1013BC0035D01C4A536823F48003E1680B43536017
:1013CC00002002B070BD0025BFE7174A136843F434
:1013DC0080731360FEF7F6FE0646134B1B6813F47E
:1013EC00807FB7D1FEF7EEFE801B6428F5D9032071
:1013FC00E7E7FEF7E7FE06460A4B1B6A13F0020FFF
:10140C00BFD1FEF7DFFE801B41F288339842F3D93F
:10141C000320D6E7D36923F08053D361BAE70020C9
:10142C00CFE700BF00100240007000404004424271
:10143C0084B001A880E80E00002004B07047B0F81A
:10144C00403043F43F43A0F8403000207047B0F8E0
:10145C00403023F47C535B045B0CA0F8403000203C
:10146C0070470020704784B038B505AC84E80E0096
:10147C000123A0F840300024A0F84040A0F84440DC
:10148C00A0F85040FFF7DBFF2046BDE8384004B021
:10149C00704730B403460C7830F8242092B222F412
:1014AC00EC4222F0700292B2C87803285AD8DFE8D6
:1014BC0000F04D550251002048F280052A4323F8D4
:1014CC0024200C7833F8242092B222F4E04222F04B
:1014DC00700222432A4323F824200A7B002A40F07E
:1014EC00B1804A78002A4ED0B3F850201A440C78B8
:1014FC0002EB0412CC8864086400A2F800440C7857
:10150C0033F8242012F0400F0CD033F8242092B280
:10151C0022F4E04222F0700242F4004242F0C00297
:10152C0023F82420CA78012A1ED0097833F8212008
:10153C0092B222F4E04222F0400282F0200242F405
:10154C00004242F0800223F8212060E042F4007255
:10155C000020B1E742F4C0620020ADE742F48062A3
:10156C000020A9E70120A7E7097833F8212092B2DF
:10157C0022F4E04222F0400242F4004242F08002A7
:10158C0023F8212043E0B3F850201A440C7802EBE6
:10159C000412CC8864086400A2F80844B3F8502004
:1015AC001A440C7802EB04120C6994BBB2F80C448C
:1015BC00A4B224F4F844A4B2A2F80C44B2F80C443B
:1015CC0044F40044A2F80C440C7833F8242012F4B0
:1015DC00804F0CD033F8242092B222F4E04222F057
:1015EC00700242F4404242F0800223F82420097831
:1015FC0033F8212092B222F4804222F0700282F45D
:10160C00405242F4004242F0800223F8212030BCC8
:10161C0070473E2C09D8650814F0010F00D0013535
:10162C00AD02ADB2A2F80C54CEE7650914F01F0F51
:10163C0000D1013D6FEAC5646FEA5444A4B2A2F82C
:10164C000C44C1E70C7833F8242092B222F4E04227
:10165C0022F0700242F4014242F0800223F824206E
:10166C00B3F850201A440C7802EB04120C8964086D
:10167C006400A2F80044B3F850201A440C7802EB32
:10168C0004124C8964086400A2F808444A78002AC1
:10169C004ED10C7833F8242012F4804F0CD033F850
:1016AC00242092B222F4E04222F0700242F4404232
:1016BC0042F0800223F824200C7833F8242012F016
:1016CC00400F0CD033F8242092B222F4E04222F0E6
:1016DC00700242F4004242F0C00223F824200C783D
:1016EC0033F8242092B222F4E04222F0700242F449
:1016FC00004242F0C00223F824200D7833F8252054
:10170C0092B222F4804222F0700282F4405248F2EB
:10171C008004224323F82520097833F8212092B243
:10172C0022F4E04222F04002224323F821206EE70B
:10173C000C7833F8242012F4804F0CD033F824208A
:10174C0092B222F4E04222F0700242F4404242F0A3
:10175C00800223F824200C7833F8242012F0400F58
:10176C000CD033F8242092B222F4E04222F0700222
:10177C0042F4004242F0C00223F824200C7833F8E3
:10178C00242092B222F4E04222F0700242F4404251
:10179C0042F0800223F82420CA78012A1ED00C784B
:1017AC0033F8242092B222F4E04222F0400282F07C
:1017BC00200242F4004242F0800223F824200978EF
:1017CC0033F8212092B222F4804222F0700242F4CB
:1017DC00004242F0800223F8212018E70C7833F8FD
:1017EC00242092B222F4E04222F0400242F4004261
:1017FC0042F0800223F82420E1E70B7B002B46D13A
:10180C004B7813B30A7830F8223013F0400F0CD019
:10181C0030F822309BB223F4E04323F0700343F4FE
:10182C00004343F0C00320F822300A7830F822300D
:10183C009BB223F4E04323F0400343F4004343F012
:10184C00800320F82230002070470A7830F82230CC
:10185C0013F4804F0CD030F822309BB223F4E043C9
:10186C0023F0700343F4404343F0800320F822300C
:10187C000A7830F822309BB223F4804323F07003B3
:10188C0043F4004343F0800320F82230DBE710B42C
:10189C004B78002B4ED10A7830F8223013F4804F5D
:1018AC000CD030F822309BB223F4E04323F07003C9
:1018BC0043F4404343F0800320F822300A7830F898
:1018CC00223013F0400F0CD030F822309BB223F4AE
:1018DC00E04323F0700343F4004343F0C00320F8CB
:1018EC0022300A7830F822309BB223F4E04323F004
:1018FC00700343F4004343F0C00320F822300B780C
:10190C0030F8232092B222F4804222F0700248F286
:10191C008004224320F823200A7830F822309BB22E
:10192C0023F4E04323F04003234320F8223000202B
:10193C0010BC70470A7830F8223013F4804F0CD06A
:10194C0030F822309BB223F4E04323F0700343F4CD
:10195C00404343F0800320F822300A7830F82230DC
:10196C0013F0400F0CD030F822309BB223F4E0433C
:10197C0023F0700343F4004343F0C00320F82230FB
:10198C000A7830F822309BB223F4E04323F0700342
:10199C0043F4404343F0800320F822300B7830F8B6
:1019AC00232092B222F4E04222F0400248F280045A
:1019BC00224320F823200A7830F822309BB223F4FB
:1019CC00804323F07003234320F82230AFE74B7899
:1019DC008BB90A7830F822309BB223F4804323F081
:1019EC00700383F4805343F4004343F0800320F8E6
:1019FC002230002070470A7830F822309BB223F452
:101A0C00E04323F0400383F0100343F4004343F01E
:101A1C00800320F82230ECE70B7B002B4BD14B786A
:101A2C0033B30A7830F8223013F0400F0CD030F872
:101A3C0022309BB223F4E04323F0700343F40043C1
:101A4C0043F0C00320F82230CB78012B33D00A7836
:101A5C0030F822309BB223F4E04323F0400383F0B0
:101A6C00200343F4004343F0800320F8223022E0AB
:101A7C000A7830F8223013F4804F0CD030F8223032
:101A8C009BB223F4E04323F0700343F4404343F050
:101A9C00800320F822300A7830F822309BB223F4ED
:101AAC00804323F0700383F4405343F4004343F02A
:101ABC00800320F822300020704711B98023A0F851
:101ACC004C30002070470020704700207047B0F861
:101ADC00440070470020704701335B0800EB420262
:101AEC0002F5806263B110B40C78487844EA0024A3
:101AFC0022F8044B0231013B002BF5D110BC70478E
:101B0C00704770B54E78012E33D08A690B699A42B2
:101B1C0040F2FC80D21A8A610A7B002A40F01381C1
:101B2C00B0F8502002440C7802EB0412002B40F069
:101B3C00F180B2F80C349BB223F4F8439BB2A2F8B8
:101B4C000C34B2F80C3443F40043A2F80C340A7889
:101B5C0030F822309BB223F4804323F0700383F4DB
:101B6C00405343F4004343F0800320F8223000201C
:101B7C0070BD8A690B699A4222D9D21A8A610C46C5
:101B8C0005460A7B02B30A7830F8221011F0400F98
:101B9C0072D0002E40D1B0F85010014401EB02126B
:101BAC000BBBB2F80C1489B221F4F84189B2A2F83B
:101BBC000C14B2F80C1441F40041A2F80C1433E0EC
:101BCC0000238B611346DAE79EB23346CA88496913
:101BDC00FFF782FFB5F850302B44227803EB021349
:101BEC00A3F8046437E03E2B09D8590813F0010F11
:101BFC0000D00131890289B2A2F80C1414E0590901
:101C0C0013F01F0F00D101396FEAC1616FEA514126
:101C1C0089B2A2F80C1407E0B0F85010014401EBA3
:101C2C00021299B2A2F80C1462899BB2616928461F
:101C3C00FFF752FF6378002B57D1227835F822300A
:101C4C009BB223F4E04323F0700343F4004343F0CE
:101C5C00C00325F82230227835F822309BB223F4C9
:101C6C00E04323F0400383F0300343F4004343F09C
:101C7C00800325F822307AE76EBBB0F8501001448F
:101C8C0001EB021273B9B2F8041489B221F4F841D1
:101C9C0089B2A2F80414B2F8041441F40041A2F879
:101CAC00041420E03E2B09D8590813F0010F00D082
:101CBC000131890289B2A2F8041414E0590913F015
:101CCC001F0F00D101396FEAC1616FEA514189B22E
:101CDC00A2F8041407E0B0F85010014401EB021212
:101CEC0099B2A2F8041422899FE7012BB3D1227870
:101CFC0035F822309BB223F4E04323F0700343F415
:101D0C00404343F0800325F82230A4E700238B6185
:101D1C00134601E73E2B09D85C0813F0010F00D0E5
:101D2C000134A402A4B2A2F80C4410E75C0913F02D
:101D3C001F0F00D1013C6FEAC4646FEA5444A4B293
:101D4C00A2F80C4403E7A6B9B0F8502002440C7872
:101D5C0002EB041233BBB2F80444A4B224F4F844EA
:101D6C00A4B2A2F80444B2F8044444F40044A2F827
:101D7C0004444A78002A47D1B0F8502002440C7829
:101D8C0002EB04123BBBB2F80C349BB223F4F843C5
:101D9C009BB2A2F80C34B2F80C3443F40043A2F812
:101DAC000C34D4E63E2B09D85C0813F0010F00D09C
:101DBC000134A402A4B2A2F80444DAE75C0913F0DB
:101DCC001F0F00D1013C6FEAC4646FEA5444A4B203
:101DDC00A2F80444CDE73E2B09D85C0813F0010FA0
:101DEC0000D00134A402A4B2A2F80C44AFE65C0902
:101DFC0013F01F0F00D1013C6FEAC4636FEA534329
:101E0C009BB2A2F80C34A2E6012A7FF4A0AEB0F883
:101E1C00502002440C7802EB04129BB2A2F80C3452
:101E2C0095E630B45D0800EB420202F5806207E0F3
:101E3C0032F8044BA4B20C70240A4C700231013DF0
:101E4C00002DF5D113F0010F01D013880B7030BCAD
:101E5C00704710B5D0F8B842D0F8BC325BB194F8EA
:101E6C000002FF2807D09B6894F80122214698476E
:101E7C00FF2384F80032002010BD000043230380B0
:101E8C000048704708000020432303800048704737
:101E9C004C00002043230380004870479000002032
:101EAC000A23038000487047D400002038B504464C
:101EBC00D0F8B85203F0E4F9C5F80C02D4F8B832F3
:101ECC004BB1D4F8BC32DB6805F50371D5F80402CC
:101EDC009847002038BD0220FCE738B5D0F8B8226E
:101EEC00D0F8C052EAB101EB8104A3000344DB69D2
:101EFC003BB105EB4115AD6BB3FBF5F405FB1433AE
:101F0C001BB10020C2F8140238BD01EB8102930012
:101F1C0003440024DC612346224603F0A1F9204649
:101F2C00F2E70220F0E770B582B005460C46D0F817
:101F3C00B86200238DF80730ADF804300B7813F03D
:101F4C00600227D0202A56D1CA883AB9D0F8BC32C0
:101F5C009B6800224878984700204FE013F0800FD0
:101F6C000CD0D0F8BC329B68314660789847E28838
:101F7C003146284600F0AEFD00203FE04B7886F855
:101F8C0000328B7986F80132CA88314600F0B7FDF1
:101F9C00002033E04B780A2B14D00B2B21D01BB133
:101FAC0000F077FA022029E090F89C32032B05D13F
:101FBC00022201A900F08EFD00201FE000F069FA5A
:101FCC0002201BE090F89C32032B06D101220DF16C
:101FDC00070100F07FFD002010E000F05AFA02200B
:101FEC000CE090F89C32032B01D1002006E000F0AD
:101FFC0050FA022002E000F04CFA022002B070BD50
:10200C0038B50446812103F0F8F80025E56201217A
:10201C00204603F0F2F8C4F86C518221204603F0FC
:10202C00ECF82564D4F8B8324BB1D4F8BC325B6808
:10203C009847D4F8B80203F02DF9C4F8B852002030
:10204C0038BD38B50446037CA3BB4FF400730222A1
:10205C00812103F0C7F80125E5624FF400730222D9
:10206C002946204603F0BEF8C4F86C51082303221D
:10207C008221204603F0B6F8012323644FF4077045
:10208C0003F004F90546C4F8B80268B3D4F8BC32BE
:10209C001B6898470023C5F81432C5F81832237C06
:1020AC00C3B14023D5F804220121204603F0E0F807
:1020BC00002038BD40230222812103F093F8012532
:1020CC00E562402302222946204603F08BF8C4F82F
:1020DC006C51CBE74FF40073D5F804220121204654
:1020EC0003F0C6F80020E4E70120E2E719B1C0F8DC
:1020FC00BC120020704702207047D0F8B832C3F8E9
:10210C000812C3F8102200207047D0F8B832C3F878
:10211C00041200207047D0F8B822A2B108B5D2F84A
:10212C0014320BB1012008BD0123C2F81432D2F8CD
:10213C0010320363B2F81032D2F80822812103F076
:10214C008FF80020EFE702207047D0F8B8229AB140
:10215C0008B5037C3BB14023D2F80422012103F0E3
:10216C0087F8002008BD4FF40073D2F80422012137
:10217C0003F07EF80020F5E70220704798B108B50F
:10218C000346D0F8B40210B10020C3F8B40209B170
:10219C00C3F8B0121846012380F89C32027002F08A
:1021AC00D7FF002008BD0220704719B1C0F8B41247
:1021BC00002070470220704708B503F00BF8002090
:1021CC0008BD08B5D0F8B43233B11B68984708B9CC
:1021DC00002008BD0220FCE70220FAE708B5D0F881
:1021EC00B4325B689847002008BD38B5044600F54A
:1021FC002A75284600F039F90123C4F89432B4F852
:10220C00AE32C4F8983294F8A81201F01F03012BD7
:10221C000ED03BB1022B10D001F08001204602F011
:10222C00F4FF03E02946204600F0CDFA002038BD2B
:10223C002946204600F0FBFAF8E72946204600F034
:10224C0026FBF3E738B50446A1BB1046D4F894320C
:10225C00032B03D0052B24D0002037E0D4F86031B9
:10226C00D4F8642193420DD99B1AC4F860319A4278
:10227C0006D99AB20146204600F050FC002025E019
:10228C0092B2F7E7D4F8B4321B692BB194F89C22C4
:10229C00032A01D120469847204600F047FC002035
:1022AC0014E00025C4F894522946204602F0ADFFF4
:1022BC0028460BE00A46D0F8B4329B693BB190F843
:1022CC009C12032905D111469847002038BD0220E5
:1022DC00FCE70220FAE710B50446002953D110465A
:1022EC00D4F89432022B0CD0042B00D01BB98021D3
:1022FC00204602F08AFF94F8A032012B3FD0002038
:10230C004DE0236A626A93421DD8E169B1FBF2F396
:10231C0002FB13132BB98A4203D8D4F89832994292
:10232C001FD3D4F8B432DB682BB194F89C22032A67
:10233C0001D1204698478021204602F066FF2046B6
:10234C0000F0FFFBD7E79A1A226292B201462046B0
:10235C0000F0CDFB00231A461946204602F088FFF8
:10236C00C9E700221146204600F0C1FB0021C4F849
:10237C0098120B460A46204602F07AFFBBE7002073
:10238C0084F8A0020BE00A46D0F8B4325B693BB18A
:10239C0090F89C12032905D111469847002010BDD6
:1023AC000220FCE70220FAE770B504464023002225
:1023BC00114602F017FF0125C4F858514026C4F805
:1023CC006461334600228021204602F00BFFA56198
:1023DC00666284F89C520023C4F894326360C4F89B
:1023EC00A432D4F8B8322BB1D4F8B4325B680021E3
:1023FC0020469847002070BD01740020704790F86B
:10240C009C3280F89D32042380F89C320020704767
:10241C0090F89C32042B01D00020704790F89D322C
:10242C0080F89C32F8E708B590F89C32032B01D069
:10243C00002008BDD0F8B432DB69002BF8D09847E7
:10244C00F6E7002302E00133DBB201300278002A08
:10245C00F9D11846704708B54B88012B00D008BD40
:10246C00C0F8A43200F062FBF9E70B7803704B78EC
:10247C0043708B78CA7803EB022343800B794A793B
:10248C0003EB022383808B79CA7903EB0223C3808D
:10249C00704710B50446802102F0B7FE002120469B
:1024AC0002F0B3FE10BD30B583B005460C460023D8
:1024BC00ADF806304A88130A013B062B00F2A480C3
:1024CC00DFE803F004182CA2A2869300D0F8B032F7
:1024DC001B680DF10601007C9847BDF806201AB167
:1024EC00E388002B40F09480E388002B00F09A8066
:1024FC0003B030BD037C43B9D0F8B4329B6A0DF104
:10250C000600984702234370E7E7D0F8B432DB6A41
:10251C000DF10600984702234370DEE7D2B2052A7C
:10252C0052D8DFE802F003101D2A3744D0F8B0323D
:10253C005B6823B10DF10601007C9847CDE721467D
:10254C00FFF7A7FFD4E7D0F8B0329B6823B10DF1A9
:10255C000601007C9847C0E72146FFF79AFFC7E7C2
:10256C00D0F8B032DB6823B10DF10601007C98473E
:10257C00B3E72146FFF78DFFBAE7D0F8B0321B69FD
:10258C0023B10DF10601007C9847A6E72146FFF721
:10259C0080FFADE7D0F8B0325B6923B10DF10601D5
:1025AC00007C984799E72146FFF773FFA0E7D0F826
:1025BC00B0329B6923B10DF10601007C98478CE782
:1025CC002146FFF766FF93E72146FFF762FF8FE78F
:1025DC00037C33B9D0F8B4325B6B0DF1060098472D
:1025EC007BE72146FFF755FF82E7037C43B9D0F820
:1025FC00B4321B6B0DF106009847072343706CE750
:10260C002146FFF746FF73E72146FFF742FF6FE7CE
:10261C009A4228BF1A46ADF806200146284600F01B
:10262C0059FA61E7284600F081FA61E738B50446AB
:10263C008B88F3B9CB88E3B94B887F2B19D803F07F
:10264C007F0590F89C32032B0CD080F89E522946C3
:10265C0002F0FEFD204600F069FA35B1022384F841
:10266C009C3209E0FFF715FF06E0012384F89C3249
:10267C0002E02046FFF70DFF38BD000038B50446D8
:10268C000D468978284B197001290ED890F89C3288
:10269C00022B0ED0032B21D02946FFF7FAFE224B3A
:1026AC0019782046FFF79AFD02E02946FFF7F1FE64
:1026BC0038BD81B14160032380F89C32FFF781FD66
:1026CC00022803D0204600F031FAF1E729462046D3
:1026DC00FFF7DFFEECE700F029FAE9E789B1436880
:1026EC0099421DD0D9B2FFF779FD0F4B1978616073
:1026FC002046FFF766FD02280DD0204600F016FAA2
:10270C00D6E7022380F89C324160FFF767FD204634
:10271C0000F00CFACCE729462046FFF7BAFEC7E7D3
:10272C0000F004FAC4E700BF6802002008B5CB88AB
:10273C00012B0BD190F89C329BB1022B09D9032BA6
:10274C000FD10122011D00F0C5F901E0FFF7A1FE38
:10275C0008BD0146002341F8083F012200F0BAF9F8
:10276C00F6E7FFF796FEF3E708B590F89C32013BCD
:10277C00022B12D8CB88022B0CD10123C360D0F8CA
:10278C00A4320BB10323C360022200F10C0100F050
:10279C00A1F908BDFFF77DFEFBE7FFF77AFEF8E72E
:1027AC0008B590F89C32013B022B09D84B88012BC1
:1027BC0000D008BD0023C0F8A43200F0B7F9F8E748
:1027CC00FFF767FEF5E708B50B7803F06003202BE5
:1027DC0005D0402B03D043B1FFF75BFE03E0D0F8EC
:1027EC00B4329B689847002008BD4B78092B1BD846
:1027FC00DFE803F011171A141A08051A0E0BFFF76D
:10280C0052FEF0E7FFF712FFEDE7FFF737FFEAE7BD
:10281C00FFF78CFFE7E7FFF7A7FFE4E7FFF71BFEE7
:10282C00E1E7FFF7BDFFDEE7FFF733FEDBE738B587
:10283C0005460C460B7803F06003202B06D0402B8A
:10284C0004D01BB1FFF725FE002038BD95F89C3253
:10285C00013B022B16D82379012B0ED8D5F8B432B4
:10286C009B68214628469847E388002BECD100282A
:10287C00EAD1284600F05AF9E6E721462846FFF748
:10288C0008FEE1E721462846FFF703FEDCE738B5F2
:10289C0004468A880B7803F06003202B08D0D0B252
:1028AC00402B05D05BB12046FFF7F3FD002005E07F
:1028BC00D4F8B4329B6820469847002038BD202BB2
:1028CC0005D1D4F8B4329B6820469847F6E74B788C
:1028DC00012B32D0002B5ED0032B40F0D88094F823
:1028EC009C32022B06D0032B16D02046FFF7D1FDCD
:1028FC000020E3E708B1802804D12046FFF7C9FD8A
:10290C000020DBE70146204602F07FFC80212046B8
:10291C0002F07BFC0020D1E74B8823B918B180284A
:10292C0001D0CB8823B1204600F000F90020C5E788
:10293C000146204602F069FCF5E794F89C32022B24
:10294C0006D0032B16D02046FFF7A3FD0020B5E7D9
:10295C0008B1802804D12046FFF79BFD0020ADE78D
:10296C000146204602F051FC8021204602F04DFC2D
:10297C000020A3E74B88002B40F08E8010F07F0FD7
:10298C0004D1204600F0D2F8002097E701462046FB
:10299C0002F043FCF5E794F89C32022B06D0032B93
:1029AC002AD02046FFF775FD002087E708B1802864
:1029BC0013D112F0800F15D100F07F0000EB8000D6
:1029CC00830003F5A8712144043100250D60022217
:1029DC00204600F07FF8284670E72046FFF759FDA7
:1029EC0000206BE700F07F0000EB8000830003F118
:1029FC00100121440431E8E752B2002A1FDB00F039
:102A0C000F0303EB83039D002544D5F8583123B302
:102A1C00002A27DB00F07F0202EB8202930003F511
:102A2C00A8752544043508B1802825D100232B60D6
:102A3C0002222946204600F04DF800203EE700F027
:102A4C000F0303EB83039D002544AB69002BDFD1FF
:102A5C002046FFF71EFD002030E72046FFF719FD4A
:102A6C0000202BE700F07F0202EB8202930003F1BF
:102A7C00100525440435D6E70146204602F0D5FB67
:102A8C0010B101232B60D3E700232B60D0E7204645
:102A9C00FFF7FFFC002011E700200FE7C8B170B56D
:102AAC000D4616460446FFF7CCFC01304000308042
:102ABC00287003236B70022307E001345A1CD2B236
:102ACC00E9540233DBB20021A95421780029F4D156
:102ADC0070BD704710B513460222C0F89422C36132
:102AEC0003620A46002102F0BBFB002010BD08B5B2
:102AFC0013460A46002102F0B3FB002008BD10B5B6
:102B0C0013460322C0F89422C0F85C31C0F860313F
:102B1C000A46002102F0ACFB002010BD08B513469C
:102B2C000A46002102F0A4FB002008BD08B50423CE
:102B3C00C0F8943200231A46194602F091FB00208B
:102B4C0008BD08B50523C0F8943200231A4619466F
:102B5C0002F08EFB002008BD38B5154AFF2382F821
:102B6C007030022382F8743082F8753082F8763037
:102B7C0082F877300F4B1049596080320F4B03E0CD
:102B8C0019781170013201330D498B42F8D30D4A7B
:102B9C00141FFC21204601F0DDFF0B4D284601F0EF
:102BAC0039FF4FF480722946204601F06DFF38BD85
:102BBC00980D0020880D00200B0100027C550008A8
:102BCC009C5500080C0E002000FC0008AC4B1B7838
:102BDC0003B970472DE9F047AA4B186801F0CAFEFB
:102BEC008046A74BDB6913F0060F56D0A54EB36891
:102BFC00434056F8B42B03EA0209012400252F4662
:102C0C000AE03368102B01DC013333603368102B7E
:102C1C000ED00135640004361F2D3FDC994B1B6828
:102C2C002342F6D014EA090FEBD000233360F0E70F
:102C3C00934BD3F874315B5D14EA080F15D09149AE
:102C4C00CA682243CA60022BE3D172B6DFF830A205
:102C5C00DAF820302343CAF8203062B602F000F8CC
:102C6C0005F118032AF81300D3E727438549CA68EE
:102C7C0022EA0402CA60012BCBD172B6DFF800A2A3
:102C8C00DAF820302343CAF8203062B601F0E8FFAE
:102C9C0005F118032AF81300BBE70027784BDB6912
:102CAC0013F0200F2FD0774B93F82D2093F82E3064
:102CBC009A4236D2734B93F82D3003BB714991F87D
:102CCC002C200132D2B281F82C20072A03D90A46D3
:102CDC00002182F82C106B49CA6942F47F02CA6148
:102CEC00674A5279002A6FD00A4691F82C00C0F13D
:102CFC001700012101FA00F0916901439161013340
:102D0C00604A82F82D305E4BDB6913F0020F00F045
:102D1C0096815B4BD3F8705101264FF000095A4C49
:102D2C007FE0584C002684F82D60206901F022FECB
:102D3C00000EC1B294F82C30514A1A44157D4D4006
:102D4C001175DB00143304EB4303093301213246C4
:102D5C0010E01C784B4E96F82F60B44201D8013429
:102D6C001C701E78474C94F82F40A64209D00132B3
:102D7C0049000233072A9DDC0D42EAD000241C7066
:102D8C00F5E710EA010402D03D4E76792EB9002CFD
:102D9C00EDD13B4C6479002CE9D13A4C94F82C6081
:102DAC00374C3444267B0E4326735C78002CDED0E3
:102DBC0004F00704012606FA04F4314EB6F808C0F4
:102DCC0044EA0C043481D2E72E4991F82C2002F10C
:102DDC00100001228240D24302F47F028869024330
:102DEC008A618CE70123637001F03AFFA06061688F
:102DFC00244BDA690A43DA6161689A690A439A6179
:102E0C002FE013F0080F2CD00423637001F028FF7F
:102E1C00A06026E00023237009F10109760010342C
:102E2C000335B9F10F0F00F30A816378002B2DD114
:102E3C00134A1289324202D1E2683A4226D02B78E8
:102E4C0013F00C0FCED013F0040FDAD005236370FF
:102E5C0061680C4BDA690A43DA6161689A690A4362
:102E6C009A612B7813F0020FD4D0054B1B89334297
:102E7C00D0D023EA0603024A138101232370CBE747
:102E8C00980D0020A0040020D4050020012B16D0A2
:102E9C00022B59D0032B00F08D80042B00F0A28064
:102EAC00052B00F0B980002BB6D16F4B9B883342B9
:102EBC00B2D061686C4AD3690B43D361ACE72B7811
:102ECC0013F0200F0FD0694B1B8933420BD1E368F1
:102EDC0013B133EA080306D16168634AD3690B4323
:102EEC00D361002363706378012B95D101F0B8FE98
:102EFC00A368C01A6B7883428EDC61685A4AD36926
:102F0C000B43D3612B7813F01C0F15D1AB7813F056
:102F1C000F0F09D0237823B1032363700023A37010
:102F2C0006E00223637003E0032363700023A370A5
:102F3C0001F096FEA0606FE713F0180FF8D0032392
:102F4C0063700023A370F3E7484B1B89334206D10F
:102F5C00E36813B133EA080301D10123237023780A
:102F6C003BB16168404AD3690B43D3610023637062
:102F7C0052E701F075FEA368C01A102811DCAB787B
:102F8C0003F00F03C3F110038342BFF645AF616832
:102F9C00354BDA690A43DA6161689A690A439A61C6
:102FAC003AE76168304AD3690B43D36101F058FEAC
:102FBC00A06031E701F054FEA368C01A6B7883421D
:102FCC003FF72AAFA3781033DBB2A370AA7802F0D4
:102FDC007002934202D3002363701DE701F040FEA0
:102FEC00A06019E701F03CFEA368C01AAB785B0047
:102FFC0003F01E0383423FF70FAF0123637001F010
:10300C002FFEA0606168184BDA690A43DA616168C7
:10301C009A690A439A61FFE6144B1B8933427FF489
:10302C00FBAEE3681BB133EA08037FF4F5AE6168CD
:10303C000D4AD3690B43D36100236370ECE60B4B51
:10304C00DB6913F0060F0DD072B60848036A064907
:10305C004A6923EA0203CC6822401343036262B636
:10306C00C1F80880BDE8F087A0040020980D00206E
:10307C001F281FD810B401F00F0411F0800F0CD1D1
:10308C00012202FA00F0184B03EB0413D3F8402191
:10309C000243C3F8402110BC7047012202FA00F031
:1030AC00114B03EB0413D3F8402122EA0002C3F8BE
:1030BC004021F0E70D4BDB6913F0200F13D049B220
:1030CC00002909DB01F00F0141F080010C38064B9F
:1030DC0003EB4000817270470C38034B03EB40004C
:1030EC000023837270477047A0040020980D0020C5
:1030FC00294A9388184002F59A720121002344E072
:10310C00264D95F87450082D33D10CE05C0004F07A
:10311C00180403F003052C43012505FA04F4D568C3
:10312C0025EA0405D5600133103249000F2B27DC4A
:10313C000842F8D0002454705668174DEC6934439B
:10314C00EC61164CD4F8705103EB43042C5D14F075
:10315C00010FDBD05C0004F0180403F003052C43D2
:10316C0004F12C060C4D05EB860500266E60002B39
:10317C00C6D0012505FA04F4D5682543D560D2E7FD
:10318C0070BC70470133103249000F2B03DC08422E
:10319C00F8D070B4CEE77047A0040020980D002042
:1031AC00F0B4104BD3F874410F490123002208E00E
:1031BC000E4E756925EA030575610132043101343F
:1031CC005B001F2A0CDC1D460342F6D000260E6065
:1031DC002678002EECD1054F7E6935437D61ECE7F6
:1031EC00F0BC7047980D002054050020A00400206E
:1031FC00A54BD3F87431D3B1704700244C709010A8
:10320C0002F0030303EBC0030433012000FA03F3C1
:10321C004B60CC60024410310F2AEEDD9B4A002338
:10322C0013609380D36013611D461E460DE070B58C
:10323C0084B000229649EFE7D900FF2202FA01F18F
:10324C00924802680A4302600133032B70DC8E4AF9
:10325C001A4492F87420022AEED0012A14D0042ABF
:10326C0024D00A2A22D0062A41D0082A4CD0032A7C
:10327C0005D0072A03D00B2A01D00C2AE4D1D9009F
:10328C00FF228A401543DFE7DC00F022A240154301
:10329C009A000F2000FA02F27C498E8832438A8011
:1032AC00A0400A68104308600126CDE7022B03D02A
:1032BC00754A02219171C7E7734991F87710052976
:1032CC00F6D17249002081F82C0081F82D0045F4CC
:1032DC007F05086940F07F400861042A03D06A4AE0
:1032EC0000215171B0E7684A01215171ACE71BB163
:1032FC00654A03219171A7E764490A6842F0EF021D
:10330C000A6045F010059FE71BB15F4A03219171DC
:10331C009AE75E4A116841F00E011160918841F004
:10332C000F01918045F0F1050126C2F838618BE759
:10333C00002411E0554A1269134222D00023019354
:10334C00514B5B79D3B1022302936946514B53F82D
:10335C003400FCF7A7FF01341F2C19DC4D4B03EB99
:10336C00C4039B880093494B1A680123A3401A425B
:10337C00E0D00023019301230293E6E7012302939B
:10338C00E3E72B42E7D00123019302230393DCE70D
:10339C003E4C20682369184301F0ECFAE0603A4A8D
:1033AC00D2F87C31C2F874312033C2F87C3126B1AA
:1033BC00C2F870313033C2F87C3100220BE00023AC
:1033CC0001F8013B304BD3F8743104F1080003448D
:1033DC008B42F4D80132032A0BDC2B4B134493F8A9
:1033EC007430012BF6D1284BD3F87411D40021443E
:1033FC00E8E7254BDB6913F0200F3AD0224BD3F8CA
:10340C0074311A7C5AB9214A022182F82E105B7C45
:10341C004BB91E4B042283F82F20002210E01B49CD
:10342C0081F82E20F3E7194A82F82F30F5E702F1E4
:10343C001401164B03EB41030021597299720132AE
:10344C003F2AF4DD104BD3F87021002301E0013347
:10345C0003320F2B0DDC117811F0100FF7D091788F
:10346C0063F07F0001F11404084901EB44018872F8
:10347C00EDE74FF6FF70FFF73BFE044B1868FFF7C4
:10348C008FFE04B070BD00BF980D0020A00400207A
:10349C00D40500209C550008034B9A691043986191
:1034AC00DA691143D9617047A004002010B5044CAF
:1034BC00E169A06901F0FCF90023A361E36110BD8F
:1034CC00A0040020094A0023536093609361137099
:1034DC00537008E0C3EBC3029100044A0A44002174
:1034EC0082F820100133022BF4DD7047D406002043
:1034FC002DE9F0410D4617461E4604132E4AC4EB27
:10350C00C4018B0013445D6253682B4453602B4BF6
:10351C009B793BB1294B9B799BB1284B9B7923B36E
:10352C00BDE8F081284601F099FFC4EBC4039A0072
:10353C00214B134498620028ECD1204B01229A7144
:10354C00E8E7E3001B1B4FEA83081B4B9844D8F8B1
:10355C0028303B60284601F081FFC8F82C00002879
:10356C00DBD1164B01229A71D7E7E3001B1B9A00A3
:10357C00114F1744FB6A3360A80001F06FFF3863EA
:10358C0078B101260D4BDE700B49E3001F1BBA000E
:10359C000A4482F82060069E5663079B93630023BF
:1035AC0007E0064B01229A71BAE7002220F8042B9F
:1035BC000133AB42F9DBB3E7D4060020980D0020B1
:1035CC00074B5B68002B08DB1B11054A93600F2B24
:1035DC0002DC134610229A6070470F33F4E700BFE9
:1035EC00D4060020014B01221A707047D40600202B
:1035FC000B4AD3697432934205D21A7852B91C33F0
:10360C00074AD361F4E7002333B9054B00225A7003
:10361C009A6170470123F7E7014B00225A6170470A
:10362C00D40600202DE9F0413C4B5A694FF6FF734C
:10363C009A420FD0394B5B78002B6DD0374BDA693F
:10364C00D7685B691F4496681E44146904EB8304B5
:10365C00002538E0FFF7CCFFECE707F1010897F8FD
:10366C0000C0771C3678B44514D9ACEB060E5FFA63
:10367C008EFE01FB0EF1B1FBF3F3DBB2B4450ED9B8
:10368C003344D9B2536998476388013363803E460B
:10369C00474609E0A6EB0C0E5FFA8EFEE9E7F31A3B
:1036AC00D9B2EFE70137013604341C4A53690133B0
:1036BC005361936901339361916893FBF1F201FBC0
:1036CC00123303B90125154B5869DA6953689842CE
:1036DC0015DAA5B92388002BE4D061888B42BCD8BD
:1036EC0007F101083978771C31700C4BDA69526993
:1036FC0058699047002323803E464746D4E79842BA
:10370C000ADB93699847054B4FF6FF725A61DA69E9
:10371C001C32DA61FFF76CFFBDE8F081D4060020A3
:10372C0008B50F4B1B78B3B10D4BDB789BB10D4B30
:10373C001B786BB10B4B5B7853B90A4B00221A7098
:10374C004FF6FF725A6103F12002DA6101225A70BE
:10375C00044B5B7803B908BDFFF764FFFBE700BFC0
:10376C00980D0020D4060020044B1861D960044940
:10377C00A1FB0212D2085A80704700BFD406002069
:10378C00CDCCCCCC2DE9F8432C4BDB68002B53D0A3
:10379C0006462A4A013BD36014692513C4F30B0473
:1037AC00C5EBC5018B00194613441F6B07EB84084E
:1037BC00538893B908461144896A0E55002127F89D
:1037CC0024100244536B3146204698471B4A136918
:1037DC00013313610020BDE8F88337F82430F3B1CE
:1037EC00EA00521B9100154B0B44DA6A12F8049054
:1037FC009A6A02F804905B6B494620469847B1459B
:10380C0016D00E4B5A8827F824200022A8F8022044
:10381C00C5EBC505AA001344DB6A1E55D6E7C5EBFC
:10382C00C5039A00054B13449B6A13F80490E6E712
:10383C00002327F82430C9E70120CCE7D406002068
:10384C00C908044B33F81120034B03EB8000426092
:10385C00704700BF9C5600084807002070470000C6
:10386C002E4A002313705370C2F88430C2F888308B
:10387C0005E02A4A02EB83020021516001331F2B21
:10388C00F7DD002312E0072A1BD0012101FA03F017
:10389C00224A117801431170D800FF2101FA00F07F
:1038AC00D2F884100143C2F884100133032B10DCCE
:1038BC001B4A1A4492F87420032AE4D0072AF4D144
:1038CC00E1E7012202FA03F1144842780A434270FC
:1038DC00DBE7124B1B7803B9704700B585B0114B71
:1038EC000193114B009302AB03AA20214FF480509B
:1038FC00FFF7FEFD0A4B9B796BB9002309E0039A95
:10390C00511C039100211170029A501C02901170ED
:10391C0001331F2BF3DD05B05DF804FB48070020D5
:10392C00980D0020693800084D38000838B5284B30
:10393C001B78002B4BD0274B1B78002B47D0244BEC
:10394C00DB7A13F0010F03D0224AD2F8844000E056
:10395C00002413F0020F03D01E4BD3F888301C4305
:10396C0001F084F9002300E001331F2B09DC194A14
:10397C0002EB830252688242F6D901229A40144328
:10398C00F2E7002509E0EB0024FA03F0C0B2FF21B6
:10399C0099409840FFF780FD0135032D17DC0D4B46
:1039AC001B782B4113F0010FF6D00A4B5B782B419F
:1039BC0013F0010FE7D0E80024FA00F3DB43DBB28D
:1039CC00FF21814003FA00F0FFF766FDE4E738BD04
:1039DC00980D00204807002070B400210C461F23CE
:1039EC0006E00E4A02EB8302556851602946013B02
:1039FC00002B0CDB01229A400242F8D0002CF0D1B3
:103A0C00064A02EB830251681E460124EFE71CB103
:103A1C00024B03EB8606716070BC704748070020B0
:103A2C0070B400210C460B4606E00E4A02EB8302F2
:103A3C0055685160294601331F2B0CDC01229A403A
:103A4C000242F8D0002CF0D1064A02EB83025168F6
:103A5C001E460124EFE71CB1024B03EB8606716096
:103A6C0070BC70474807002010B5072800F28C8006
:103A7C00DFE800F004081A292B4661810846FFF79D
:103A8C00ABFF10BD0846FFF7CBFFFAE701331F2B46
:103A9C00F7DC01229A400A42F8D0744A02EB830206
:103AAC004FF47A705060F1E70023F0E701331F2BDD
:103ABC00E7DC01229A400A42F8D06C4A02EB8302FE
:103ACC0000205060F2E70023F1E7684BD3F8842024
:103ADC000A43C3F88420D3F8882022EA0102C3F8F1
:103AEC008820002300E001331F2BCADC01229A40FE
:103AFC000A42F8D05D4A02EB830200205060F2E7E4
:103B0C005A4BD3F888200A43C3F88820D3F8842072
:103B1C0022EA0102C3F88420002300E001331F2BAA
:103B2C00AFDC01229A400A42F8D0504A02EB8302E1
:103B3C0000205060F2E7C9434C4BD3F88400084096
:103B4C00C3F88400D3F888200A40C3F8882098E78B
:103B5C00464A02EB83020020506001331F2B0CDC21
:103B6C0001229A400A42F3D0404A02EB83024FF4FE
:103B7C007A705060F1E70023F0E73C4B0022C3F869
:103B8C008420C3F888207CE710F0800F3FF479AFD5
:103B9C0010F0010F0FD1002310E001331F2B19DCA3
:103BAC0001229A400A42F8D0304A02EB83024FF4C9
:103BBC007A745460F1E70023F0E701331F2B09DC22
:103BCC0001229A400A42F8D0284A02EB83020024D0
:103BDC005460F2E710F0020F1BD0244BD3F8842072
:103BEC000A43C3F88420D3F8882022EA0102C3F8E0
:103BFC008820002300E001331F2B3FF742AF012246
:103C0C009A400A42F7D0194A02EB83020020506016
:103C1C00F1E710F0040F1BD0144BD3F888200A43A3
:103C2C00C3F88820D3F8842022EA0102C3F8842048
:103C3C00002300E001331F2B3FF723AF01229A40F2
:103C4C000A42F7D0094A02EB830200205060F1E7E8
:103C5C00C943064BD3F884200A40C3F88420D3F818
:103C6C0088201140C3F888100BE700BF48070020DC
:103C7C00054B00221A70C9089B68044A32F81120BF
:103C8C0023F81020704700BFD40700209C56000872
:103C9C0070470000224BB3F8742040F60B439A4255
:103CAC0000D0704710B584B001231D4A13711D4C10
:103CBC00237000236370802001F0D0FBA06020B142
:103CCC00174B9B794BBB002309E0154B01229A71D2
:103CDC00F6E7144A9268002122F8131001333F2BA7
:103CEC00F7DD114B0193114B009302AB03AA40215A
:103CFC004FF40050FFF7FCFB094B9B796BB9002389
:103D0C0009E0039A511C039100211170029A501C76
:103D1C000290117001333F2BF3DD04B010BD00BFD6
:103D2C00980D0020D40700209D3C00087D3C000825
:103D3C00204B1B7903B9704710B500F091FF1E4B57
:103D4C005B6883420FD01C4A506053780133DBB25E
:103D5C005370072B2CD9002454704FF6FF7120465A
:103D6C00FFF79AFB10BD144B5B7801249C40114B60
:103D7C00DB7A13F0010F05D00F4B1B7813B144F411
:103D8C007F44EAE700F072FF002300E00133072BC9
:103D9C00E3DC094A9168527803EBC20231F8122035
:103DAC008242F3D903F1080101228A401443EDE762
:103DBC000024D2E7980D0020D4070020034B9B6809
:103DCC00034A52F8212043F820207047E0080020D5
:103DDC00DC560008014B01229A707047E008002065
:103DEC00014B01225A707047E00800201B4B1B78D6
:103DFC00A3B11A4B5B788BB1194B1B7833B9194BA8
:103E0C001B68DB6D13B9164B01221A70144B1B780F
:103E1C00012B04D0124B1B78022B0AD07047104B8D
:103E2C009B78002BF6D00E4B00229A7002221A704F
:103E3C00F0E70B4B5B78002BF0D0094B00225A704B
:103E4C001A70084A1168902088655B689B0011689D
:103E5C000533CB65136891229A65DFE7980D002036
:103E6C00E00800205C010020094B9B6803EB8000FC
:103E7C000A4491420BD210B411F8014B054B53F884
:103E8C002430036004309142F6D310BC7047704765
:103E9C00E0080020DC560008F0B585B0644AD2F882
:103EAC007C31C2F8783103F16001C2F87C111C78C6
:103EBC00621ED2B2FD2A00D903245E4AFF21117082
:103ECC005B49012048700021517091705D780DB9EB
:103EDC004FF4807504FB05F1564B5960564B01931A
:103EEC00564B009302AB03AA0020FFF701FB504B8B
:103EFC009B798BB14E4B9B79002B40F097804D4BAF
:103F0C009A68002111609E68321D9A605B6802F805
:103F1C002310039A029811E0464E70688000053019
:103F2C0001F09CFAB0600028E4D1414B01229A7157
:103F3C00E0E7002302F8013B00F8013B3D4B5968D8
:103F4C00039B0B449342F4D80127002300E0013378
:103F5C00A34208DA364AD2F878211A449278FF2A1A
:103F6C00F5D00027F3E7002217E0DFF8C4C0DCF837
:103F7C00781104FB0230194491F802E0039901F81E
:103F8C0000E0DCF87811194491F802C0029901F8AC
:103F9C0000C00133A342E8DB0132AA420EDA5FB162
:103FAC0092FBF4F304FB132304FB023380210398EC
:103FBC00C1540298C154EFE70023EBE71D4C626833
:103FCC0003990020FFF750FF1D4B19684A6822F037
:103FDC0070424A6019684A6842F030424A601B6875
:103FEC004FF000421A61174A11684B6943F0010304
:103FFC004B611268D36943F48043D361124B1A6846
:10400C00542111601A68022151601B680C330F4A4D
:10401C0011680B6613685E6663689B001168053354
:10402C00CB65136891229A650023237005B0F0BD0F
:10403C00980D0020E0080020E13D0008C93D000873
:10404C00740100206C010020600100205C01002044
:10405C00084B00211A4602F8201B9A60DA6003F123
:10406C001002C3F85424102283F85824C3F86014A7
:10407C00704700BFEC080020124B9B6801B3013362
:10408C00114A934201D3A2F580630E4AD2689A4238
:10409C0017D030B403E00B4AD2689A420ED0094ACA
:1040AC0094680578257093600139013031B1013382
:1040BC00054A9342EFD3A2F58063ECE730BC70471E
:1040CC0070477047EC0800200C0D002082B003688C
:1040DC001A0202F47F0242EA1362180A00F47F40CB
:1040EC00024342EA036202AB43F8042D002204E0CF
:1040FC0018780870013201330131032AF8D902B063
:10410C0070470023934209D210B404780C70013329
:10411C00013101309342F8D310BC70477047000056
:10412C0070B594B085E3F02811D0FF2818D0202862
:10413C0040F07F83AC4C2046FF2300F8043F0DF188
:10414C004F02012100F006FD0123237071E3A64B01
:10415C0004221A7001210DF14F0000F0DDFC68E320
:10416C0001210DF14F0000F0D7FC62E39E4B0022C1
:10417C00DA701A280DD9402800F0108114A8FF23FA
:10418C0000F8013D012100F0C7FC974B00221A708A
:10419C004FE39870954A125C01325A700DF14F0240
:1041AC000121181D00F0D6FC20238DF80C309DF851
:1041BC004F308DF80D301A2B00F2E580DFE813F04C
:1041CC001B00320048005D007A007A007A007A0009
:1041DC007E007A00E3007A007A0032007A00E30075
:1041EC00E300E3009A007A007A007A007A007A0001
:1041FC00E3009E00CD007E4B18680DF10E010830D7
:10420C00FFF764FF784B02221A7014A8FF2300F802
:10421C003E3D03AA062100F09DFC072103A800F0F7
:10422C007BFC06E304220DF10E017248FFF769FFD7
:10423C006D4B02221A7014A8FF2300F83E3D03AA0E
:10424C00062100F087FC072103A800F065FCF0E2D2
:10425C000DF10E016848FFF739FF634B02221A700B
:10426C0014A8FF2300F83E3D03AA062100F072FCBF
:10427C00072103A800F050FCDBE25D4B1868836853
:10428C00B3F1FF3F03D1584B03221A70D1E2564BC6
:10429C0002221A700DF10E010830FFF717FF03AA66
:1042AC0006210DF1120000F055FC072103A800F0C7
:1042BC0033FCBEE24C4B03221A70BAE272B64F4B7F
:1042CC001A6A029200221A6262B60DF10E0102A85D
:1042DC00FFF7FCFE444B02221A7014A8FF2300F8CF
:1042EC003E3D03AA062100F035FC072103A800F08F
:1042FC0013FC9EE23C4B05221A709AE2404C0822B9
:10430C000DF10E012046FFF7FCFE374B02221A700E
:10431C0014A8FF2300F83A3D03AA0A2100F01AFC66
:10432C000B2103A800F0F8FB0021234604F108023E
:10433C0007E01478187820EA040018700131013273
:10434C000133072900F275822C4840790028F0D0FF
:10435C0010781C7820401870F0E740220DF10E0107
:10436C002848FFF7CEFE204B02221A7014A8FF2318
:10437C0000F8023D03AA422100F0ECFB432103A804
:10438C0000F0CAFB55E214A8FF2300F8013D0121FF
:10439C0000F0C2FB144B00221A704AE21A4C0DF1C9
:1043AC004F020121204600F0D5FB062304F8043C03
:1043BC003FE20D4AD3780133DBB2D370527893428B
:1043CC000BD3094B1B79984203D00C4A536A013327
:1043DC005362054B00221A702BE20DF14F020121A2
:1043EC00094800F0B7FB24E2EC080020DC5A000876
:1043FC001C0100200C0E00208C0D0020980D0020BC
:10440C00A40D0020C80D0020F0080020C54AD1786A
:10441C004B1CDBB2D370114481F8200452789342C8
:10442C000BD3C04B1B7998420ED0BF4A536A013351
:10443C005362BC4B00221A70FBE10DF14F020121BB
:10444C00BA4800F087FBF4E1B64B9B78033B142B86
:10445C0000F2498101A252F823F000BFBD440008CC
:10446C00EF4400083F440008094500082D450008AA
:10447C00F34600085F450008F34600088345000832
:10448C00AD450008F346000833460008F346000823
:10449C00F3460008F3460008F3460008614600089E
:1044AC0089460008C3460008F3460008E3460008A6
:1044BC009C4A92F8233492F8221443EA012392F88E
:1044CC00211443EA014392F8202443EA02639648FC
:1044DC0040F82C3F964B19680422083100F0D4FAAE
:1044EC00A7E7BFF34F8F9349CA6802F4E062924B7F
:1044FC001343CB60BFF34F8F00BFFDE78A4BD3F85C
:10450C00701100238D4A04E01078087001330131DA
:10451C0001322F2BF8D94FF6FF70FEF7E9FD88E733
:10452C0072B68148B0F908307E4991F8224491F86E
:10453C00232442EA042212B223EA020391F8204413
:10454C0091F8212442EA042212B21343038162B689
:10455C006FE7754BD3F874110023784A04E0107898
:10456C0008700133013101321F2BF8D94FF0FF30A5
:10457C00FEF716FE5DE76C4CFF2384F8703004F1F7
:10458C00700504F17402FC21284600F0E3FA4FF4A4
:10459C0080726B49284600F077FA0123237048E7B4
:1045AC00614900230A4602F8803BC1F87C21CB61AB
:1045BC00C1F8743103E00021117001330132EF2B8B
:1045CC00F9D95F4800F026FA574BDB6AB3F1FF3F8D
:1045DC0006D0574B1968042208315A4800F054FA97
:1045EC00514B9B6AB3F1FF3F3FF423AF504B19681B
:1045FC0004220C31544800F047FA1AE70133032B1C
:10460C0013D8484A1A4492F82014474A1A4482F89C
:10461C0074100029F2D0012202FA01F14248C26959
:10462C000A43C261EAE70023E9E7FEF7E1FD012452
:10463C0000E001340C2C3FF6FCAE3B4BDA69012355
:10464C00A3401A42F5D0414B53F82430002BF0D044
:10465C009847EEE7334A92F8211492F822341B045F
:10466C0043EA016392F8231443EA012392F82414D9
:10467C00194392F82004FFF7F7F9DAE62A4BD3F83E
:10468C007011284B93F8202402EB420211440022B3
:10469C0003F2214304E01878087001320131013330
:1046AC00022AF8D91F4B93F820340120984080B28D
:1046BC00FEF71EFDBDE61C4BD3F87411194B93F895
:1046CC00202493F82104885493F820340120984036
:1046DC00FEF766FDADE6134B93F8211493F8200416
:1046EC00FEF7C6FCA5E614A8FF2300F8013D012146
:1046FC0000F012FA9DE6FF2805D001210DF14F00C4
:10470C0000F00AFA95E020238DF80C30FF238DF889
:10471C000D30022103A800F0FFF9024B00221A70A1
:10472C0087E000BFEC080020980D0020F008002066
:10473C001C01002000ED00E00400FA050C0D002027
:10474C0000FC0008C40D0020C00D00202401002036
:10475C00544BD3F87811544AD378C854D3780133D6
:10476C00DBB2D370527893420DD34F4B1A799DF82C
:10477C004F309A4203D04B4A536A013353624A4B2F
:10478C0000221A7055E00DF14F020121474800F04C
:10479C00E1F94EE0454C0DF14F020121204600F0AD
:1047AC00D9F9201F14F8012C531CDBB204F8013C7E
:1047BC0010449DF84F2080F82024062B39D1043C5E
:1047CC0094F8200494F8213494F8225494F8231487
:1047DC0094F8246494F8252442EA062241EA05213F
:1047EC0043EA0020FEF7C0FF0723237021E0FEF709
:1047FC00C9FF68B12C4B1A799DF84F309A4203D0FF
:10480C00284A536A01335362274B00221A7010E076
:10481C000DF14F020121254800F09CF909E014A884
:10482C00FF2300F8013D012100F076F91E4B002218
:10483C001A701D4BDA689B689A4225D0511C1A4B92
:10484C00D96010788DF84F0003F58463994204D336
:10485C00A3F5846303F12002DA60134B1B78072B5A
:10486C00DDD801A252F823F0334100087941000849
:10487C00BF43000819440008034700085D470008BF
:10488C00A1470008FB4700080DF1020101A800F048
:10489C0057F9BDF8021009B914B070BD019800F0B9
:1048AC00CFFBF9E7980D0020EC080020F008002061
:1048BC0070B400EA01044140630303F40053E200C6
:1048CC0002F4E0621343E20102F400421343A20833
:1048DC0002F480421343200DC2B213434A0702F084
:1048EC0000521343CA0402F0E0621343CA0502F0FB
:1048FC00004213438A0302F0804213430D0905F46E
:10490C007F021343E20202F47042A60906F47E769B
:10491C003243C4F30176324300F440600243C806CC
:10492C0000F070400243880200F07E700243080BD6
:10493C0000F44030024305F040652A43240904F496
:10494C006044090301F06041214304480360044BB7
:10495C001A6003F58063196070BC70471008014041
:10496C00100C01408002024BC0580840704700BF39
:10497C000808014070B506464FF6FF710020FFF79E
:10498C00F1FF04464FF6FF710120FFF7EBFF0546E0
:10499C004FF6FF710220FFF7E5FFC4F34033EA0A3C
:1049AC0002F01E021343E20802F0E0021343E20994
:1049BC0002F480721343AA0102F47E421343A20054
:1049CC0002F480321343000100F4602018432405E4
:1049DC0004F07F6420432B0703F0405318432D054C
:1049EC0005F040452843304070BD0000054B1A6867
:1049FC00054951601B68054A5A60054B00221A7024
:104A0C00704700BF6801002023016745AB89EFCDDB
:104A1C001801002010B50446194B1B78DBB9194B53
:104A2C001B68DB6813F0010F26D1164B1A680221A4
:104A3C0011611A6854611B6842221A610023114AE1
:104A4C001268D26812F0010F08D042F20F72934232
:104A5C0004DC0133F3E7FFF7C9FFE0E742F20F7222
:104A6C0093420BDC074B1B68DB6813F0140F01D16E
:104A7C00002002E0012000E0012010BD0120FCE735
:104A8C001801002068010020F8B504460D461646B2
:104A9C001C4B1B785BB91C4B1B68DB6813F0010FBC
:104AAC002AD1194B1B6801221A6100211AE0FFF769
:104ABC009DFFF0E70133144A1268D26812F0010F1F
:104ACC0003D042F20F729342F4DD42F20F72934222
:104ADC0014DC0D4B1B68DB6813F0140F10D1023182
:104AEC003D460446B14205DAA01CAF1C23882B803E
:104AFC000023E0E7002000E00120F8BD0120FCE7E6
:104B0C000120FAE71801002068010020014B002267
:104B1C001A627047540D002000228A420CDA30B41D
:104B2C00064B1C6A651C1D6205781D55013201304F
:104B3C008A42F5DB30BC7047704700BF540D002033
:104B4C00034B03601A8C0A8000221A62704700BF64
:104B5C00540D002030B40578002305E0D45C6C4083
:104B6C00044D2D5D01339BB28B42F7DB057030BCDD
:104B7C00704700BFF85A0008104A00235360936036
:104B8C000521D1600E4A9372D3720E4A1168CA691C
:104B9C0042F00102CA610C4A116830208862116827
:104BAC0040F2E730C86211680120086011684B6060
:104BBC0011688B601268D360704700BF780D0020BD
:104BCC00980D00206C0100207C01002008B5214AC2
:104BDC0013685B6A9BB220490B801268126912F051
:104BEC00010F2ED04A6801324A60B3F5617F01D9BA
:104BFC0000220A80174B1B6800221A61164AD368E0
:104C0C000133D360272B16DD13460022DA60134ADA
:104C1C00937A013303F01F03937213F0070F04D13F
:104C2C001146D27A82F00202CA7223B90B4AD37AA5
:104C3C0083F00103D372084A936801339360092B04
:104C4C0000DC08BD134600229A60FFF7C9F8FEF796
:104C5C00C9FCF6E77C010020780D0020980D00209F
:104C6C00014B5868704700BF780D0020014B188825
:104C7C00704700BF780D002084B0134B9A6942F046
:104C8C0010029A619A6902F010020092009A9A69D5
:104C9C0042F020029A619A6902F020020192019A74
:104CAC009A6942F008029A619A6902F0080202922B
:104CBC00029A9A6942F004029A619B6903F0040318
:104CCC000393039B04B070470010024070B594B07E
:104CDC0000240C940D940F9410940594069407944E
:104CEC0008940994019402940394049401250A9560
:104CFC004FF480330B930E950226119612934FF4BA
:104D0C00801313930AA8FCF715F80F230593069646
:104D1C0007944FF4806308930994294605A8FCF77F
:104D2C0049FA102301934FF48003049301A8FCF774
:104D3C00F5FA14B070BD0000204B0022DA615A6203
:104D4C009A711A705A709A70DA701A7103F18002A3
:104D5C00C3F87C211A4A1268D16899629268DA62A7
:104D6C00164B1B784BBB10B582B00EE0134A0121D9
:104D7C0002F8701B03E01968116004320433114906
:104D8C008B42F8D90D4B1B78ABB902A8FF2300F866
:104D9C00013D0B4C62680432FC21FFF7DBFE6368BB
:104DAC0019789DF807209142E0D0FDF7D5FE034B12
:104DBC0000221A70E6E702B010BD7047980D002073
:104DCC001C010020FFFC0008164B1B7813B110B51A
:104DDC00002301E070470133032B0DDC114A1A4408
:104DEC0092F87420002AF6D0012101FA02F20D4843
:104DFC00C1691143C161EEE7FEF7FAF9012401E044
:104E0C00984701340C2C0CDC064BDA690123A340C7
:104E1C001A42F6D0044B03EB84039B68002BEFD1B2
:104E2C00EFE710BD980D00201C01002008B5FBF722
:104E3C00ABF9184A536823F0E06343F08063536086
:104E4C00FFF744FFFFF718FF00F0A6F8124B134AC8
:104E5C005A60FEF737FBFFF76FFFFFF7B5FFFEF762
:104E6C00AFFBFFF753FEFFF7F3F8FFF785FE62B6D3
:104E7C00FFF7ACFEFEF754FCFEF7B8FFFDF7A6FEFD
:104E8C00FEF754FDFEF754FFFFF74AF9FEF70EFB51
:104E9C00EEE700BF00000140880D00200B0100026E
:104EAC007047000082B00E4B9A6942F001029A6181
:104EBC009A6902F001020092009ADA6942F080527B
:104ECC00DA61DB6903F080530193019B054A536857
:104EDC0023F0E06343F00073536002B0704700BFEF
:104EEC0000100240000001407047FEE7FEE7FEE7BD
:104EFC00FEE770477047704708B5FBF757F908BDD8
:104F0C0008B50248FBF7C1FD08BD00BF9C1200208C
:104F1C0008B503460B4A126842B10A4A10680344AA
:104F2C006A46934206D8074A136008BD054A0649EB
:104F3C001160F2E700F068FA0C2303604FF0FF30C9
:104F4C00F3E700BF6C020020101700200F4B1A680B
:104F5C0042F001021A6059680D4A0A405A601A68F8
:104F6C0022F0847222F480321A601A6822F48022B1
:104F7C001A605A6822F4FE025A604FF41F029A60BB
:104F8C00044B4FF000629A60704700BF0010024063
:104F9C000000FFF800ED00E008B500220F491048B2
:104FAC00FDF7ECF870B90F490D48FDF7FEF860B944
:104FBC000D490B48FDF79AF850B90948FDF7FCF874
:104FCC0048B908BDFFF76CFFEDE7FFF769FFEFE7A6
:104FDC00FFF766FFF1E7FFF763FFF2E7CC01002074
:104FEC00180F0020E00000208801002000207047EE
:104FFC000020704710B50968FFF73EF8044C0549CE
:10500C002046FDF782F82046FDF79FF8002010BDE2
:10501C00180F0020DC11002010B5064C00220649A8
:10502C002046FDF76AF805492046FDF76EF800208A
:10503C0010BD00BF180F00205C120020DC110020F6
:10504C00094BD3F8B832D3F814320BB101207047A6
:10505C0010B50A460146044C2046FDF74EF8204692
:10506C00FDF759F810BD00BF180F002018B1022829
:10507C0003D00220704700207047012070470000C9
:10508C0002680E4B9A4200D0704700B583B003F50E
:10509C00DA33DA6942F40002DA61DB6903F4000303
:1050AC000193019B002211461420FBF7A3F8142056
:1050BC00FBF7D4F803B05DF804FB00BF005C0040C4
:1050CC0008B500F50C71D0F86802FDF78EF808BD34
:1050DC0008B500EB4113D3F83C21D0F86802FDF77A
:1050EC00B1F808BD08B500EB4113DA6BD0F86802D3
:1050FC00FDF7F1F808BD08B5D0F86802FDF793F993
:10510C0008BD10B504468368022B01D0FFF7C8FE1A
:10511C000121D4F86802FDF76FF9D4F86802FDF7A5
:10512C0043F910BD10B50446D0F86802FDF767F9D5
:10513C00A36923B1024A136943F00603136110BD3E
:10514C0000ED00E008B5D0F86802FDF761F908BD84
:10515C0010B504461D48C0F86842C4F8C0021C4B88
:10516C000360082343600223836000238361C361CF
:10517C000362FBF783F930BB182300221146D4F8E5
:10518C00C002FBF7A9FD582300228021D4F8C002ED
:10519C00FBF7A2FDC02300228121D4F8C002FBF74B
:1051AC009BFD4FF4887300220121D4F8C002FBF759
:1051BC0093FD4FF4807300228221D4F8C002FBF7D8
:1051CC008BFD002010BDFFF76BFED5E79C12002075
:1051DC00005C004008B5D0F8C002FBF7C9F9FFF736
:1051EC0045FF08BD10B51C4613462246D0F8C00238
:1051FC00FBF7E9F9FFF73AFF10BD08B5D0F8C0028C
:10520C00FBF719FAFFF732FF08BD08B5D0F8C0025A
:10521C00FBF7F4FCFFF72AFF08BD08B5D0F8C00275
:10522C00FBF723FDFFF722FF08BDD0F8C03211F0C9
:10523C00800F06D101F07F0103EB411191F82A0197
:10524C00704701F07F0103EB411191F82A00704780
:10525C0008B5D0F8C002FBF7A2F9FFF707FF08BDAD
:10526C0008B5D0F8C002FBF73AFAFFF7FFFE08BD0D
:10527C0008B5D0F8C002FBF70CFAFFF7F7FE08BD33
:10528C0008B5D0F8C002FBF723FA08BD00487047F8
:10529C00740200207047704712230B80004870473F
:1052AC009801002004230B8000487047AC010020BB
:1052BC000023934216D230B40BE0373401F813407C
:1052CC0000015C00013400250D550133DBB2934223
:1052DC0006D2040F092CF0D8303401F81340EFE754
:1052EC0030BC70477047000038B50B4B186804335E
:1052FC001C6804331B68C01800D138BD074D082248
:10530C0005F11A01FFF7D4FF042205F12A0120460A
:10531C00FFF7CEFFF1E700BFE8F7FF1F9801002071
:10532C0008B51A230B80FFF7DFFF014808BD00BF4B
:10533C00B001002008B50A4628B105490548FDF71B
:10534C00ADFB034808BD02490248FDF7A7FBF8E78F
:10535C0008150020105C000810B5044C0A462146C4
:10536C000348FDF79BFB204610BD00BF081500202D
:10537C00285C000808B50A4628B105490548FDF720
:10538C008DFB034808BD02490248FDF787FBF8E78F
:10539C00081500203C5C000808B50A4628B10549F0
:1053AC000548FDF77BFB034808BD02490248FDF7A1
:1053BC0075FBF8E708150020485C0008002103E0A5
:1053CC000B4B5B58435004310A480B4B42189A4222
:1053DC00F6D30A4A02E0002342F8043B084B9A42F7
:1053EC00F9D3FFF7B3FD00F015F8FFF71FFD704779
:1053FC00605C0008000000204C0200204C020020E1
:10540C000C170020FEE70000014B1868704700BF26
:10541C00E801002070B500250C4E0D4CA41BA41007
:10542C00A54209D100F08EF800250A4E0A4CA41BA7
:10543C00A410A54205D170BD56F82530984701350A
:10544C00EEE756F8253098470135F2E7585C00082E
:10545C00585C0008585C00085C5C0008024B014674
:10546C00186800F003B800BFE801002070B5CD1C2F
:10547C0025F0030508350C2D38BF0C25002D0646EC
:10548C0001DBA94203D90C233360002070BD00F06E
:10549C0057F8214A1468214691B9204C23681BB94E
:1054AC00304600F03DF820602946304600F038F8D0
:1054BC00431C24D10C233046336000F042F8E4E75F
:1054CC000B685B1B18D40B2B0FD90B60CC18CD5071
:1054DC00304600F036F804F10B00231D20F00700D5
:1054EC00C31AD3D05A42E250D0E74B688C4216BF55
:1054FC00636013600C46EBE70C464968CCE7C41CB0
:10550C0024F00304A04205D0211A304600F008F81C
:10551C000130CFD02560DBE79404002098040020F4
:10552C0038B50023054C054608462360FFF7F0FC10
:10553C00431C02D1236803B12B6038BD081700202F
:10554C0070477047F8B500BFF8BC08BC9E46704762
:0C555C00F8B500BFF8BC08BC9E467047C4
:1055680002030405060708090A0B0C0D0E0F10109C
:105578000102000000000000000000000000000020
:105588000000000000000000000000000000000013
:10559800000000000008014000200000000C01404D
:1055A80000100000000C014000200000000C014029
:1055B80000400000000C014000800000000801408D
:1055C800000100000008014000020000000801403E
:1055D800000400000008014000800000000C0140A9
:1055E80008000000000C014010000000000C014001
:1055F80020000000000C014040000000000C0140A9
:1056080080000000000C014000010000000C014077
:1056180000020000000801400040000000100140A6
:105628000020000000100140004000000010014070
:10563800008000000008014001000000000801404F
:1056480002000000000801400400000000080140BA
:105658000800000000080140100000000008014098
:105668002000000000080140400000000008014040
:1056780080000000000C014001000000000C014007
:1056880002000000000C014000040000000C014072
:105698000008000000003F005E007D009C00BC0088
:1056A800DB00FA0019013901580177019601B601AA
:1056B800D501F40113023302520271029002B002C2
:1056C800CF02EE020D032D034C036B038A03AA03DA
:1056D800C903E803888888888888888C888888C867
:1056E800888888CC88888C8888888C8C88888CC89E
:1056F80088888CCC8888C8888888C88C8888C8C8D6
:105708008888C8CC8888CC888888CC8C8888CCC87D
:105718008888CCCC888C8888888C888C888C88C829
:10572800888C88CC888C8C88888C8C8C888C8CC84D
:10573800888C8CCC888CC888888CC88C888CC8C885
:10574800888CC8CC888CCC88888CCC8C888CCCC82D
:10575800888CCCCC88C8888888C8888C88C888C831
:1057680088C888CC88C88C8888C88C8C88C88CC81D
:1057780088C88CCC88C8C88888C8C88C88C8C8C855
:1057880088C8C8CC88C8CC8888C8CC8C88C8CCC8FD
:1057980088C8CCCC88CC888888CC888C88CC88C8A9
:1057A80088CC88CC88CC8C8888CC8C8C88CC8CC8CD
:1057B80088CC8CCC88CCC88888CCC88C88CCC8C805
:1057C80088CCC8CC88CCCC8888CCCC8C88CCCCC8AD
:1057D80088CCCCCC8C8888888C88888C8C8888C825
:1057E8008C8888CC8C888C888C888C8C8C888CC88D
:1057F8008C888CCC8C88C8888C88C88C8C88C8C8C5
:105808008C88C8CC8C88CC888C88CC8C8C88CCC86C
:105818008C88CCCC8C8C88888C8C888C8C8C88C818
:105828008C8C88CC8C8C8C888C8C8C8C8C8C8CC83C
:105838008C8C8CCC8C8CC8888C8CC88C8C8CC8C874
:105848008C8CC8CC8C8CCC888C8CCC8C8C8CCCC81C
:105858008C8CCCCC8CC888888CC8888C8CC888C820
:105868008CC888CC8CC88C888CC88C8C8CC88CC80C
:105878008CC88CCC8CC8C8888CC8C88C8CC8C8C844
:105888008CC8C8CC8CC8CC888CC8CC8C8CC8CCC8EC
:105898008CC8CCCC8CCC88888CCC888C8CCC88C898
:1058A8008CCC88CC8CCC8C888CCC8C8C8CCC8CC8BC
:1058B8008CCC8CCC8CCCC8888CCCC88C8CCCC8C8F4
:1058C8008CCCC8CC8CCCCC888CCCCC8C8CCCCCC89C
:1058D8008CCCCCCCC8888888C888888CC88888C86C
:1058E800C88888CCC8888C88C8888C8CC8888CC89C
:1058F800C8888CCCC888C888C888C88CC888C8C8D4
:10590800C888C8CCC888CC88C888CC8CC888CCC87B
:10591800C888CCCCC88C8888C88C888CC88C88C827
:10592800C88C88CCC88C8C88C88C8C8CC88C8CC84B
:10593800C88C8CCCC88CC888C88CC88CC88CC8C883
:10594800C88CC8CCC88CCC88C88CCC8CC88CCCC82B
:10595800C88CCCCCC8C88888C8C8888CC8C888C82F
:10596800C8C888CCC8C88C88C8C88C8CC8C88CC81B
:10597800C8C88CCCC8C8C888C8C8C88CC8C8C8C853
:10598800C8C8C8CCC8C8CC88C8C8CC8CC8C8CCC8FB
:10599800C8C8CCCCC8CC8888C8CC888CC8CC88C8A7
:1059A800C8CC88CCC8CC8C88C8CC8C8CC8CC8CC8CB
:1059B800C8CC8CCCC8CCC888C8CCC88CC8CCC8C803
:1059C800C8CCC8CCC8CCCC88C8CCCC8CC8CCCCC8AB
:1059D800C8CCCCCCCC888888CC88888CCC8888C823
:1059E800CC8888CCCC888C88CC888C8CCC888CC88B
:1059F800CC888CCCCC88C888CC88C88CCC88C8C8C3
:105A0800CC88C8CCCC88CC88CC88CC8CCC88CCC86A
:105A1800CC88CCCCCC8C8888CC8C888CCC8C88C816
:105A2800CC8C88CCCC8C8C88CC8C8C8CCC8C8CC83A
:105A3800CC8C8CCCCC8CC888CC8CC88CCC8CC8C872
:105A4800CC8CC8CCCC8CCC88CC8CCC8CCC8CCCC81A
:105A5800CC8CCCCCCCC88888CCC8888CCCC888C81E
:105A6800CCC888CCCCC88C88CCC88C8CCCC88CC80A
:105A7800CCC88CCCCCC8C888CCC8C88CCCC8C8C842
:105A8800CCC8C8CCCCC8CC88CCC8CC8CCCC8CCC8EA
:105A9800CCC8CCCCCCCC8888CCCC888CCCCC88C896
:105AA800CCCC88CCCCCC8C88CCCC8C8CCCCC8CC8BA
:105AB800CCCC8CCCCCCCC888CCCCC88CCCCCC8C8F2
:105AC800CCCCC8CCCCCCCC88CCCCCC8CCCCCCCC89A
