:020000040800F2
:1000000000500020114E00083D4900083F490008FB
:100010004149000843490008454900080000000024
:100020000000000000000000000000004749000838
:1000300049490008000000004B4900084D490008EC
:10004000594E0008594E0008594E0008594E0008F4
:10005000594E0008594E0008594E0008594E0008E4
:10006000594E0008594E0008594E0008594E0008D4
:10007000594E0008594E0008594E0008594E0008C4
:10008000594E0008594E0008594E0008594E0008B4
:1000900055490008594E0008594E0008594E0008AD
:1000A000594E0008594E0008594E0008594E000894
:1000B000594E0008594E0008594E0008594E000884
:1000C000594E0008594E0008594E0008594E000874
:1000D000594E0008594E0008594E0008594E000864
:1000E000594E0008594E0008594E00080000000003
:1000F0000000000000000000000000000000000000
:0C01000000000000000000005FF808F1A3
:10010C0010B5054C237833B9044B13B10448AFF345
:10011C0000800123237010BD240200200000000089
:10012C00984F000808B5034B1BB103490348AFF3C4
:10013C00008008BD0000000028020020984F000835
:10014C0010B504460E4B18784FF47A73B3FBF0F3EA
:10015C000C4A1068B0FBF3F000F08EF868B90F2C65
:10016C0001D901200AE0002221464FF0FF3000F0B7
:10017C0041F8034B5C60002000E0012010BD00BF83
:10018C00000000205C01002008B5074A136843F00A
:10019C0010031360032000F01BF80020FFF7D0FFC2
:1001AC0004F0A4FB002008BD00200240034A1168A3
:1001BC00034B1B780B441360704700BF7404002082
:1001CC0000000020014B1868704700BF7404002029
:1001DC00074AD36823F4E0631B041B0C000200F4F1
:1001EC00E060184340F0BF6040F40030D0607047CE
:1001FC0000ED00E030B4174BDB68C3F30223C3F10E
:10020C000704042C28BF04241D1D062D18D9033BFC
:10021C004FF0FF3505FA04F421EA0401994005FA80
:10022C0003F322EA0303194300280BDB0901C9B2CB
:10023C0000F1604000F5614080F8001330BC70475D
:10024C000023E5E700F00F000901C9B2024B195475
:10025C00F4E700BF00ED00E014ED00E0002807DB40
:10026C0000F01F02400901239340024A42F820305B
:10027C00704700BF00E100E00138B0F1807F0AD286
:10028C00064B5860064AF02182F823100020986033
:10029C0007221A6070470120704700BF10E000E091
:1002AC0000ED00E0F0B482B000263246A2E0002D52
:1002BC005AD0012D00D1CE68FF2B69D88446FF2B74
:1002CC0069D89500DCF800400F27AF4024EA0704FA
:1002DC0006FA05F52C43CCF800404C6814F0805F0E
:1002EC0000F087805F4CA56945F00105A561A46904
:1002FC0004F001040194019C9508AF1C5A4C54F86D
:10030C00274002F00307BF004FF00F0C0CFA07FC5C
:10031C0024EA0C0C554CA04243D004F58064A04256
:10032C0000F0818004F58064A0427ED004F58064E6
:10033C00A04234D0042435E04D4FBD4214D00BD92B
:10034C004C4FBD4210D007F58037BD420CD0A7F5FD
:10035C008017BD42B0D107E0A7F58017BD4203D08E
:10036C0007F58037BD42A7D18D687DB1012D08D02E
:10037C0044610826A0E7CE6808369DE7CE680C36A7
:10038C009AE70461082697E7002695E7042693E789
:10039C0000F1040C93E7A2F10805AD0092E70324E9
:1003AC0000E00024BC4044EA0C0402352E4F47F810
:1003BC0025404C6814F4803F39D02F4D2C681C43D9
:1003CC002C604C6814F4003F37D02B4D6C681C43E8
:1003DC006C604C6814F4801F35D0274DAC681C43FE
:1003EC00AC604C6814F4001F33D0234DEC682343ED
:1003FC00EB6001320B6833FA02F430D001249440E4
:10040C0023409C42F5D14D68122DB7D094D8022DC3
:10041C00B1D07FF64CAF032DB6D0112D7FF44CAF7D
:10042C00CE68043648E70124BCE70224BAE7124D33
:10043C002C6824EA03042C60C3E70F4D6C6824EA93
:10044C0003046C60C5E70C4DAC6824EA0304AC6093
:10045C00C7E7094DEC6824EA0303EB60C9E702B077
:10046C00F0BC704700100240000001400008014041
:10047C00000021100000311000040140F0B587B0DD
:10048C00002873D0044690F82932D3B1032384F8A2
:10049C002932206800F0DBFF254655F8107B6E46AC
:1004AC000FCD0FC62B683360231D0ECB384600F0E2
:1004BC00BFFF58B1022384F829320125284607B022
:1004CC00F0BD80F8283204F0FFFADFE70021206845
:1004DC0000F0C7FF002311E004EB4312012182F866
:1004EC00291082F82830D386002182F82B109163D2
:1004FC00D1639A1C5201A1500133DBB26068834274
:10050C00EAD3002312E004EB4311002281F82921E5
:10051C0081F8283181F82B21C1F83821C1F83C2110
:10052C0003F10A01490162500133DBB29842EAD867
:10053C00254655F8107B6E460FCD0FC62B683360E1
:10054C00231D0ECB384600F08EFF054620B102234A
:10055C0084F829320125B1E7002384F824300123E3
:10056C0084F82932206801F0B0FAA7E70125A5E745
:10057C0090F82832012B10D010B50446012180F8D8
:10058C00281204F0ACFB206801F09DFA206800F002
:10059C0056FF002084F8280210BD0220704790F806
:1005AC002832012B0DD010B50446012380F82832D7
:1005BC0080F82410006801F080FA002084F82802EA
:1005CC0010BD0220704770B511F0800F23D101F0DF
:1005DC0007056D0105F5947404440544002685F85F
:1005EC00296101F0070121702261E370627802B188
:1005FC00E181022B1AD090F82832012B19D0054634
:10060C00012380F828322146006800F042FF0020C8
:10061C0085F8280270BD01F007056D0105F128046D
:10062C0004440544012685F82960DAE70023237188
:10063C00E1E70220EEE710B511F0800F1CD101F0BC
:10064C0007035B0103F5947202440344002483F80E
:10065C00294101F00703137090F82832012B16D0B2
:10066C000446012380F828321146006801F0C5F8D1
:10067C00002084F8280210BD01F007035B0103F190
:10068C00280202440344012483F82940E1E70220B4
:10069C00F1E770B501F007056C0104F594710144A4
:1006AC000444C4F83C2105F10A0252018618835017
:1006BC000023736084F8293184F8285125B100682F
:1006CC0001F01FFA002070BD006801F01AFAF9E77A
:1006DC0001F007010A3100EB41114868704770B511
:1006EC0001F007056C0104F1280101440444E263A4
:1006FC00AA1C52018618835000237360012384F8CE
:10070C00293084F8285025B1006801F0FAF900204E
:10071C0070BD006801F0F5F9F9E7F8B504462068FA
:10072C00B0F8443013F4004F00F0AD81B0F8443011
:10073C009BB213F00F0540F0CD8013F0100F58D082
:10074C0003889BB213F4006F40F0898013F4004FC0
:10075C00E5D0038823F070031B051B0D43F08003C9
:10076C0003802068B0F8503094F8282103EBC203C2
:10077C00063300EB4303B3F80034C3F30903C4F8A6
:10078C0044318BB1D4F83C1171B1B4F82E2101F085
:10079C0048FBD4F84421D4F83C311344C4F83C3120
:1007AC000021204604F0B8F92368B3F85020134414
:1007BC00D4F83821002A74D1B3F80C2492B222F464
:1007CC00F84292B2A3F80C24B3F80C2442F4004281
:1007DC00A3F80C24226813889BB223F4804323F0E3
:1007EC00700383F4405343F4004343F080031380BD
:1007FC0095E703889BB223F4E14323F070036FEA7F
:10080C0043436FEA53439BB203802268B2F85030E3
:10081C0094F8281003EBC103023302EB4303B3F843
:10082C000034C3F309036364E26B1344E3630021F4
:10083C00204604F07BF994F82430002B3FF46FAF82
:10084C00236C002B7FF46BAF94F82430226843F0B8
:10085C008003A2F84C30002384F824305FE7B0F812
:10086C00503094F8282103EBC203063300EB43030A
:10087C00B3F80034C3F30903C4F84431B4F82E219F
:10088C0004F50C7101F0CDFA2268138823F0700383
:10089C001B051B0D43F080031380204604F034F934
:1008AC003DE73E2A09D8510812F0010F00D0013162
:1008BC00890289B2A3F80C148CE7510912F01F0FAE
:1008CC0000D101396FEAC1626FEA524292B2A3F8C9
:1008DC000C247FE730F82560B6B216F4004F33D104
:1008EC0016F0800F3FF41BAF226832F825309BB214
:1008FC0023F4E14323F070036FEA43436FEA53435D
:10090C009BB222F825302268B2F8503004EB451027
:10091C0090F8281003EBC103023302EB4303B3F846
:10092C000024C2F30902AB1C5B01E1184A60C16BE5
:10093C000A44C263E358002B40F09D8090F82810C5
:10094C00204604F0F3F8EAE630F8253023F0700383
:10095C001B051B0D43F0800320F8253004EB4513D9
:10096C0093F83431D3B92068B0F8503004EB451209
:10097C0092F8282103EBC203063300EB4303B3F8D0
:10098C000074C7F309078FB304EB45113B46B1F86C
:10099C002E21D1F83C1101F044FA27E0206804EB39
:1009AC00451393F8282130F8223013F4804F43D0AC
:1009BC00B0F8503003EBC203023300EB4303B3F83F
:1009CC000074C7F309076FBB226804EB451393F857
:1009DC00281132F821309BB223F4E04323F070034A
:1009EC0043F4004343F0C00322F8213005F10A031D
:1009FC005B01E1184A683A444A6004EB4511D1F8AE
:100A0C003C213A44C1F83C21E3581BB1D1F83811D0
:100A1C008F4228D204EB451393F82811204604F09A
:100A2C007BF85DE704EB45113B46B1F83021D1F87A
:100A3C003C1101F0F6F9C7E7B0F8503003EBC203F4
:100A4C00063300EB4303B3F80074C7F30907002F18
:100A5C00BAD004EB45113B46B1F83221D1F83C1128
:100A6C0001F0DFF9B0E704EB451191F828112046AD
:100A7C00FFF70FFE34E704EB451595F828102046D8
:100A8C00FFF72DFE4BE60020F8BD10B504460068BC
:100A9C0001F01DF810F4004F45D1206801F017F853
:100AAC0010F4806F43D1206801F011F810F4804FDE
:100ABC0008D02268B2F844309BB223F480439BB236
:100ACC00A2F84430206801F002F810F4005F08D05E
:100ADC002268B2F844309BB223F400539BB2A2F8C4
:100AEC004430206800F0F3FF10F4805F30D12068B0
:100AFC0000F0EDFF10F4006F49D1206800F0E7FF23
:100B0C0010F4007F6DD1206800F0E1FF10F4807FBD
:100B1C0008D02268B2F844309BB223F480739BB2A5
:100B2C00A2F8443010BD2046FFF7F7FDB5E7226868
:100B3C00B2F844309BB223F480639BB2A2F84430E9
:100B4C00204604F002F800212046FFF728FDAAE712
:100B5C002268B2F840309BB223F004039BB2A2F897
:100B6C0040302268B2F840309BB223F008039BB2AD
:100B7C00A2F84030204604F009F82268B2F844305C
:100B8C009BB223F480539BB2A2F84430AFE72268A7
:100B9C00B2F8403043F00803A2F840302268B2F8B3
:100BAC0044309BB223F400639BB2A2F84430226819
:100BBC00B2F8403043F00403A2F84030206800F053
:100BCC0086FF10F4805F08D02268B2F844309BB2E4
:100BDC0023F480539BB2A2F84430204603F0C6FFA6
:100BEC008BE72268B2F844309BB223F400739BB2BB
:100BFC00A2F84430204603F0A2FF84E738B501F098
:100C0C00070543689D422CD811F0800F1AD14B0177
:100C1C0003F5947101440344002283F82921012334
:100C2C008B700D7090F82832012B1CD004460123D8
:100C3C0080F82832006800F0CAFE65B1002084F804
:100C4C0028020FE06B0103F1280101440344012247
:100C5C0083F82920E3E704F50C71206800F03AFFD3
:100C6C00ECE7012038BD0220FCE701F00F024368DD
:100C7C009A422DD810B511F0800F1ED101F0070348
:100C8C005B0103F5947202440344002483F8294168
:100C9C000023937001F00703137090F82832012B96
:100CAC0018D00446012380F828321146006800F061
:100CBC00B3FE002084F8280210BD01F007035B018D
:100CCC0003F1280202440344012483F82940DFE79E
:100CDC00012070470220EFE711F0800F0CD001F0DB
:100CEC0007014901283101445AB101220A730B81D1
:100CFC001B0C4B8100207047490101F59471014494
:100D0C00F2E70A73CB80F5E782B0084B1B68084A00
:100D1C00A2FB03235B0A00FB03F0019000BF019BC5
:100D2C005A1E0192002BF9D102B070475C010020D1
:100D3C00D34D6210002800F0F58170B582B00446E6
:100D4C00036813F0010F2CD0AB4B5B6803F00C0362
:100D5C00042B1DD0A84B5B6803F00C03082B12D09E
:100D6C006368B3F5803F41D0002B55D103F180432C
:100D7C0003F504331A6822F480321A601A6822F4DC
:100D8C0080221A6037E09C4B5B6813F4803FE7D0FD
:100D9C00994B1B6813F4003F03D06368002B00F0E1
:100DAC00C381236813F0020F76D0934B5B6813F06A
:100DBC000C0F5FD0904B5B6803F00C03082B54D0E6
:100DCC002369002B00F08A808C4B01221A60FFF7FC
:100DDC00F9F90546884B1B6813F0020F75D1FFF724
:100DEC00F1F9401B0228F5D90320A0E1824A1368CF
:100DFC0043F480331360636843B3FFF7E3F90546AC
:100E0C007D4B1B6813F4003FCBD1FFF7DBF9401B84
:100E1C006428F5D903208AE1B3F5A02F09D0764BCD
:100E2C001A6822F480321A601A6822F480221A603E
:100E3C00E1E703F18043A3F53C331A6842F48022C6
:100E4C001A601A6842F480321A60D4E7FFF7BAF9D4
:100E5C000546694B1B6813F4003FA2D0FFF7B2F9AB
:100E6C00401B6428F5D9032061E1634B5B6813F4E4
:100E7C00803FA5D1604B1B6813F0020F04D023698F
:100E8C00012B01D0012052E15B4A136823F0F803D7
:100E9C00616943EAC1031360236813F0080F32D071
:100EAC00A369002B5BD0564B01221A60FFF78AF91D
:100EBC000546514B5B6A13F0020F21D1FFF782F903
:100ECC00401B0228F5D9032031E14B4A136823F06B
:100EDC00F803616943EAC1031360DDE7474B002265
:100EEC001A60FFF76FF90546434B1B6813F0020FAE
:100EFC00D2D0FFF767F9401B0228F5D9032016E181
:100F0C000120FFF701FF236813F0040F00F0988015
:100F1C00394BDB6913F0805F33D1374BDA6942F020
:100F2C008052DA61DB6903F080530193019B012548
:100F3C00344B1B6813F4807F25D0E368012B36D02B
:100F4C00002B4CD103F1804303F504331A6A22F0D1
:100F5C0001021A621A6A22F004021A622CE0284B6F
:100F6C0000221A60FFF72EF90546234B5B6A13F03B
:100F7C00020FC8D0FFF726F9401B0228F5D9032031
:100F8C00D5E00025D4E71F4A136843F4807313603F
:100F9C00FFF718F906461B4B1B6813F4807FCCD166
:100FAC00FFF710F9801B6428F5D90320BFE0124A23
:100FBC00136A43F001031362E3687BB3FFF702F992
:100FCC0006460D4B1B6A13F0020F38D1FFF7FAF8E7
:100FDC00801B41F288339842F3D90320A7E0052BFC
:100FEC0012D0054B1A6A22F001021A621A6A22F018
:100FFC0004021A62E0E700BF001002400000424207
:10100C0080044242007000404C4B1A6A42F00402C9
:10101C001A621A6A42F001021A62CDE7FFF7D2F89F
:10102C000646464B1B6A13F0020F08D0FFF7CAF8AE
:10103C00801B41F288339842F3D9032077E0E5B95D
:10104C00E369002B72D03D4A526802F00C02082A68
:10105C0056D0022B17D03A4B00221A60FFF7B2F889
:10106C000446364B1B6813F0007F47D0FFF7AAF8F5
:10107C00001B0228F5D9032059E0304AD36923F02C
:10108C008053D361DCE72E4B00221A60FFF79AF8ED
:10109C0005462A4B1B6813F0007F06D0FFF792F829
:1010AC00401B0228F5D9032041E0236AB3F5803FA9
:1010BC001AD022494B6823F47413226A606A0243E3
:1010CC0013434B601E4B01221A60FFF77BF804465A
:1010DC001A4B1B6813F0007F0ED1FFF773F8001B3F
:1010EC000228F5D9032022E0144A536823F4003374
:1010FC00A1680B435360DCE7002018E0002016E0E9
:10110C00012B16D00D4B5B6803F48031226A91429F
:10111C0001D001200BE003F47013626A93420AD0F1
:10112C00012004E001207047012000E0002002B003
:10113C0070BD0120FBE70020F9E700BF0010024062
:10114C006000424210B487B0164C94E80F000DF1C9
:10115C00180C0CE90F00238AADF80430124B5B68B5
:10116C0003F00C02082A1AD1C3F38342624412F82A
:10117C00102C13F4803F05D10C4800FB02F007B093
:10118C0010BC7047084B5B68C3F34043634413F8CF
:10119C00143C074800FB02F0B0FBF3F0EFE7044807
:1011AC00EDE700BFB04F00080010024000093D0001
:1011BC0000127A00002800F0A38070B50446524B50
:1011CC001B6803F007038B420CD24F4A136823F0C1
:1011DC0007030B431360136803F007038B4201D022
:1011EC00012070BD236813F0020F17D013F0040F09
:1011FC0004D0464A536843F4E0635360236813F009
:10120C00080F04D0414A536843F4605353603F4A7B
:10121C00536823F0F003A068034353600D46236822
:10122C0013F0010F31D06368012B20D0022B25D095
:10123C00364A126812F0020F64D034494A6822F020
:10124C00030213434B60FEF7BDFF06462F4B5B6852
:10125C0003F00C036268B3EB820F16D0FEF7B2FFFB
:10126C00801B41F288339842F0D90320B9E7274A12
:10127C00126812F4003FE0D10120B2E7234A126851
:10128C0012F0007FD9D10120ABE71F4B1B6803F094
:10129C000703AB420CD91C4A136823F007032B43FA
:1012AC001360136803F00703AB4201D0012098E7E9
:1012BC00236813F0040F06D0144A536823F4E06338
:1012CC00E1680B435360236813F0080F07D00F4AF3
:1012DC00536823F46053216943EAC1035360FFF759
:1012EC0031FF0A4B5B68C3F30313094AD35CD84044
:1012FC00084B1860084B1868FEF722FF002070E7B7
:10130C000120704701206CE70020024000100240D1
:10131C00105200085C0100200400002070B582B05F
:10132C000446036813F0010F34D03E4BDB6913F015
:10133C00805F48D13B4BDA6942F08052DA61DB695D
:10134C0003F080530193019B0125374B1B6813F469
:10135C00807F3AD0334B1B6A13F4407311D0626810
:10136C0002F440729A420CD02E4A136A23F4407055
:10137C002E4901260E6000260E60106213F0010F3C
:10138C0037D1284A136A23F4407361680B43136204
:10139C00002D3FD1236813F0020F06D0214A536869
:1013AC0023F44043A1680B435360236813F0100FE0
:1013BC0035D01C4A536823F48003E1680B43536017
:1013CC00002002B070BD0025BFE7174A136843F434
:1013DC0080731360FEF7F6FE0646134B1B6813F47E
:1013EC00807FB7D1FEF7EEFE801B6428F5D9032071
:1013FC00E7E7FEF7E7FE06460A4B1B6A13F0020FFF
:10140C00BFD1FEF7DFFE801B41F288339842F3D93F
:10141C000320D6E7D36923F08053D361BAE70020C9
:10142C00CFE700BF00100240007000404004424271
:10143C0084B001A880E80E00002004B07047B0F81A
:10144C00403043F43F43A0F8403000207047B0F8E0
:10145C00403023F47C535B045B0CA0F8403000203C
:10146C0070470020704784B038B505AC84E80E0096
:10147C000123A0F840300024A0F84040A0F84440DC
:10148C00A0F85040FFF7DBFF2046BDE8384004B021
:10149C00704730B403460C7830F8242092B222F412
:1014AC00EC4222F0700292B2C87803285AD8DFE8D6
:1014BC0000F04D550251002048F280052A4323F8D4
:1014CC0024200C7833F8242092B222F4E04222F04B
:1014DC00700222432A4323F824200A7B002A40F07E
:1014EC00B1804A78002A4ED0B3F850201A440C78B8
:1014FC0002EB0412CC8864086400A2F800440C7857
:10150C0033F8242012F0400F0CD033F8242092B280
:10151C0022F4E04222F0700242F4004242F0C00297
:10152C0023F82420CA78012A1ED0097833F8212008
:10153C0092B222F4E04222F0400282F0200242F405
:10154C00004242F0800223F8212060E042F4007255
:10155C000020B1E742F4C0620020ADE742F48062A3
:10156C000020A9E70120A7E7097833F8212092B2DF
:10157C0022F4E04222F0400242F4004242F08002A7
:10158C0023F8212043E0B3F850201A440C7802EBE6
:10159C000412CC8864086400A2F80844B3F8502004
:1015AC001A440C7802EB04120C6994BBB2F80C448C
:1015BC00A4B224F4F844A4B2A2F80C44B2F80C443B
:1015CC0044F40044A2F80C440C7833F8242012F4B0
:1015DC00804F0CD033F8242092B222F4E04222F057
:1015EC00700242F4404242F0800223F82420097831
:1015FC0033F8212092B222F4804222F0700282F45D
:10160C00405242F4004242F0800223F8212030BCC8
:10161C0070473E2C09D8650814F0010F00D0013535
:10162C00AD02ADB2A2F80C54CEE7650914F01F0F51
:10163C0000D1013D6FEAC5646FEA5444A4B2A2F82C
:10164C000C44C1E70C7833F8242092B222F4E04227
:10165C0022F0700242F4014242F0800223F824206E
:10166C00B3F850201A440C7802EB04120C8964086D
:10167C006400A2F80044B3F850201A440C7802EB32
:10168C0004124C8964086400A2F808444A78002AC1
:10169C004ED10C7833F8242012F4804F0CD033F850
:1016AC00242092B222F4E04222F0700242F4404232
:1016BC0042F0800223F824200C7833F8242012F016
:1016CC00400F0CD033F8242092B222F4E04222F0E6
:1016DC00700242F4004242F0C00223F824200C783D
:1016EC0033F8242092B222F4E04222F0700242F449
:1016FC00004242F0C00223F824200D7833F8252054
:10170C0092B222F4804222F0700282F4405248F2EB
:10171C008004224323F82520097833F8212092B243
:10172C0022F4E04222F04002224323F821206EE70B
:10173C000C7833F8242012F4804F0CD033F824208A
:10174C0092B222F4E04222F0700242F4404242F0A3
:10175C00800223F824200C7833F8242012F0400F58
:10176C000CD033F8242092B222F4E04222F0700222
:10177C0042F4004242F0C00223F824200C7833F8E3
:10178C00242092B222F4E04222F0700242F4404251
:10179C0042F0800223F82420CA78012A1ED00C784B
:1017AC0033F8242092B222F4E04222F0400282F07C
:1017BC00200242F4004242F0800223F824200978EF
:1017CC0033F8212092B222F4804222F0700242F4CB
:1017DC00004242F0800223F8212018E70C7833F8FD
:1017EC00242092B222F4E04222F0400242F4004261
:1017FC0042F0800223F82420E1E70B7B002B46D13A
:10180C004B7813B30A7830F8223013F0400F0CD019
:10181C0030F822309BB223F4E04323F0700343F4FE
:10182C00004343F0C00320F822300A7830F822300D
:10183C009BB223F4E04323F0400343F4004343F012
:10184C00800320F82230002070470A7830F82230CC
:10185C0013F4804F0CD030F822309BB223F4E043C9
:10186C0023F0700343F4404343F0800320F822300C
:10187C000A7830F822309BB223F4804323F07003B3
:10188C0043F4004343F0800320F82230DBE710B42C
:10189C004B78002B4ED10A7830F8223013F4804F5D
:1018AC000CD030F822309BB223F4E04323F07003C9
:1018BC0043F4404343F0800320F822300A7830F898
:1018CC00223013F0400F0CD030F822309BB223F4AE
:1018DC00E04323F0700343F4004343F0C00320F8CB
:1018EC0022300A7830F822309BB223F4E04323F004
:1018FC00700343F4004343F0C00320F822300B780C
:10190C0030F8232092B222F4804222F0700248F286
:10191C008004224320F823200A7830F822309BB22E
:10192C0023F4E04323F04003234320F8223000202B
:10193C0010BC70470A7830F8223013F4804F0CD06A
:10194C0030F822309BB223F4E04323F0700343F4CD
:10195C00404343F0800320F822300A7830F82230DC
:10196C0013F0400F0CD030F822309BB223F4E0433C
:10197C0023F0700343F4004343F0C00320F82230FB
:10198C000A7830F822309BB223F4E04323F0700342
:10199C0043F4404343F0800320F822300B7830F8B6
:1019AC00232092B222F4E04222F0400248F280045A
:1019BC00224320F823200A7830F822309BB223F4FB
:1019CC00804323F07003234320F82230AFE74B7899
:1019DC008BB90A7830F822309BB223F4804323F081
:1019EC00700383F4805343F4004343F0800320F8E6
:1019FC002230002070470A7830F822309BB223F452
:101A0C00E04323F0400383F0100343F4004343F01E
:101A1C00800320F82230ECE70B7B002B4BD14B786A
:101A2C0033B30A7830F8223013F0400F0CD030F872
:101A3C0022309BB223F4E04323F0700343F40043C1
:101A4C0043F0C00320F82230CB78012B33D00A7836
:101A5C0030F822309BB223F4E04323F0400383F0B0
:101A6C00200343F4004343F0800320F8223022E0AB
:101A7C000A7830F8223013F4804F0CD030F8223032
:101A8C009BB223F4E04323F0700343F4404343F050
:101A9C00800320F822300A7830F822309BB223F4ED
:101AAC00804323F0700383F4405343F4004343F02A
:101ABC00800320F822300020704711B98023A0F851
:101ACC004C30002070470020704700207047B0F861
:101ADC00440070470020704701335B0800EB420262
:101AEC0002F5806263B110B40C78487844EA0024A3
:101AFC0022F8044B0231013B002BF5D110BC70478E
:101B0C00704770B54E78012E33D08A690B699A42B2
:101B1C0040F2FC80D21A8A610A7B002A40F01381C1
:101B2C00B0F8502002440C7802EB0412002B40F069
:101B3C00F180B2F80C349BB223F4F8439BB2A2F8B8
:101B4C000C34B2F80C3443F40043A2F80C340A7889
:101B5C0030F822309BB223F4804323F0700383F4DB
:101B6C00405343F4004343F0800320F8223000201C
:101B7C0070BD8A690B699A4222D9D21A8A610C46C5
:101B8C0005460A7B02B30A7830F8221011F0400F98
:101B9C0072D0002E40D1B0F85010014401EB02126B
:101BAC000BBBB2F80C1489B221F4F84189B2A2F83B
:101BBC000C14B2F80C1441F40041A2F80C1433E0EC
:101BCC0000238B611346DAE79EB23346CA88496913
:101BDC00FFF782FFB5F850302B44227803EB021349
:101BEC00A3F8046437E03E2B09D8590813F0010F11
:101BFC0000D00131890289B2A2F80C1414E0590901
:101C0C0013F01F0F00D101396FEAC1616FEA514126
:101C1C0089B2A2F80C1407E0B0F85010014401EBA3
:101C2C00021299B2A2F80C1462899BB2616928461F
:101C3C00FFF752FF6378002B57D1227835F822300A
:101C4C009BB223F4E04323F0700343F4004343F0CE
:101C5C00C00325F82230227835F822309BB223F4C9
:101C6C00E04323F0400383F0300343F4004343F09C
:101C7C00800325F822307AE76EBBB0F8501001448F
:101C8C0001EB021273B9B2F8041489B221F4F841D1
:101C9C0089B2A2F80414B2F8041441F40041A2F879
:101CAC00041420E03E2B09D8590813F0010F00D082
:101CBC000131890289B2A2F8041414E0590913F015
:101CCC001F0F00D101396FEAC1616FEA514189B22E
:101CDC00A2F8041407E0B0F85010014401EB021212
:101CEC0099B2A2F8041422899FE7012BB3D1227870
:101CFC0035F822309BB223F4E04323F0700343F415
:101D0C00404343F0800325F82230A4E700238B6185
:101D1C00134601E73E2B09D85C0813F0010F00D0E5
:101D2C000134A402A4B2A2F80C4410E75C0913F02D
:101D3C001F0F00D1013C6FEAC4646FEA5444A4B293
:101D4C00A2F80C4403E7A6B9B0F8502002440C7872
:101D5C0002EB041233BBB2F80444A4B224F4F844EA
:101D6C00A4B2A2F80444B2F8044444F40044A2F827
:101D7C0004444A78002A47D1B0F8502002440C7829
:101D8C0002EB04123BBBB2F80C349BB223F4F843C5
:101D9C009BB2A2F80C34B2F80C3443F40043A2F812
:101DAC000C34D4E63E2B09D85C0813F0010F00D09C
:101DBC000134A402A4B2A2F80444DAE75C0913F0DB
:101DCC001F0F00D1013C6FEAC4646FEA5444A4B203
:101DDC00A2F80444CDE73E2B09D85C0813F0010FA0
:101DEC0000D00134A402A4B2A2F80C44AFE65C0902
:101DFC0013F01F0F00D1013C6FEAC4636FEA534329
:101E0C009BB2A2F80C34A2E6012A7FF4A0AEB0F883
:101E1C00502002440C7802EB04129BB2A2F80C3452
:101E2C0095E630B45D0800EB420202F5806207E0F3
:101E3C0032F8044BA4B20C70240A4C700231013DF0
:101E4C00002DF5D113F0010F01D013880B7030BCAD
:101E5C00704710B5D0F8B842D0F8BC325BB194F8EA
:101E6C000002FF2807D09B6894F80122214698476E
:101E7C00FF2384F80032002010BD000043230380B0
:101E8C000048704708000020432303800048704737
:101E9C004C00002043230380004870479000002032
:101EAC000A23038000487047D400002038B504464C
:101EBC00D0F8B85202F008FFC5F80C02D4F8B832CA
:101ECC004BB1D4F8BC32DB6805F50371D5F80402CC
:101EDC009847002038BD0220FCE738B5D0F8B8226E
:101EEC00D0F8C052EAB101EB8104A3000344DB69D2
:101EFC003BB105EB4115AD6BB3FBF5F405FB1433AE
:101F0C001BB10020C2F8140238BD01EB8102930012
:101F1C0003440024DC612346224602F0C5FE204621
:101F2C00F2E70220F0E770B582B005460C46D0F817
:101F3C00B86200238DF80730ADF804300B7813F03D
:101F4C00600227D0202A56D1CA883AB9D0F8BC32C0
:101F5C009B6800224878984700204FE013F0800FD0
:101F6C000CD0D0F8BC329B68314660789847E28838
:101F7C003146284600F0AEFD00203FE04B7886F855
:101F8C0000328B7986F80132CA88314600F0B7FDF1
:101F9C00002033E04B780A2B14D00B2B21D01BB133
:101FAC0000F077FA022029E090F89C32032B05D13F
:101FBC00022201A900F08EFD00201FE000F069FA5A
:101FCC0002201BE090F89C32032B06D101220DF16C
:101FDC00070100F07FFD002010E000F05AFA02200B
:101FEC000CE090F89C32032B01D1002006E000F0AD
:101FFC0050FA022002E000F04CFA022002B070BD50
:10200C0038B50446812102F01CFE0025E562012151
:10201C00204602F016FEC4F86C518221204602F0D4
:10202C0010FE2564D4F8B8324BB1D4F8BC325B68DE
:10203C009847D4F8B80202F051FEC4F8B852002008
:10204C0038BD38B50446037CA3BB4FF400730222A1
:10205C00812102F0EBFD0125E5624FF400730222B1
:10206C002946204602F0E2FDC4F86C5108230322F5
:10207C008221204602F0DAFD012323644FF407701D
:10208C0002F028FE0546C4F8B80268B3D4F8BC3296
:10209C001B6898470023C5F81432C5F81832237C06
:1020AC00C3B14023D5F804220121204602F004FEDE
:1020BC00002038BD40230222812102F0B7FD01250A
:1020CC00E562402302222946204602F0AFFDC4F807
:1020DC006C51CBE74FF40073D5F804220121204654
:1020EC0002F0EAFD0020E4E70120E2E719B1C0F8B4
:1020FC00BC120020704702207047D0F8B832C3F8E9
:10210C000812C3F8102200207047D0F8B832C3F878
:10211C00041200207047D0F8B822A2B108B5D2F84A
:10212C0014320BB1012008BD0123C2F81432D2F8CD
:10213C0010320363B2F81032D2F80822812102F077
:10214C00B3FD0020EFE702207047D0F8B8229AB117
:10215C0008B5037C3BB14023D2F80422012102F0E4
:10216C00ABFD002008BD4FF40073D2F8042201210E
:10217C0002F0A2FD0020F5E70220704798B108B5E7
:10218C000346D0F8B40210B10020C3F8B40209B170
:10219C00C3F8B0121846012380F89C32027002F08A
:1021AC00FBFC002008BD0220704719B1C0F8B41226
:1021BC00002070470220704708B502F02FFD002068
:1021CC0008BD08B5D0F8B43233B11B68984708B9CC
:1021DC00002008BD0220FCE70220FAE708B5D0F881
:1021EC00B4325B689847002008BD38B5044600F54A
:1021FC002A75284600F039F90123C4F89432B4F852
:10220C00AE32C4F8983294F8A81201F01F03012BD7
:10221C000ED03BB1022B10D001F08001204602F011
:10222C0018FD03E02946204600F0CDFA002038BD09
:10223C002946204600F0FBFAF8E72946204600F034
:10224C0026FBF3E738B50446A1BB1046D4F894320C
:10225C00032B03D0052B24D0002037E0D4F86031B9
:10226C00D4F8642193420DD99B1AC4F860319A4278
:10227C0006D99AB20146204600F050FC002025E019
:10228C0092B2F7E7D4F8B4321B692BB194F89C22C4
:10229C00032A01D120469847204600F047FC002035
:1022AC0014E00025C4F894522946204602F0D1FCD3
:1022BC0028460BE00A46D0F8B4329B693BB190F843
:1022CC009C12032905D111469847002038BD0220E5
:1022DC00FCE70220FAE710B50446002953D110465A
:1022EC00D4F89432022B0CD0042B00D01BB98021D3
:1022FC00204602F0AEFC94F8A032012B3FD0002017
:10230C004DE0236A626A93421DD8E169B1FBF2F396
:10231C0002FB13132BB98A4203D8D4F89832994292
:10232C001FD3D4F8B432DB682BB194F89C22032A67
:10233C0001D1204698478021204602F08AFC204695
:10234C0000F0FFFBD7E79A1A226292B201462046B0
:10235C0000F0CDFB00231A461946204602F0ACFCD7
:10236C00C9E700221146204600F0C1FB0021C4F849
:10237C0098120B460A46204602F09EFCBBE7002052
:10238C0084F8A0020BE00A46D0F8B4325B693BB18A
:10239C0090F89C12032905D111469847002010BDD6
:1023AC000220FCE70220FAE770B504464023002225
:1023BC00114602F03BFC0125C4F858514026C4F8E4
:1023CC006461334600228021204602F02FFCA56177
:1023DC00666284F89C520023C4F894326360C4F89B
:1023EC00A432D4F8B8322BB1D4F8B4325B680021E3
:1023FC0020469847002070BD01740020704790F86B
:10240C009C3280F89D32042380F89C320020704767
:10241C0090F89C32042B01D00020704790F89D322C
:10242C0080F89C32F8E708B590F89C32032B01D069
:10243C00002008BDD0F8B432DB69002BF8D09847E7
:10244C00F6E7002302E00133DBB201300278002A08
:10245C00F9D11846704708B54B88012B00D008BD40
:10246C00C0F8A43200F062FBF9E70B7803704B78EC
:10247C0043708B78CA7803EB022343800B794A793B
:10248C0003EB022383808B79CA7903EB0223C3808D
:10249C00704710B50446802102F0DBFB002120467A
:1024AC0002F0D7FB10BD30B583B005460C460023B7
:1024BC00ADF806304A88130A013B062B00F2A480C3
:1024CC00DFE803F004182CA2A2869300D0F8B032F7
:1024DC001B680DF10601007C9847BDF806201AB167
:1024EC00E388002B40F09480E388002B00F09A8066
:1024FC0003B030BD037C43B9D0F8B4329B6A0DF104
:10250C000600984702234370E7E7D0F8B432DB6A41
:10251C000DF10600984702234370DEE7D2B2052A7C
:10252C0052D8DFE802F003101D2A3744D0F8B0323D
:10253C005B6823B10DF10601007C9847CDE721467D
:10254C00FFF7A7FFD4E7D0F8B0329B6823B10DF1A9
:10255C000601007C9847C0E72146FFF79AFFC7E7C2
:10256C00D0F8B032DB6823B10DF10601007C98473E
:10257C00B3E72146FFF78DFFBAE7D0F8B0321B69FD
:10258C0023B10DF10601007C9847A6E72146FFF721
:10259C0080FFADE7D0F8B0325B6923B10DF10601D5
:1025AC00007C984799E72146FFF773FFA0E7D0F826
:1025BC00B0329B6923B10DF10601007C98478CE782
:1025CC002146FFF766FF93E72146FFF762FF8FE78F
:1025DC00037C33B9D0F8B4325B6B0DF1060098472D
:1025EC007BE72146FFF755FF82E7037C43B9D0F820
:1025FC00B4321B6B0DF106009847072343706CE750
:10260C002146FFF746FF73E72146FFF742FF6FE7CE
:10261C009A4228BF1A46ADF806200146284600F01B
:10262C0059FA61E7284600F081FA61E738B50446AB
:10263C008B88F3B9CB88E3B94B887F2B19D803F07F
:10264C007F0590F89C32032B0CD080F89E522946C3
:10265C0002F022FB204600F069FA35B1022384F81F
:10266C009C3209E0FFF715FF06E0012384F89C3249
:10267C0002E02046FFF70DFF38BD000038B50446D8
:10268C000D468978284B197001290ED890F89C3288
:10269C00022B0ED0032B21D02946FFF7FAFE224B3A
:1026AC0019782046FFF79AFD02E02946FFF7F1FE64
:1026BC0038BD81B14160032380F89C32FFF781FD66
:1026CC00022803D0204600F031FAF1E729462046D3
:1026DC00FFF7DFFEECE700F029FAE9E789B1436880
:1026EC0099421DD0D9B2FFF779FD0F4B1978616073
:1026FC002046FFF766FD02280DD0204600F016FAA2
:10270C00D6E7022380F89C324160FFF767FD204634
:10271C0000F00CFACCE729462046FFF7BAFEC7E7D3
:10272C0000F004FAC4E700BF4002002008B5CB88D3
:10273C00012B0BD190F89C329BB1022B09D9032BA6
:10274C000FD10122011D00F0C5F901E0FFF7A1FE38
:10275C0008BD0146002341F8083F012200F0BAF9F8
:10276C00F6E7FFF796FEF3E708B590F89C32013BCD
:10277C00022B12D8CB88022B0CD10123C360D0F8CA
:10278C00A4320BB10323C360022200F10C0100F050
:10279C00A1F908BDFFF77DFEFBE7FFF77AFEF8E72E
:1027AC0008B590F89C32013B022B09D84B88012BC1
:1027BC0000D008BD0023C0F8A43200F0B7F9F8E748
:1027CC00FFF767FEF5E708B50B7803F06003202BE5
:1027DC0005D0402B03D043B1FFF75BFE03E0D0F8EC
:1027EC00B4329B689847002008BD4B78092B1BD846
:1027FC00DFE803F011171A141A08051A0E0BFFF76D
:10280C0052FEF0E7FFF712FFEDE7FFF737FFEAE7BD
:10281C00FFF78CFFE7E7FFF7A7FFE4E7FFF71BFEE7
:10282C00E1E7FFF7BDFFDEE7FFF733FEDBE738B587
:10283C0005460C460B7803F06003202B06D0402B8A
:10284C0004D01BB1FFF725FE002038BD95F89C3253
:10285C00013B022B16D82379012B0ED8D5F8B432B4
:10286C009B68214628469847E388002BECD100282A
:10287C00EAD1284600F05AF9E6E721462846FFF748
:10288C0008FEE1E721462846FFF703FEDCE738B5F2
:10289C0004468A880B7803F06003202B08D0D0B252
:1028AC00402B05D05BB12046FFF7F3FD002005E07F
:1028BC00D4F8B4329B6820469847002038BD202BB2
:1028CC0005D1D4F8B4329B6820469847F6E74B788C
:1028DC00012B32D0002B5ED0032B40F0D88094F823
:1028EC009C32022B06D0032B16D02046FFF7D1FDCD
:1028FC000020E3E708B1802804D12046FFF7C9FD8A
:10290C000020DBE70146204602F0A3F98021204697
:10291C0002F09FF90020D1E74B8823B918B1802829
:10292C0001D0CB8823B1204600F000F90020C5E788
:10293C000146204602F08DF9F5E794F89C32022B03
:10294C0006D0032B16D02046FFF7A3FD0020B5E7D9
:10295C0008B1802804D12046FFF79BFD0020ADE78D
:10296C000146204602F075F98021204602F071F9EB
:10297C000020A3E74B88002B40F08E8010F07F0FD7
:10298C0004D1204600F0D2F8002097E701462046FB
:10299C0002F067F9F5E794F89C32022B06D0032B72
:1029AC002AD02046FFF775FD002087E708B1802864
:1029BC0013D112F0800F15D100F07F0000EB8000D6
:1029CC00830003F5A8712144043100250D60022217
:1029DC00204600F07FF8284670E72046FFF759FDA7
:1029EC0000206BE700F07F0000EB8000830003F118
:1029FC00100121440431E8E752B2002A1FDB00F039
:102A0C000F0303EB83039D002544D5F8583123B302
:102A1C00002A27DB00F07F0202EB8202930003F511
:102A2C00A8752544043508B1802825D100232B60D6
:102A3C0002222946204600F04DF800203EE700F027
:102A4C000F0303EB83039D002544AB69002BDFD1FF
:102A5C002046FFF71EFD002030E72046FFF719FD4A
:102A6C0000202BE700F07F0202EB8202930003F1BF
:102A7C00100525440435D6E70146204602F0F9F846
:102A8C0010B101232B60D3E700232B60D0E7204645
:102A9C00FFF7FFFC002011E700200FE7C8B170B56D
:102AAC000D4616460446FFF7CCFC01304000308042
:102ABC00287003236B70022307E001345A1CD2B236
:102ACC00E9540233DBB20021A95421780029F4D156
:102ADC0070BD704710B513460222C0F89422C36132
:102AEC0003620A46002102F0DFF8002010BD08B591
:102AFC0013460A46002102F0D7F8002008BD10B595
:102B0C0013460322C0F89422C0F85C31C0F860313F
:102B1C000A46002102F0D0F8002010BD08B513467B
:102B2C000A46002102F0C8F8002008BD08B50423AD
:102B3C00C0F8943200231A46194602F0B5F800206A
:102B4C0008BD08B50523C0F8943200231A4619466F
:102B5C0002F0B2F8002008BD38B5174AFF2382F8FE
:102B6C002C30022382F8303082F8313082F8323047
:102B7C0082F83330002382F83430104B10495960FE
:102B8C003C32104B03E019781170013201330E49BD
:102B9C008B42F8D30D4A141FFC21204601F0FCFC9B
:102BAC000B4D284601F016FC4FF480722946204646
:102BBC0001F04AFC38BD00BFFC070020EC070020E8
:102BCC0002010001C44F0008E44F00082C0800204B
:102BDC0000FC00082DE9F843A24B1B780BB9BDE8AB
:102BEC00F883A14B186801F099FB06469D4B9B6935
:102BFC0013F0060F47D09C498C68444051F8B03B09
:102C0C001C400123002215460AE00868102801DC4C
:102C1C0001300860086810280DD001325B000431C7
:102C2C001F2A31DC904800681842F6D02342ECD0C1
:102C3C0000200860F1E78B48D0F83001805C33420B
:102C4C000FD0DFF824C2DCF80C701F43CCF80C70EA
:102C5C000228E2D172B6834FF8691843F86162B664
:102C6C00DBE71D43DFF800C2DCF80C7027EA030732
:102C7C00CCF80C700128D0D172B67A4FF869184391
:102C8C00F86162B6C9E70025764B9B6913F0200FFB
:102C9C0029D0754B93F82D30012B33D8724B93F808
:102CAC002D30E3B9704991F82C200132D2B281F861
:102CBC002C20072A03D90A46002182F82C106A4AD4
:102CCC00D16941F47F01D16192F82C00C0F1070069
:102CDC00012101FA00F0916941EA0041916101334F
:102CEC00614A82F82D305F4B9B6913F0020F00F0A4
:102CFC007F815C4BD3F82C714FF001084FF0000929
:102D0C005A4C65E0584C002784F82D70206901F06E
:102D1C0005FB000EC1B294F82C30524A1A4492F8BA
:102D2C0010C08CEA010C1174DB00143304EB430368
:102D3C000633012239460AE01C78042C01D80134F0
:102D4C001C701C78042C0AD0013152000233072964
:102D5C00A4DC1CEA020FEFD000241C70F4E7104234
:102D6C00F2D0414C94F82C703E4C3C44277A1743DB
:102D7C0027725C78002CE7D004F00704012707FACF
:102D8C0004F4384FB7F804E044EA0E04BC80DBE7E7
:102D9C000123637001F092FCA0606168324BDA6928
:102DAC000A43DA6161689A690A439A6130E013F068
:102DBC00080F2DD00423637001F080FCA06027E085
:102DCC000023237009F101094FEA48081034033736
:102DDC00B9F10F0F00F30C8163784BBB214A928839
:102DEC0012EA080F02D1E2682A4221D03B7813F094
:102DFC000C0FCDD013F0040FD9D00523637061688C
:102E0C00194BDA690A43DA6161689A690A439A6173
:102E1C003B7813F0020FD3D0124B9B8813EA080FA8
:102E2C00CED023EA08030F4A938001232370C9E70D
:102E3C00012B1DD0022B60D0032B00F09480042BAF
:102E4C0000F0A980052B00F0C080002BBAD1064BF6
:102E5C009B8813EA080FB5D06168034AD3690B430A
:102E6C00D361AFE7FC07002078040020A805002000
:102E7C003B7813F0200F0FD0674B9B8813EA080F99
:102E8C000AD1E3680BB1B34306D16168634AD369D5
:102E9C000B43D361002363706378012B92D101F053
:102EAC000DFCA368C01A7B7883428BDC61685B4A9B
:102EBC00D3690B43D3613B7813F01C0F15D1BB784E
:102ECC0013F00F0F09D0237823B103236370002371
:102EDC00A37006E00223637003E0032363700023F6
:102EEC00A37001F0EBFBA0606CE713F0180FF8D0A7
:102EFC00032363700023A370F3E7474B9B8813EA0B
:102F0C00080F05D1E3680BB1B34301D10123237042
:102F1C0023783BB16168414AD3690B43D3610023E9
:102F2C0063704FE701F0CAFBA368C01A102811DCCC
:102F3C00BB7803F00F03C3F110038342BFF642AF1B
:102F4C006168364BDA690A43DA6161689A690A4347
:102F5C009A6137E76168314AD3690B43D36101F059
:102F6C00ADFBA0602EE701F0A9FBA368C01A7B782B
:102F7C0083423FF727AFA3781033DBB2A370BA7844
:102F8C0002F07002934202D3002363701AE701F03F
:102F9C0095FBA06016E701F091FBA368C01ABB7803
:102FAC005B0003F01E0383423FF70CAF01236370F9
:102FBC0001F084FBA0606168184BDA690A43DA619E
:102FCC0061689A690A439A61FCE6134B9B8813EA81
:102FDC00080F7FF4F7AEE36813B1B3437FF4F2AE9E
:102FEC0061680E4AD3690B43D36100236370E9E631
:102FFC00094B9B6913F0060F3FF4F1AD72B606480E
:10300C00C36906494A6923EA0203CC682240134388
:10301C00C36162B68E60E2E5FC07002078040020F4
:10302C001F281FD810B401F00F0411F0800F0CD121
:10303C00012202FA00F0184B03EB0413D3F83C21E5
:10304C000243C3F83C2110BC7047012202FA00F085
:10305C00114B03EB0413D3F83C2122EA0002C3F812
:10306C003C21F0E70D4B9B6913F0200F13D049B2B4
:10307C00002909DB01F00F0141F080010C38064BEF
:10308C0003EB4000C17170470C38034B03EB40005D
:10309C000023C3717047704778040020FC070020A0
:1030AC00254A9388184002F59872012100233BE0D1
:1030BC005C0004F0180403F003052C43012505FA09
:1030CC0004F4D56825EA0405D560013310324900B3
:1030DC000F2B24DC0842F8D0002454705668164D8F
:1030EC00EC693443EC61154CD4F82C5103EB4304DC
:1030FC002C5D14F0010FDBD05C0004F0180403F01D
:10310C0003052C4304F12C060B4D002745F82670C3
:10311C00012505FA04F4D5682543D560D5E7F0BC44
:10312C0070470133103249000F2B03DC0842F8D0F2
:10313C00F0B4D1E7704700BF78040020FC070020F2
:10314C00F0B4104BD3F830410F490123002208E0B2
:10315C000E4E756925EA030575610132043101349F
:10316C005B001F2A0CDC1D460342F6D000260E60C5
:10317C002678002EECD1054F7E6935437D61ECE756
:10318C00F0BC7047FC0700202805002078040020C4
:10319C008E4BD3F83031D3B1704700244C70901063
:1031AC0002F0030303EBC0030433012000FA03F322
:1031BC004B60CC60024410310F2AEEDD844A0023B0
:1031CC0013609380D36013611D461E460DE070B5ED
:1031DC0084B000227F49EFE7D900FF2202FA01F107
:1031EC007B4802680A4302600133032B5FDC774A99
:1031FC001A4492F83020022AEED0012A0CD0042A6C
:10320C001CD0062A32D0032A01D0072AECD1D900CF
:10321C00FF228A401543E7E7DC00F022A240154369
:10322C009A000F2000FA02F269498E8832438A8094
:10323C00A0400A68104308600126D5E7022B03D092
:10324C00624A02219170CFE7604A92F83320052A36
:10325C00F6D15F4A002182F82C1082F82D1045F42B
:10326C007F05116941F07F411161BDE73BB1012B35
:10327C0011D0032B0FD0554A03219170B4E7D8001D
:10328C00EF2202FA00F1524C22680A43226010220B
:10329C0082401543A8E7D800F72202FA00F14C4C03
:1032AC0022680A4322600822824015439CE70024CE
:1032BC000EE0474A126913421CD0002301930223EB
:1032CC0002936946444B53F83400FCF7EBFF01348E
:1032DC001F2C16DC404B03EBC4039B8800933C4B28
:1032EC001A680123A3401A42E3D00023019301235F
:1032FC000293E6E72B42EAD00123019302230393C6
:10330C00DFE7334C20682369184301F007F8E060CD
:10331C002E4AD2F83831C2F830312033C2F8383165
:10332C0026B1C2F82C313033C2F8383100220BE010
:10333C00002301F8013B254BD3F8303104F1080090
:10334C0003448B42F4D80132032A0BDC1F4B134489
:10335C0093F83030012BF6D11C4BD3F83011D4003C
:10336C002144E8E7194B9B6913F0200F19D14FF654
:10337C00FF70FFF795FE164B1868FFF7E1FE04B0DF
:10338C0070BD02F11401124B03EB41030021997142
:10339C00D97101323F2AF4DD0C4BD3F82C210023D8
:1033AC0003E00022F6E7013303320F2BDFDC117848
:1033BC0011F0100FF7D0917863F07F0001F1140435
:1033CC00034901EB4401C871EDE700BFFC07002085
:1033DC0078040020A8050020E44F0008034B9A69EC
:1033EC0010439861DA691143D96170477804002061
:1033FC0010B5044CE169A06900F02EFF0023A36115
:10340C00E36110BD78040020164A0023137053703A
:10341C0093709360D360136110E0072A19D00121D7
:10342C0001FA03F00F4A517801435170D800FF2183
:10343C0001FA00F0D1680143D1600133032B10DC99
:10344C00094A1A4492F83020032AE6D0072AF4D10C
:10345C00E3E7012202FA03F1024882780A43827000
:10346C00DDE77047A8060020FC070020014B012275
:10347C001A707047A806002038B52C4B1B78002B0F
:10348C0041D02B4B1B78002B3AD0294B00221A70C1
:10349C00264BDA7912F0010F0CD0254BDB6812F0B9
:1034AC00020F02D0224A12691343214A95681D4328
:1034BC0000240BE00023F2E7E30025FA03F0C0B28E
:1034CC00FF2199409840FFF789FF0134032C17DC4A
:1034DC00174B5B78234113F0010FF6D0144B9B78FC
:1034EC00234113F0010FE7D0E00025FA00F3DB4392
:1034FC00DBB2FF21814003FA00F0FFF76FFFE4E736
:10350C000A4BDB7803B138BD0421012000F0FEFE2C
:10351C00074B5B68834201D0042802D0044B5860EF
:10352C00F1E7024B00229A71DA71F7E7FC070020F1
:10353C00A806002070B41E4B9E6800210D461F2368
:10354C0003E00C461D460121013B002B0BDB012245
:10355C009A400242F8D00029F6D13242F1D01D46F1
:10356C0001242146F0E726EA0003114A9360E1B1F9
:10357C006B1E01E01D46013B002B0EDB01229A4025
:10358C000242F8D03242F5D0012202FA05F5084980
:10359C008A682A438A601D46EDE734B1012303FA99
:1035AC0005F5034A93682B43936070BC704700BFCA
:1035BC00A806002070B41E4B9E6800210D460B46D9
:1035CC0003E00C461D46012101331F2B0BDC0122AD
:1035DC009A400242F8D00029F6D13242F1D01D4671
:1035EC0001242146F0E726EA0003114A9360E1B179
:1035FC006B1C01E01D4601331F2B0EDC01229A408F
:10360C000242F8D03242F5D0012202FA05F50849FF
:10361C008A682A438A601D46EDE734B1012303FA18
:10362C0005F5034A93682B43936070BC704700BF49
:10363C00A806002010B5072839D8DFE800F00408E8
:10364C000C11172029320846FFF774FF10BD0846ED
:10365C00FFF7B0FFFAE72E4A936819439160F5E73C
:10366C002B4A936823EA01019160EFE7284BDA6853
:10367C000A43DA601A6922EA01011961E6E7244B70
:10368C001A690A431A61DA6822EA0101D960DDE796
:10369C00C9431F4BDC680C40DC601A690A401A6194
:1036AC00D4E71B4B99600022DA601A61CEE710F068
:1036BC00800FCBD010F0010F12D0154A93680B433A
:1036CC00936010F0020F11D110F0040F17D1C94301
:1036DC000F4BDA680A40DA601A6911401961B5E7D4
:1036EC000B4A936823EA01039360EAE7084BDA6814
:1036FC000A43DA601A6922EA01011961A6E7044B50
:10370C001A690A431A61DA6822EA0102DA609DE753
:10371C00A8060020044AD2F83831C2F8343160339C
:10372C00C2F83831704700BFFC070020F8B5204BB9
:10373C0000221A701F4B9B6913F0400F01D100201F
:10374C00F8BD04461B4B01225A70194F00237B60B5
:10375C00BB607870064601F0A5FB0546F86068B1C1
:10376C0004EB4404204601F09DFB114B186104440A
:10377C009C6150B901200F4B9870E1E701200D4B73
:10378C009870DDE7002305F8013B094BDB683344F7
:10379C00AB42F7D8074AD2F83411FF230B70D2F89A
:1037AC0034118B70D2F8342153700020C8E700BF5D
:1037BC00BC060020FC070020074B1B785BB1064BB6
:1037CC005B7843B1054B1B7813F0C00F03D163F04A
:1037DC007F03024A13707047FC070020BC060020D0
:1037EC00202903D030B4002422460AE07047036835
:1037FC00D5002B41DBB203FB01F35B11AB401C4347
:10380C000132022AF3DD046030BC704710B582B07F
:10381C000C462F4BD3F8341100F01F0303EB43037A
:10382C00CA18C95C53781B0243EA014392781343CC
:10383C00019310F0800F14D110F0400F28D010F02D
:10384C00200F17D0224BDB7913F0020F0BD0204B3B
:10385C00997901F00F01C1F10801890001A8FFF766
:10386C00BFFF00232FE01A4B997901F00F010131B2
:10387C008900F3E7164BDB7913F0010F04D0144BDE
:10388C009979C1F12001E9E7114B99790131E5E70B
:10389C0010F0200F07D00E4BDB7913F0020FE0D1A4
:1038AC0000230193DDE70A4BDB7913F0010FD8D12C
:1038BC0000230193D5E7C3F10202D100019A0A411A
:1038CC00227001330134022BF5DD204602B010BD0D
:1038DC00FC070020104B1B7823B1104B1B7813F006
:1038EC00800F00D1704710B503F07F030B4A43F0F3
:1038FC00400313701169D46804E014F8010BFFF74E
:10390C0085FF0146054AD36852781344A342F4D884
:10391C00024B1A695A6110BDFC070020BC0600203E
:10392C00034BDA68135C23F01F03194311547047DF
:10393C00BC060020034BDA68135C23F0E003194348
:10394C0011547047BC06002010B40C0C084BD3F873
:10395C00342100EB400014540C0AD3F834210244F7
:10396C005470D3F834311844817010BC704700BFC8
:10397C00FC070020BFF34F8F0549CA6802F4E062D0
:10398C00044B1343CB60BFF34F8F00BFFDE700BF69
:10399C0000ED00E00400FA05014B01225A7070475B
:1039AC00D8060020074B00221A705A709A7003F147
:1039BC000801D964102183F85010034959659A65A0
:1039CC00704700BFD8060020A539000882B00368F4
:1039DC001A0202F47F0242EA1362180A00F47F40D2
:1039EC00024342EA036202AB43F8042D002204E0D6
:1039FC0018780870013201330131032AF8D902B06A
:103A0C0070470023934209D210B404780C70013330
:103A1C00013101309342F8D310BC7047704700005D
:103A2C00B24B5B78002B00F00B8470B58CB0AF4BB5
:103A3C0000225A70C8E3AD4B00229A709DF82F30CB
:103A4C00F02B12D0FF2B1BD0A84AD27893421DD05A
:103A5C0003F0F003202B40F0B7830121A34B197026
:103A6C000DF12F0000F076FDAEE3A04B05221A708D
:103A7C00FF22DA7001210DF12F0000F06BFDA3E3A2
:103A8C0001210DF12F0000F065FD9DE3974C2046C0
:103A9C00FF2300F8073F0DF12F02012100F07CFD00
:103AAC0001232370A3708FE3904B00229A719DF831
:103ABC002F30192B00F2E7808C4A53718C49CB5C68
:103ACC00013313719378002B00F0D480D41D0DF1C9
:103ADC002F020121204600F05FFD14F8043C8DF804
:103AEC0020309DF82F308DF82130192B00F2B78043
:103AFC00DFE803F00D243A4F6C6C6C6C706CB56C99
:103B0C006C246C6C6C6C8C6C6C6C6C6C6C90794B01
:103B1C0018680DF122010830FFF758FF734B032290
:103B2C001A700CA8FF2300F80A3D08AA062100F021
:103B3C0033FD072108A800F00DFD45E304220DF12B
:103B4C0022016D48FFF75DFF684B03221A700CA829
:103B5C00FF2300F80A3D08AA062100F01DFD0721ED
:103B6C0008A800F0F7FC2FE30DF122016348FFF7E2
:103B7C002DFF5E4B03221A700CA8FF2300F80A3DA0
:103B8C0008AA062100F008FD072108A800F0E2FCB5
:103B9C001AE3584B18688368B3F1FF3F03D1534BBA
:103BAC0004221A7010E3514B03221A700DF12201FA
:103BBC000830FFF70BFF08AA06210DF1260000F0D4
:103BCC00EBFC072108A800F0C5FCFDE2474B0422E2
:103BDC001A70F9E272B64A4BDA6907920022DA617E
:103BEC0062B60DF1220107A8FFF7F0FE3F4B03224E
:103BFC001A700CA8FF2300F80A3D08AA062100F051
:103C0C00CBFC072108A800F0A5FCDDE2374B06220F
:103C1C001A70D9E23B4C08220DF122012046FFF725
:103C2C00F0FE324B03221A700CA8FF2300F8063D5D
:103C3C0008AA0A2100F0B0FC0B2108A800F08AFCAD
:103C4C000022214604F10800072A00F2BD8210F878
:103C5C00013B0C78234001F8013B0132F4E70CA83E
:103C6C00FF2300F8013D012100F074FC1F4B0022E2
:103C7C001A70A9E21D4B02221A7001210DF12F00BE
:103C8C0000F068FCA0E20CA8FF2300F8013D012124
:103C9C0000F060FC154B00221A7095E201210DF129
:103CAC002F0000F057FC114A93790133DBB293716A
:103CBC0012799342C0F088820C4B00221A7083E276
:103CCC000A4A93790133DBB29371127993421BD375
:103CDC00064BDA799DF82F309A4203D0084A136AC2
:103CEC0001331362014B00221A706DE2D8060020DA
:103CFC00E45000081C0100202C080020F0070020D4
:103D0C00FC070020040800200DF12F020121B2480D
:103D1C0000F042FC58E2B14A91794B1CDBB2937132
:103D2C009DF82F00114408761279934210D3AB4BB7
:103D3C00DB79984213D0AA4A136A01331362A74B5A
:103D4C001B78072B00F04082A44B00221A703BE238
:103D5C000DF12F020121A04800F01EFC34E29F4B14
:103D6C005B79033B152B00F2958101A252F823F0ED
:103D7C00D53D0008FF3D00084B3D0008033E000800
:103D8C00273E0008A1400008513E0008A140000851
:103D9C00753E00089F3E0008A1400008293F00081E
:103DAC00533F00088F3F0008CB3F0008A14000089C
:103DBC0009400008274000085B40000875400008D7
:103DCC008940000895400008844AD37E917E43EADE
:103DDC000123517E43EA0143127E43EA0263804889
:103DEC0040F8283F7F4B19680422083100F02CFB67
:103DFC00A5E7FFF7BFFD7A4BD3F82C1100237A4AC5
:103E0C0004E0107808700133013101322F2BF8D9FE
:103E1C004FF6FF70FFF744F991E772B67048B0F9AE
:103E2C0004306E498C7ECA7E42EA042212B223EA26
:103E3C0002030C7E4A7E42EA042212B213438380B0
:103E4C0062B67CE7664BD3F830110023664A04E077
:103E5C00107808700133013101321F2BF8D94FF063
:103E6C00FF30FFF76DF96AE75D4CFF2384F82C30C7
:103E7C0004F12C0504F13002FC21284600F08CFBE7
:103E8C004FF480725949284600F0DEFA0123237062
:103E9C0055E7534900230A4602F83C3BC1F8382148
:103EAC008B61C1F83031C1F83431EF2B04D80021CB
:103EBC00117001330132F8E74C4800F08BFA484B93
:103ECC009B6AB3F1FF3F0DD1454B5B6AB3F1FF3FEA
:103EDC003FF435AF434B196804220C31444800F0D1
:103EEC00B3FA2CE73F4B196804220831414800F023
:103EFC00ABFAE9E70133032B12D8384A1A44117E86
:103F0C00374A1A4482F830100029F3D0012202FA01
:103F1C0001F1334882690A438261EBE70023EAE747
:103F2C00012400E00134072C3FF609AF2C4B9A69B1
:103F3C000123A3401A42F5D02F4B53F82430002B09
:103F4C00F0D09847EEE7254B5A7E07925E7F1A7F9A
:103F5C0046EA0226DA7E46EA02469B7E46EA03667B
:103F6C000125002401E001346D001F2C3FF6E7AE63
:103F7C003542F8D0194B197E07982044FFF7DAFC2C
:103F8C00F1E7164B5A7E07925E7F1A7F46EA0226AD
:103F9C00DA7E46EA02469B7E46EA03660125002449
:103FAC0001E001346D001F2C3FF6C9AE3542F8D04C
:103FBC000A4B197E07982044FFF7B2FCF1E7074B38
:103FCC005A7E997E090241EA0241DA7E1143079139
:103FDC00187EFFF7B9FCB2E6DF060020D8060020F9
:103FEC00FC0700201C010020F006002000FC00084B
:103FFC00200800202408002024010020914A517E32
:10400C00937E1B0443EA0163D17E43EA0123117FB3
:10401C001943107EFFF70EFB91E68B4BD3F82C2146
:10402C00884B197E01EB41010A440021193304E04D
:10403C00187810700131013201330229F8D9814B03
:10404C001B7E0120984080B2FFF72AF877E67E4B62
:10405C00D3F830117B4B1A7E587E88541B7E01207E
:10406C009840FFF76DF86AE6764C617E207EFFF78C
:10407C0061FC617E207EFFF753FC60E6714B597E3C
:10408C00187EFEF7CDFF5AE66E4B07221A700022FF
:10409C009A7154E60CA8FF2300F8013D012100F0B1
:1040AC0059FA684B00221A7049E69DF82F30FF2B05
:1040BC0009D003F0F002202A2DD001210DF12F00A0
:1040CC0000F048FA80E05F4BDB78FF2B1CD001330B
:1040DC005C4AD3705B4CE3788DF82030FF238DF86D
:1040EC002130022108A800F035FA00232370564B2A
:1040FC00DB78002B68D0012302930223049301A9DF
:10410C005248FCF7CFF85FE04E4B2022DA704E4B52
:10411C000122DA70DEE74B4AD37001210DF12F003A
:10412C0000F018FA50E0474A9079494BA3FB001372
:10413C005B0803EB4303C31ADBB21A449DF82F1040
:10414C001176022B19D03F4A93790133DBB293716C
:10415C001279934221D33B4B197E3B4A82F834109F
:10416C00DA799DF82F309A4203D0374A136A01331B
:10417C001362344B00221A7026E0324B1A7E597EA1
:10418C00090241EA02419B7E19430791304BA3FB84
:10419C0000304008FFF7D8FBD5E70DF12F020121C5
:1041AC002C4800F0F9F90FE09DF82F30FF2B27D0A9
:1041BC00244B00229A7101210DF12F0000F0CAF955
:1041CC00204B9B79402B20D80DF12F0000F0A8F943
:1041DC0040B31C4B1B78072B19D801A252F823F0C3
:1041EC00433A0008B53A0008A93C0008CD3C000849
:1041FC00233D0008B740000833410008B5410008D2
:10420C00104A937901339371D5E7FFF7B3FB0CA8F0
:10421C00FF2300F8013D012100F09CF9094B00221D
:10422C001A70D1E70DF1160106A800F0ABF9BDF834
:10423C00161009B90CB070BD069800F025FCF9E712
:10424C00704700BFD8060020FC070020000C01407E
:10425C00ABAAAAAADF06002070B400EA0104414010
:10426C00630303F40053E20002F4E0621343E2013F
:10427C0002F400421343A20802F480421343200DBF
:10428C00C2B213434A0702F000521343CA0402F0AD
:10429C00E0621343CA0502F0004213438A0B02F09A
:1042AC00040213430D0905F47F021343E20202F4E6
:1042BC007042A60906F47E763243C4F3017632438B
:1042CC0000F440600243C80600F0704002438802CC
:1042DC0000F07E700243080B00F44030024305F0FE
:1042EC0040652A43240904F46044090301F0604149
:1042FC00214304480360044B1A6003F58063196082
:10430C0070BC704710080140100C01408002024B39
:10431C00C0580840704700BF0808014070B50646F9
:10432C004FF6FF710020FFF7F1FF04464FF6FF71C7
:10433C000120FFF7EBFF05464FF6FF710220FFF758
:10434C00E5FFC4F34033EA0A02F01E021343E2080D
:10435C0002F0E0021343E20902F480721343AA0153
:10436C0002F47E421343A20002F480321343000194
:10437C0000F460201843240504F07F6420432B07CD
:10438C0003F0405318432D0505F0404528433040B9
:10439C0070BD000010B48002034BC45862400A4048
:1043AC006240C25010BC70470C080140054B1A68A3
:1043BC00054951601B68054A5A60054B00221A706A
:1043CC00704700BF4401002023016745AB89EFCD46
:1043DC001801002010B50446194B1B78DBB9194B9A
:1043EC001B68DB6813F0010F26D1164B1A680221EB
:1043FC0011611A6854611B6842221A610023114A28
:10440C001268D26812F0010F08D042F20F72934278
:10441C0004DC0133F3E7FFF7C9FFE0E742F20F7268
:10442C0093420BDC074B1B68DB6813F0140F01D1B4
:10443C00002002E0012000E0012010BD0120FCE77B
:10444C001801002044010020F8B504460D4616461C
:10445C001C4B1B785BB91C4B1B68DB6813F0010F02
:10446C002AD1194B1B6801221A6100211AE0FFF7AF
:10447C009DFFF0E70133144A1268D26812F0010F65
:10448C0003D042F20F729342F4DD42F20F72934268
:10449C0014DC0D4B1B68DB6813F0140F10D10231C8
:1044AC003D460446B14205DAA01CAF1C23882B8084
:1044BC000023E0E7002000E00120F8BD0120FCE72C
:1044CC000120FAE71801002044010020044B03F1FD
:1044DC0008021A605A600022C3F8A820704700BF77
:1044EC003807002010B509E00B4A52689A420ED0EA
:1044FC00013902782270084A1360013039B1064A3A
:10450C0052F8884B631C9342EED1044BECE700202D
:10451C00FFF742FA10BD00BF38070020400700200B
:10452C000B4B5A681B689A4210D0094B511C5960AE
:10453C00127802705A6888339A4201D00120704771
:10454C00883B03F108025A60012070470020704735
:10455C003807002000228A4210DA30B4084BD3F816
:10456C00A840651CC3F8A8500578234483F88850EC
:10457C00013201308A42F1DB30BC7047704700BF1A
:10458C0038070020034B03601A8C0A8000221A6241
:10459C00704700BFC0070020F0B40378002612E07B
:1045AC00955D85EA03042409094F3C5784EA0313FB
:1045BC00DCB285EA141505F00F057B5783EA04136A
:1045CC00DBB20136B6B28E42EADB0370F0BC704748
:1045DC00005100080F4A0023136053600E4A937178
:1045EC00D3710E4A1168CA6942F00102CA610C4AC1
:1045FC00116830208862116840F2E730C862116897
:10460C000120086011684B6011688B601268D360E0
:10461C00704700BFE4070020FC0700204801002081
:10462C005801002008B5224B1B681B6913F0010FC1
:10463C0031D0204A1368013313601D4B1B680021D5
:10464C001961536801335360272B24DD1A4A93797F
:10465C00013303F01F03937113F0070F07D1D179C6
:10466C0081F00201D171D2780AB1082B14D0124B0F
:10467C009B794BB9104AD37983F00103D371D2786B
:10468C0012B113F0010F0DD00A4B00225A60FFF744
:10469C0093F8FEF7EBFE08BD002204210120FFF782
:1046AC0079FEE4E7042211460120FFF773FEEBE7E5
:1046BC0058010020E4070020FC070020014B18687B
:1046CC00704700BFE407002084B0134B9A6942F096
:1046DC0010029A619A6902F010020092009A9A698B
:1046EC0042F020029A619A6902F020020192019A2A
:1046FC009A6942F008029A619A6902F008020292E1
:10470C00029A9A6942F004029A619B6903F00403CD
:10471C000393039B04B070470010024070B594B033
:10472C0000240C940D940F94109405940694079403
:10473C0008940994019402940394049401250A9515
:10474C004FF480330B930E950226119612934FF46F
:10475C00801313930AA8FCF7EDFA0F230593069622
:10476C0007944FF4806308930994294605A8FCF735
:10477C0021FD102301934FF48003049301A8FCF74F
:10478C00CDFD14B070BD00001F4B00229A611A625F
:10479C009A701A705A70DA7003F13C02C3F838211F
:1047AC001A4A1268D168596292689A62164B1B7841
:1047BC004BBB10B582B00EE0134A012102F82C1B42
:1047CC0003E0196811600432043311498B42F8D9A3
:1047DC000D4B1B78ABB902A8FF2300F8013D0B4C25
:1047EC0062680432FC21FFF7D7FE636819789DF8E4
:1047FC0007209142E0D0FEF7AFF9034B00221A706C
:10480C00E6E702B010BD7047FC0700201C01002039
:10481C00FFFC0008154B1B7813B110B5002301E009
:10482C0070470133032B0DDC104A1A4492F83020E8
:10483C00002AF6D0012101FA02F20C4881691143D9
:10484C008161EEE7012400E00134072C0DDC074BFD
:10485C009A690123A3401A42F6D0054B03EB84035B
:10486C009B68002BF0D09847EEE710BDFC070020AA
:10487C001C01002010B5FBF787FC174A536823F086
:10488C00E06343F080635360FFF748FFFFF71CFFC2
:10489C0000F0A6F8114B124A5A60FFF775FFFFF7AC
:1048AC00B9FFFFF713FEFFF77DF80E4C94F83400B8
:1048BC00FEF73CFFA070FFF78DFE62B6FFF7B2FE6D
:1048CC00FFF708F8FEF786F9FEF7D6FDFFF7A8F814
:1048DC00FEF78EFDF2E700BF00000140EC07002060
:1048EC0002010001FC0700207047000082B00E4B53
:1048FC009A6942F001029A619A6902F001020092EF
:10490C00009ADA6942F08052DA61DB6903F0805375
:10491C000193019B054A536823F0E06343F0007355
:10492C00536002B0704700BF00100240000001400D
:10493C007047FEE7FEE7FEE7FEE7704770477047FB
:10494C0008B5FBF733FC08BD08B50248FCF79DF829
:10495C0008BD00BFCC13002008B503460B4A1268F3
:10496C0042B10A4A106803446A46934206D8074A81
:10497C00136008BD054A06491160F2E700F068FAB9
:10498C000C2303604FF0FF30F3E700BF440200201C
:10499C00401800200F4B1A6842F001021A60596847
:1049AC000D4A0A405A601A6822F0847222F480324E
:1049BC001A601A6822F480221A605A6822F4FE02E5
:1049CC005A604FF41F029A60044B4FF000629A60D9
:1049DC00704700BF001002400000FFF800ED00E03F
:1049EC0008B500220F491048FDF7C8FB70B90F49F4
:1049FC000D48FDF7DAFB60B90D490B48FDF776FB66
:104A0C0050B90948FDF7D8FB48B908BDFFF76CFF52
:104A1C00EDE7FFF769FFEFE7FFF766FFF1E7FFF759
:104A2C0063FFF2E7A401002038090020E000002019
:104A3C0060010020002070470020704738B5054603
:104A4C000968FFF74FFD054C29462046FDF75DFB35
:104A5C002046FDF77AFB002038BD00BF3809002046
:104A6C0010B5064C002206492046FDF746FB0549C9
:104A7C002046FDF74AFB002010BD00BF380900207E
:104A8C00E40F0020FC0B0020094BD3F8B832D3F80C
:104A9C0014320BB10120704710B50A460146044C84
:104AAC002046FDF72AFB2046FDF735FB10BD00BF65
:104ABC003809002018B1022803D0022070470020CA
:104ACC00704701207047000002680E4B9A4200D0DC
:104ADC00704700B583B003F5DA33DA6942F40002AB
:104AEC00DA61DB6903F400030193019B0022114698
:104AFC001420FBF77FFB1420FBF7B0FB03B05DF831
:104B0C0004FB00BF005C004008B500F50C71D0F848
:104B1C006802FDF76AFB08BD08B500EB4113D3F83A
:104B2C003C21D0F86802FDF78DFB08BD08B500EB01
:104B3C004113DA6BD0F86802FDF7CDFB08BD08B560
:104B4C00D0F86802FDF76FFC08BD10B50446836809
:104B5C00022B01D0FFF7C8FE0121D4F86802FDF743
:104B6C004BFCD4F86802FDF71FFC10BD10B50446D1
:104B7C00D0F86802FDF743FCA36923B1024A13691C
:104B8C0043F00603136110BD00ED00E008B5D0F84A
:104B9C006802FDF73DFC08BD10B504461D48C0F881
:104BAC006842C4F8C0021C4B036008234360022314
:104BBC00836000238361C3610362FBF75FFC30BB3E
:104BCC00182300221146D4F8C002FCF785F85823AC
:104BDC0000228021D4F8C002FCF77EF8C02300220A
:104BEC008121D4F8C002FCF777F84FF488730022C7
:104BFC000121D4F8C002FCF76FF84FF48073002247
:104C0C008221D4F8C002FCF767F8002010BDFFF732
:104C1C006BFED5E7CC130020005C004008B5D0F843
:104C2C00C002FBF7A5FCFFF745FF08BD10B51C46FD
:104C3C0013462246D0F8C002FBF7C5FCFFF73AFF3B
:104C4C0010BD08B5D0F8C002FBF7F5FCFFF732FF3A
:104C5C0008BD08B5D0F8C002FBF7D0FFFFF72AFF5C
:104C6C0008BD08B5D0F8C002FBF7FFFFFFF722FF25
:104C7C0008BDD0F8C03211F0800F06D101F07F01D1
:104C8C0003EB411191F82A01704701F07F0103EB0E
:104C9C00411191F82A00704708B5D0F8C002FBF713
:104CAC007EFCFFF707FF08BD08B5D0F8C002FBF784
:104CBC0016FDFFF7FFFE08BD08B5D0F8C002FBF7E4
:104CCC00E8FCFFF7F7FE08BD08B5D0F8C002FBF70B
:104CDC00FFFC08BD004870474C020020704770472D
:104CEC0012230B80004870477001002004230B80B6
:104CFC0000487047840100200023934216D230B440
:104D0C000BE0373401F8134000015C00013400253E
:104D1C000D550133DBB2934206D2040F092CF0D8A7
:104D2C00303401F81340EFE730BC70477047000097
:104D3C0038B50B4B186804331C6804331B68C01857
:104D4C0000D138BD074D082205F11A01FFF7D4FF39
:104D5C00042205F12A012046FFF7CEFFF1E700BF40
:104D6C00E8F7FF1F7001002008B51A230B80FFF72E
:104D7C00DFFF014808BD00BF8801002008B50A46C6
:104D8C0028B105490548FDF789FE034808BD0249CD
:104D9C000248FDF783FEF8E7381600202852000879
:104DAC0010B5044C0A4621460348FDF777FE204611
:104DBC0010BD00BF381600204052000808B50A4646
:104DCC0028B105490548FDF769FE034808BD0249AD
:104DDC000248FDF763FEF8E738160020545200082D
:104DEC0008B50A4628B105490548FDF757FE0348A2
:104DFC0008BD02490248FDF751FEF8E738160020BD
:104E0C0060520008002103E00B4B5B584350043107
:104E1C000A480B4B42189A42F6D30A4A02E0002386
:104E2C0042F8043B084B9A42F9D3FFF7B3FD00F06C
:104E3C0015F8FFF71FFD704778520008000000209E
:104E4C0024020020240200203C180020FEE7000071
:104E5C00014B1868704700BFC001002070B50025D9
:104E6C000C4E0D4CA41BA410A54209D100F08EF8D9
:104E7C0000250A4E0A4CA41BA410A54205D170BDF6
:104E8C0056F8253098470135EEE756F82530984707
:104E9C000135F2E770520008705200087052000899
:104EAC0074520008024B0146186800F003B800BFAA
:104EBC00C001002070B5CD1C25F0030508350C2D64
:104ECC0038BF0C25002D064601DBA94203D90C2363
:104EDC003360002070BD00F057F8214A1468214659
:104EEC0091B9204C23681BB9304600F03DF8206086
:104EFC002946304600F038F8431C24D10C233046A8
:104F0C00336000F042F8E4E70B685B1B18D40B2B02
:104F1C000FD90B60CC18CD50304600F036F804F1A8
:104F2C000B00231D20F00700C31AD3D05A42E250C5
:104F3C00D0E74B688C4216BF636013600C46EBE7FE
:104F4C000C464968CCE7C41C24F00304A04205D0ED
:104F5C00211A304600F008F80130CFD02560DBE78D
:104F6C006C0400207004002038B50023054C054665
:104F7C0008462360FFF7F0FC431C02D1236803B101
:104F8C002B6038BD3818002070477047F8B500BF4B
:104F9C00F8BC08BC9E467047F8B500BFF8BC08BC0E
:044FAC009E46704766
:104FB00002030405060708090A0B0C0D0E0F10105A
:104FC00001020000000000000000000000000000DE
:104FD00000000000000000000000000000000000D1
:104FE000000000000008014000200000000C01400B
:104FF00000100000000C014000200000000C0140E7
:1050000000400000000C014000800000000801404A
:1050100000010000000801400002000000080140FB
:10502000000400000008014000800000000C014066
:1050300008000000000C014010000000000C0140BE
:1050400020000000000C014040000000000C014066
:1050500080000000000C014000010000000C014035
:105060000002000000080140004000000010014064
:10507000002000000010014000400000001001402E
:10508000008000000008014001000000000801400D
:105090000200000000080140040000000008014078
:1050A0000800000000080140100000000008014056
:1050B00020000000000801404000000000080140FE
:1050C00080000000000C014001000000000C0140C5
:1050D00002000000000C014000040000000C014030
:1050E000000800000404040400003004042002004E
:1050F0000004040606046105040202020008000020
:1051000000070E091C1B1215383F363124232A2DA7
:1051100000070E091C1B1215383F363124232A2D97
:1051200070777E796C6B6265484F464154535A5D87
:10513000E0E7EEE9FCFBF2F5D8DFD6D1C4C3CACD77
:1051400090979E998C8B8285A8AFA6A1B4B3BABD67
:10515000C7C0C9CEDBDCD5D2FFF8F1F6E3E4EDEA57
:10516000B7B0B9BEABACA5A28F88818693949D9A47
:105170002720292E3B3C35321F18111603040D0A37
:105180005750595E4B4C45426F68616673747D7A27
:10519000898E878095929B9CB1B6BFB8ADAAA3A417
:1051A000F9FEF7F0E5E2EBECC1C6CFC8DDDAD3D407
:1051B000696E676075727B7C51565F584D4A4344F7
:1051C000191E171005020B0C21262F283D3A3334E7
:1051D0004E49404752555C5B7671787F6A6D6463D7
:1051E0003E39303722252C2B0601080F1A1D1413C7
:1051F000AEA9A0A7B2B5BCBB9691989F8A8D8483B7
:10520000DED9D0D7C2C5CCCBE6E1E8EFFAFDF4F3A6
:105210000000000000000000010203040607080966
:10522000000000000102030453544D33322056693C
:10523000727475616C20436F6D506F727400000062
:1052400053544D6963726F656C656374726F6E69F8
:105250006373000043444320436F6E666967000038
:1052600043444320496E74657266616365000000C3
:045270003101000800
:045274000D01000820
:10527800010000001000000009024300020100C004
:105288003209040000010202010005240010010592
:1052980024010001042402020524060001070582F6
:1052A8000308001009040100020A000000070501B4
:1052B8000240000007058102400000000902430087
:1052C800020100C0320904000001020201000524A5
:1052D800001001052401000104240202052406002F
:1052E800010705820308001009040100020A0000F2
:1052F8000007050102000200070581020002000004
:1053080009074300020104C0320904000001020237
:1053180001000524001001052401000104240202F3
:10532800052406000107058203080010090401008E
:10533800020A00000007050102400000070581027B
:10534800400000000A0600020000004001000000C2
:105358004F2000080D200008331F0008000000003F
:105368005F1E0008E71E0008B91E000800000000C4
:105378000000000000000000951E0008891E0008BB
:10538800A11E0008AD1E000801000000F0FF000883
:1053980000FC0008000000009D3100089D31000855
:1053A80015340008000000009D310008213700086E
:1053B800153400080020024000100240001001408F
:1053C800000C014000080140000000400024F400E7
:1053D8006D4A0008414A0008454A0008494A000841
:1053E8001201000202020040830440570002010239
:1053F80003010000040309041A0300000000000070
:105408000000000000000000000000000000000094
:1054180000000000ED4C0008F94C0008AD4D0008F4
:10542800894D0008754D0008C94D0008ED4D00086C
:10543800C40100200000000000000000000000007F
:105448000000000000000000000000000000000054
:105458000000000000000000000000000000000044
:105468000000000000000000000000000000000034
:105478000000000000000000000000000000000024
:105488000000000000000000000000000000000014
:045498000000000010
:0400000508004E1190
:00000001FF
